:020000040800F2
:1000000000000220DD340008AD300008B5300008E3
:10001000BD300008C5300008CD30000800000000E9
:10002000000000000000000000000000D5300008C3
:10003000E330000800000000F1300008FF30000845
:100040002D3500082D3500082D3500082D35000808
:100050002D3500082D3500080D3100082D3500081C
:100060002D3500082D3500082D3500082D350008E8
:100070002D3500082D3500082D3500082D350008D8
:100080002D3500082D3500082D3500080000000032
:100090000000000000000000000000002D350008F6
:1000A0002D3500082D3500082D3500082D350008A8
:1000B0002D3500082D3500082D3500082D35000898
:1000C0002D3500082D3500082D3500082D35000888
:1000D0002D3500082D3500082D35000800000000E2
:1000E000213100082D3500082D35000800000000E2
:1000F0000000000000000000000000002D35000896
:10010000000000002D3500082D3500082D350008B1
:1001100000000000000000000000000000000000DF
:100120002D3500082D3500082D3500082D35000827
:100130002D35000800000000000000000000000055
:100140000000000000000000000000002D35000845
:100150002D3500082D3500082D3500082D350008F7
:100160002D3500082D3500080000000000000000BB
:10017000000000000000000000000000000000007F
:10018000000000002D350008000000000000000005
:080190002D3500082D35000893
:1001A00010B5054C237833B9044B13B10448AFF3B1
:1001B00000800123237010BD80000020000000009B
:1001C000E083000808B5034B1BB103490348AFF3B4
:1001D000008008BD0000000084000020E0830008CB
:1001E000034613F8012B002AFBD1181A0138704777
:1001F00001F0FF01102A2BDB10F0070F08D010F8D8
:10020000013B013A8B422DD010F0070F42B3F6D1DB
:10021000F0B441EA012141EA014122F007047FF0F4
:1002200000070023F0E80256083C85EA010586EA4B
:10023000010685FA47F5A3FA87F586FA47F6A5FA87
:1002400087F68EB9EED1F0BC01F0FF0102F0070293
:1002500032B110F8013B013A83EA010313B1F8D13E
:100260000020704701387047002D06BF354603381F
:10027000073815F0010F07D1013015F4807F02BF58
:10028000013015F4C03F0130F0BC0138704700BFA9
:1002900081F0004102E000BF83F0004330B54FEA37
:1002A00041044FEA430594EA050F08BF90EA020FA4
:1002B0001FBF54EA000C55EA020C7FEA645C7FEA37
:1002C000655C00F0E2804FEA5454D4EB5555B8BF5A
:1002D0006D420CDD2C4480EA020281EA030382EACB
:1002E000000083EA010180EA020281EA0303362D5D
:1002F00088BF30BD11F0004F4FEA01314FF4801C30
:100300004CEA113102D0404261EB410113F0004F41
:100310004FEA03334CEA133302D0524263EB4303F8
:1003200094EA050F00F0A780A4F10104D5F1200E96
:100330000DDB02FA0EFC22FA05F2801841F10001F1
:1003400003FA0EF2801843FA05F359410EE0A5F1C5
:1003500020050EF1200E012A03FA0EFC28BF4CF0F6
:10036000020C43FA05F3C01851EBE37101F00045AC
:1003700007D54FF0000EDCF1000C7EEB00006EEBB9
:100380000101B1F5801F1BD3B1F5001F0CD3490843
:100390005FEA30004FEA3C0C04F101044FEA44529A
:1003A00012F5800F80F09A80BCF1004F08BF5FEA21
:1003B000500C50F1000041EB045141EA050130BD01
:1003C0005FEA4C0C404141EB0101013C28BFB1F513
:1003D000801FE9D291F0000F04BF01460020B1FA5E
:1003E00081F308BF2033A3F10B03B3F120020CDA31
:1003F0000C3208DD02F1140CC2F10C0201FA0CF00F
:1004000021FA02F10CE002F11402D8BFC2F1200C73
:1004100001FA02F120FA0CFCDCBF41EA0C01904029
:10042000E41AA2BF01EB0451294330BD6FEA040472
:100430001F3C1CDA0C340EDC04F11404C4F120025D
:1004400020FA04F001FA02F340EA030021FA04F36F
:1004500045EA030130BDC4F10C04C4F1200220FAC6
:1004600002F001FA04F340EA0300294630BD21FA04
:1004700004F0294630BD94F0000F83F4801306BFCA
:1004800081F480110134013D4EE77FEA645C18BFBE
:100490007FEA655C29D094EA050F08BF90EA020F55
:1004A00005D054EA000C04BF1946104630BD91EA4D
:1004B000030F1EBF0021002030BD5FEA545C05D150
:1004C0004000494128BF41F0004130BD14F580048F
:1004D0003CBF01F5801130BD01F0004545F0FE4103
:1004E00041F470014FF0000030BD7FEA645C1ABF38
:1004F000194610467FEA655C1CBF0B46024650EA6F
:10050000013406BF52EA033591EA030F41F400219A
:1005100030BD00BF90F0000F04BF0021704730B520
:100520004FF4806404F132044FF000054FF00001F5
:1005300050E700BF90F0000F04BF0021704730B5B6
:100540004FF4806404F1320410F0004548BF40428B
:100550004FF000013EE700BF42004FEAE2014FEAE0
:1005600031014FEA02701FBF12F07F4393F07F4FBB
:1005700081F06051704732F07F4208BF704793F0BE
:100580007F4F04BF41F40021704730B54FF46074D1
:1005900001F0004521F000411CE700BF50EA0102D4
:1005A00008BF704730B54FF000050AE050EA01027D
:1005B00008BF704730B511F0004502D5404261EBED
:1005C00041014FF4806404F132045FEA915C3FF42E
:1005D000D8AE4FF003025FEADC0C18BF03325FEACB
:1005E000DC0C18BF033202EBDC02C2F1200300FA7C
:1005F00003FC20FA02F001FA03FE40EA0E0021FAA1
:1006000002F11444BDE600BF4FEA4102B2F1E043FB
:1006100024BFB3F5001CDCF1FE5C0DD901F0004CE9
:100620004FEAC0024CEA5070B2F1004F40EB830039
:1006300008BF20F00100704711F0804F21D113F165
:100640003872BCBF01F00040704741F480114FEA9E
:100650005252C2F11802C2F1200C10FA0CF320FA27
:1006600002F018BF40F001004FEAC1234FEAD32344
:1006700003FA0CFC40EA0C0023FA02F34FEA4303AE
:10068000CCE77FEA625307D150EA01331EBF4FF037
:10069000FE4040F44000704701F0004040F0FE4052
:1006A00040F40000704700BF53B94AB9002908BFA1
:1006B00000281CBF4FF0FF314FF0FF3000F088B929
:1006C000ADF1080C6DE904CE00F006F8DDF804E0A9
:1006D000DDE9022304B070472DE9F047089D8E46FE
:1006E00004468846002B4AD18A42174662D9B2FA9C
:1006F00082F64EB1C6F1200301FA06F820FA03F3A0
:10070000B74043EA0808B4404FEA174E1FFA87FC87
:10071000B8FBFEF1230C0EFB118843EA084301FBF2
:100720000CF29A4209D9FB1801F1FF3080F0EA80FF
:100730009A4240F2E78002393B449A1AA3B2B2FBD4
:10074000FEF00EFB102243EA024300FB0CFC9C452A
:1007500009D9FB1800F1FF3280F0D6809C4540F2A9
:10076000D3803B44023840EA0140A3EB0C03002154
:100770001DB1F3400022C5E90032BDE8F0878B428D
:1007800005D90DB1C5E9000100210846F5E7B3FA26
:1007900083F1002946D1734502D3824200F20581DC
:1007A000841A6EEB030201209046002DE5D0C5E9C6
:1007B0000048E2E7002A00F09080B2FA82F6002EAC
:1007C00040F0A4808A1A030C4FEA174E80B2BCB2E4
:1007D0000121B2FBFEFC0EFB1C2243EA024304FB98
:1007E0000CF29A4207D9FB180CF1FF3802D29A4258
:1007F00000F2E080C4469B1AB3FBFEF20EFB1233FC
:1008000040EA034302FB04F49C4207D9FB1802F1BF
:10081000FF3002D29C4200F2CA8002461B1B42EA11
:100820000C40A5E7C1F120068B4022FA06F71F43D2
:100830000EFA01F420FA06F32EFA06FE4FEA1749E3
:10084000234300FA01F81FFA87FCBEFBF9F01C0CE9
:1008500009FB10EE44EA0E4400FB0CFEA64502FA2A
:1008600001F209D93C1900F1FF3A80F09C80A645BD
:1008700040F2998002383C44A4EB0E041FFA83FE38
:10088000B4FBF9F309FB13444EEA044403FB0CFCEC
:10089000A44508D93C1903F1FF3E80F08280A445AD
:1008A0007FD9023B3C4443EA0040A4EB0C04A0FB8C
:1008B00002EC64457346E14662D35FD05DB1B8EBAC
:1008C000030264EB090404FA06F622FA01F31E435C
:1008D000CC40C5E9006400214FE7B1FBF2FC010CFC
:1008E00041EA0E4180B240EA01423B4638463C466E
:1008F000B846BE462026B1FBF7F1A2EB080241EA5A
:100900000C4166E7014618E710462CE7C6F12002C5
:100910002EFA02F3B740B14020FA02F24FEA174E26
:100920000A43B3FBFEF8BCB20EFB1833110C41EACC
:10093000034108FB04F9B04089454FEA104380B2F7
:100940003ED9791808F1FF3C01D289451FD8A1EBA7
:100950000901B1FBFEF909FB04F80EFB191192B273
:1009600042EA0142424529D2BA1809F1FF31C4D204
:100970004245C2D2A9F102013A44BEE7F0459DD2F8
:10098000BEEB02036CEB070C0138E14696E7A7EBE0
:1009900009094944A8F1020CB1FBFEF909FB04F86E
:1009A000DBE773467FE7504666E70846FDE63B44D3
:1009B000023A33E7ACF1020C3B441CE749469CE7A2
:1009C000A1EB0901C446B1FBFEF909FB04F8C4E739
:1009D000704700BFB0B584B002AF02F0FFFF78608F
:1009E0007B68204AA2FB0323590D1F4BA3FB012365
:1009F0001A0913465B001344DB00CA1A10467B68D1
:100A00001A4AA2FB0323990B194BA3FB01235A0992
:100A100013461B019B1A9B00CA1A14467B68154A91
:100A2000A2FB03239909124BA3FB01235A09134686
:100A30001B019B1A9B00CA1A15467A680D4BA3FB33
:100A400002139B094FF47A7101FB03F3D31A00934D
:100A50002B4622460146084806F02AFD00BF08370B
:100A6000BD46B0BDB17C2195ABAAAAAA73B2E74539
:100A700089888888D34D6210F8830008B0B58AB0A1
:100A800004AF694B3B6100F0F9F8002002F00EFE64
:100A90000346DAB2654B1A700021654806F0D0F8BB
:100AA000BA1D07F108031146184605F03DFF05F091
:100AB0007DFF642002F09EFF3B7A1946FB881A46B0
:100AC0005C4806F0F5FC3B7A302B02D95A4B0122E8
:100AD0001A7007F10902594B0621802005F09EFE8D
:100AE00003467B617B69002B02D0554806F050FD20
:100AF000524B5B7903F0C003C02B04D0514806F081
:100B000047FD00BFFDE705F055FC03467B617B69AF
:100B1000002B02D04C4806F03BFD474B1B78012BC5
:100B200010D107F10E0207F10A03019307F10C033C
:100B30000093134607220021012005F00FFA034617
:100B40007B610AE007F10A0307F10C0207F10E01CD
:100B5000012005F053FA03467B617B69002B02D02C
:100B60003A4806F015FDFC89BD893869FFF738FB66
:100B70000346DAB23B690093134600222946204619
:100B800005F08FFD03467B617B69002B04D0304864
:100B900006F0FEFC00BFFDE7012303932D4B0293FB
:100BA000002301931023009307230022002101203A
:100BB00005F058FB03467B617B69002B04D0264877
:100BC00006F0E6FC00BFFDE7244806F0E1FC01F07A
:100BD000B7FA03467B617B69002B0AD1204806F0F7
:100BE000D7FC01F07FFB03467B617B69002B0AD1B8
:100BF00005E079691B4806F05BFC00BFFDE71A4879
:100C000006F0C6FC05E07969164806F051FC00BF05
:100C1000FDE70421012005F056FE03467B6100BF7D
:100C20001837BD46B0BD00BF10840008000000208A
:100C30001D290008188400089C000020A000002046
:100C40002C84000850840008788400088C840008F4
:100C5000A084000840E20100C4840008F484000875
:100C60000C850008348500086485000880B500AF55
:100C700000F012F806F05EF900BF80BD80B500AF4D
:100C80000121002002F0BEFC002002F051FC0020F7
:100C900002F06EFD00BF80BD80B582B000AF2C4B6E
:100CA0001B78DBB2002B04D001F0ACFD284B0022F6
:100CB0001A70002002F04EFC264B1B68002B42D01D
:100CC00002F08CFE0346184606F0C4FA3A463B1D75
:100CD0001146184600F04CF8D7ED007A9FED1E7AC9
:100CE00067EE877AFDEEE76AD7ED017AB2EE047A15
:100CF00067EE877AFDEEE77A17EE903A1BB2194657
:100D000016EE900A01F032FD144B1B68184600F0F5
:100D1000AFF8134A1349144801F074FB134801F06B
:100D200003FC0E4B1B6801330C4A13600B4B1B6812
:100D3000282B04D1094B00221A6001F007F94FF467
:100D40007A7002F057FE00BF0837BD4680BD00BF75
:100D500001000020DC0000200000C842A8000020A4
:100D6000F8000020EC000020E0000020040100203A
:100D70002DE9B04F84B000AFF860B96006F098FA82
:100D80000346DA179A46934652465B464FF00000F8
:100D90004FF00001990041EA9271900002460B4623
:100DA00012EB0A01396043EB0B037B606FF00042EA
:100DB0004FF00003D7E90001FFF776FC02460B462F
:100DC00010461946FFF7EAFB4FF00002264BFFF7EB
:100DD00065FA02460B4610461946FFF715FC024617
:100DE000FB681A6006F064FA0346DA1798469146E3
:100DF00042464B464FF000004FF00001990041EA97
:100E00009271900002460B4612EB080443EB090571
:100E10004FF000024FF000032B0143EA147322014C
:100E200014461D46204629466FF000424FF000034D
:100E3000FFF73AFC02460B4610461946FFF7AEFB99
:100E40004FF00002094BFFF729FA02460B46104605
:100E50001946FFF7D9FB0246BB681A6000BF10377E
:100E6000BD46BDE8B08F00BF00003B4000408F4052
:100E70002DE9B04FADF57A7D00AFC7F8E403D7F8A0
:100E8000E433132B00F2268406F012FA0346DA1735
:100E9000C7F82833C7F82C23D7F8E4330022C7F863
:100EA0002033C7F82423D7E9CA452B46D7E9C8AB76
:100EB000524602FB03F25B46214601FB03F3134457
:100EC00022465146A2FB01894B44994642464B4675
:100ED0009118B9665B41FB66D7E91A2312EB08014A
:100EE000C7F8181343EB0903C7F81C336FF000422F
:100EF0004FF00003D7E9C601FFF7D6FB02460B46C9
:100F000012F10A01C7F8C81043F10003C7F8CC304A
:100F1000EC4B1B681A46D7F8C83013441A46E94B05
:100F20001A6006F0C5F90346DA17C7F81033C7F898
:100F30001423D7F8E4330022C7F80833C7F80C238A
:100F4000D7E9C4452B46D7E9C289424602FB03F2E2
:100F50004B46214601FB03F3134422464146A2FBC4
:100F60000112C7F8DC230A46C7F8D823D7F8DC23D8
:100F70001344C7F8DC33D7E9F64522462B464FF039
:100F800000004FF00001990041EA92719000024682
:100F90000B4621465118C7F80013294643EB0101BF
:100FA000C7F804136FF000424FF00003D7E9C00107
:100FB000FFF77AFB02460B466FF009004FF0FF3156
:100FC000801AC7F8C00061EB0303C7F8C430BD4BFB
:100FD0005B681A46D7F8C03013441A46B94B5A60BA
:100FE00006F066F90346DA17C7F8F832C7F8FC22AC
:100FF000D7F8E4330022C7F8F032C7F8F422D7E973
:10100000BE452B46D7E9BC89424602FB03F24B465C
:10101000214601FB03F3134422464146A2FB011281
:10102000C7F8D4230A46C7F8D023D7F8D4231344EB
:10103000C7F8D433D7E9F44522462B464FF00000D9
:101040004FF00001D90041EA5271D00002460B4630
:101050002146511AC7F8E812294663EB0103C7F885
:10106000EC326FF000424FF00003D7E9BA01FFF70E
:101070001BFB02460B4612F10A01C7F8B81043F1F8
:101080000003C7F8BC308F4B9B681A46D7F8B830BE
:1010900013441A468B4B9A6006F00AF90346DA1796
:1010A000C7F8E032C7F8E422D7F8E4330022C7F8E3
:1010B000D832C7F8DC22D7E9B8452B46D7E9B6893C
:1010C000424602FB03F24B46214601FB03F3134465
:1010D00022464146A2FB0112C7F8CC230A46C7F8B4
:1010E000C823D7F8CC231344C7F8CC33D7E9F2127E
:1010F0000B46DB183B66134642EB03037B66D7E9DE
:1011000018016FF000424FF00003FFF7CDFA0246DE
:101110000B4612F16401C7F8B01043F10003C7F8A1
:10112000B430694B1B681A46D7F8B03013441A46DE
:10113000654B1A6006F0BCF80346DA17C7F8D032E0
:10114000C7F8D422D7F8E4330022C7F8C832C7F86A
:10115000CC22D7E9B4452B46D7E9B289424602FBF7
:1011600003F24B46214601FB03F31344224641465A
:10117000A2FB0112C7F8C4230A46C7F8C023D7F858
:10118000C4231344C7F8C4334FF000004FF00001EC
:10119000D7E9F0452B469900234641EA937123464F
:1011A00098006FF000424FF00003FFF77DFA02460F
:1011B0000B466FF063004FF0FF31801AC7F8A800AC
:1011C00061EB0303C7F8AC303F4B5B681A46D7F8B6
:1011D000A83013441A463C4B5A6006F069F803469F
:1011E000DA17C7F8C032C7F8C422D7F8E4330022B0
:1011F000C7F8B832C7F8BC22D7E9B0452B46D7E9C3
:10120000AE89424602FB03F24B46214601FB03F343
:10121000134422464146A2FB0112C7F8BC230A46EA
:10122000C7F8B823D7F8BC231344C7F8BC33D7E9B1
:10123000EE4522462B469118B9655B41FB65D7E91F
:101240001623214651183965294643EB010179657A
:10125000D7E914120B46DB18BB64134642EB0303B9
:10126000FB64D7E91234184621466FF000424FF074
:101270000003FFF719FA02460B4612F16401C7F8A2
:10128000A01043F10003C7F8A4300F4B9B681A4627
:10129000D7F8A03013441A460B4B9A6006F008F8B2
:1012A0000346DA17C7F8B032C7F8B422D7F8E433E8
:1012B0000022C7F8A832C7F8AC22D7E9AC452B46C4
:1012C00004E000BFE0000020EC000020D7E9AA897C
:1012D000424602FB03F24B46214601FB03F3134453
:1012E00022464146A2FB0112C7F8B4230A46C7F8BA
:1012F000B023D7F8B4231344C7F8B433D7E9EC4587
:1013000022462B46911839645B417B64D7E9102350
:1013100021465118C7F8A012294643EB0101C7F82E
:10132000A4126FF000424FF00003D7E9A801FFF7C5
:10133000BBF902460B46D11CC7F8981043F10003D5
:10134000C7F89C30E14B1B681A46D7F89830134415
:101350001A46DE4B1A6005F0ABFF0346DA17C7F8F2
:101360009832C7F89C22D7F8E4330022C7F89032AD
:10137000C7F89422D7E9A6452B46D7E9A489424667
:1013800002FB03F24B46214601FB03F313442246C2
:101390004146A2FB0112C7F8AC230A46C7F8A823AE
:1013A000D7F8AC231344C7F8AC334FF000004FF02C
:1013B0000001D7E9EA452B469900234641EA93719B
:1013C000234698006FF000424FF00003FFF76CF9DE
:1013D00002460B466FF002004FF0FF31801AC7F84B
:1013E000900061EB0303C7F89430B84B5B681A4672
:1013F000D7F8903013441A46B44B5A6005F058FFA2
:101400000346DA17C7F88832C7F88C22D7F8E433D6
:101410000022C7F88032C7F88422D7E9A2452B46BC
:10142000D7E9A089424602FB03F24B46214601FB65
:1014300003F3134422464146A2FB0112C7F8A4233A
:101440000A46C7F8A023D7F8A4231344C7F8A43347
:10145000D7E9E84522462B464FF000004FF0000147
:10146000990041EA9271900002460B4621465118BC
:10147000C7F87812294643EB0101C7F87C126FF0D8
:1014800000424FF00003D7E99E01FFF70DF9024635
:101490000B46D11CC7F8881043F10003C7F88C3005
:1014A0008A4B9B681A46D7F8883013441A46874BF4
:1014B0009A6005F0FDFE0346DA17C7F87032C7F8E8
:1014C0007422D7F8E4330022C7F86832C7F86C22D8
:1014D000D7E99C452B46D7E99A89424602FB03F29D
:1014E0004B46214601FB03F3134422464146A2FB2F
:1014F0000112C7F89C230A46C7F89823D7F89C2303
:101500001344C7F89C33D7E9E64522462B46911889
:10151000B9635B41FB63D7E90E2321465118C7F835
:101520006012294643EB0101C7F864126FF00042D4
:101530004FF00003D7E99801FFF7B6F802460B46D3
:1015400012F16401C7F8801043F10003C7F884303A
:101550005F4B1B681A46D7F88030D31A1A465C4B8B
:101560001A6005F0A5FE0346DA17C7F85832C7F827
:101570005C22D7F8E4330022C7F85032C7F854226F
:10158000D7E996452B46D7E99489424602FB03F2F8
:101590004B46214601FB03F3134422464146A2FB7E
:1015A0000112C7F894230A46C7F89023D7F894236A
:1015B0001344C7F89433D7E9E44522462B464FF04D
:1015C00000004FF00001990041EA9271900002463C
:1015D0000B4621465118C7F84812294643EB010132
:1015E000C7F84C126FF000424FF00003D7E99201A8
:1015F000FFF75AF802460B4612F16401B96743F14E
:101600000003FB67324B5B681A46BB6F13441A46F4
:101610002F4B5A6005F04CFE0346DA17C7F84032EC
:10162000C7F84422D7F8E4330022C7F83832C7F8A5
:101630003C22D7E990452B46D7E98E89424602FBEA
:1016400003F24B46214601FB03F313442246414675
:10165000A2FB0112C7F88C230A46C7F88823D7F8E3
:101660008C231344C7F88C33D7E9E24522462B4636
:101670004FF000004FF00001D90041EA5271D00054
:1016800002460B462146511AC7F83012294663EB31
:101690000103C7F834326FF000424FF00003D7E97E
:1016A0008C01FFF701F802460B4612F1640139671D
:1016B00043F100037B67064B9B681A463B6FD31AC6
:1016C0001A46034B9A6000F037BC00BFF8000020B8
:1016D0000401002005F0ECFD0346DA17C7F82832B4
:1016E000C7F82C22D7F8E43300229A469346D7E96C
:1016F0008A010B460AFB03F2034603FB0BF3134478
:101700000246A2FB0A452B441D4622462B46911851
:1017100039635B417B63D7E90C231119C7F82012A9
:101720006B41C7F824326FF000424FF00003D7E955
:101730008801FEF7B9FF02460B466FF009004FF033
:10174000FF31801AC7F8280161EB0303C7F82C3179
:10175000EB4B1B681A46D7F8283113441A46E84B5E
:101760001A6005F0A5FD0346DA17C7F81832C7F866
:101770001C22D7F8E4330022C7F81032C7F814222D
:10178000D7E986452B46D7E98489424602FB03F216
:101790004B46214601FB03F3134422464146A2FB7C
:1017A0000112C7F884230A46C7F88023D7F8842398
:1017B0001344C7F88433D7E9E04522462B464FF05F
:1017C00000004FF00001990041EA9271900002463A
:1017D0000B4621465118C7F80812294643EB010170
:1017E000C7F80C126FF000424FF00003D7E98201F6
:1017F000FEF75AFF02460B4612F10A01C7F8201104
:1018000043F10003C7F82431BD4B5B681A46D7F893
:10181000203113441A46BA4B5A6005F049FD03467D
:10182000DA17C7F80032C7F80422D7F8E4330022E9
:10183000C7F8F831C7F8FC21D7E980452B46D7E92E
:101840007E89424602FB03F24B46214601FB03F32D
:10185000134422464146A2FB0112C7F87C230A46E4
:10186000C7F87823D7F87C231344C7F87C33D7E92B
:10187000DE4522462B464FF000004FF00001D90014
:1018800041EA5271D00002460B462146511AC7F870
:10189000F011294663EB0103C7F8F4316FF0004201
:1018A0004FF00003D7E97C01FEF7FEFE02460B462F
:1018B0006FF009004FF0FF31801AC7F8180161EB93
:1018C0000303C7F81C318E4B9B681A46D7F81831B2
:1018D00013441A468A4B9A6005F0EAFC0346DA176D
:1018E000C7F8E831C7F8EC21D7F8E4330022C7F88D
:1018F000E031C7F8E421D7E97A452B46D7E9788962
:10190000424602FB03F24B46214601FB03F313441C
:1019100022464146A2FB0112C7F874230A46C7F8C3
:101920007023D7F874231344C7F87433D7E9DC1253
:101930000B46DB18BB62134642EB0303FB62D7E99D
:101940000A016FF000424FF00003FEF7ADFE0246C1
:101950000B466FF063004FF0FF31801AC7F810019B
:1019600061EB0303C7F81431664B1B681A46D7F8BE
:10197000103113441A46634B1A6005F099FC034674
:10198000DA17C7F8D831C7F8DC21D7F8E4330022DA
:10199000C7F8D031C7F8D421D7E976452B46D7E927
:1019A0007489424602FB03F24B46214601FB03F3D6
:1019B000134422464146A2FB0112C7F86C230A4693
:1019C000C7F86823D7F86C231344C7F86C334FF07B
:1019D00000004FF00001D7E9DA452B469900234675
:1019E00041EA9371234698006FF000424FF00003E4
:1019F000FEF75AFE02460B4612F16401C7F80811C1
:101A000043F10003C7F80C313E4B5B681A46D7F828
:101A1000083113441A463B4B5A6005F049FC034613
:101A2000DA17C7F8C831C7F8CC21D7F8E433002259
:101A3000C7F8C031C7F8C421D7E972452B46D7E9AA
:101A40007089424602FB03F24B46214601FB03F339
:101A5000134422464146A2FB0112C7F864230A46FA
:101A6000C7F86023D7F864231344C7F86433D7E971
:101A7000D84522462B46911839625B417B62D7E9F3
:101A8000082321465118B961294643EB0101F96148
:101A9000D7E906120B46DB183B61134642EB030302
:101AA0007B61D7E90434184621466FF000424FF0BD
:101AB0000003FEF7F9FD02460B466FF063004FF09E
:101AC000FF31801AC7F8000161EB0303C7F8043146
:101AD0000C4B9B681A46D7F8003113441A46094B41
:101AE0009A6005F0E5FB0346DA17C7F8B831C7F886
:101AF000BC21D7F8E4330022C7F8B03104E000BFBE
:101B0000E0000020EC000020C7F8B421D7E96E45C2
:101B10002B46D7E96C89424602FB03F24B4621462D
:101B200001FB03F3134422464146A2FB0112C7F80E
:101B30005C230A46C7F85823D7F85C231344C7F838
:101B40005C33D7E9D64522462B464FF000004FF0D4
:101B50000001D90041EA5271D00002460B462146ED
:101B6000511AC7F8A811294663EB0103C7F8AC3135
:101B70006FF000424FF00003D7E96A01FEF794FDD1
:101B800002460B466FF002004FF0FF31801AC7F893
:101B9000F80061EB0303C7F8FC30EA4B1B681A46F8
:101BA000D7F8F83013441A46E64B1A6005F080FB6C
:101BB0000346DA17C7F8A031C7F8A421D7F8E433F1
:101BC0000022C7F89831C7F89C21D7E968452B4611
:101BD000D7E96689424602FB03F24B46214601FBE8
:101BE00003F3134422464146A2FB0112C7F85423D3
:101BF0000A46C7F85023D7F854231344C7F8543380
:101C0000D7E9D44522462B464FF000004FF00001A3
:101C1000D90041EA5271D00002460B4621465118C4
:101C2000C7F89011294643EB0101C7F894116FF0F2
:101C300000424FF00003D7E96401FEF735FD02468C
:101C40000B46D11CC7F8F01043F10003C7F8F4307D
:101C5000BC4B5B681A46D7F8F03013441A46B94BB0
:101C60005A6005F025FB0346DA17C7F88831C7F834
:101C70008C21D7F8E4330022C7F88031C7F88421DB
:101C8000D7E962452B46D7E96089424602FB03F259
:101C90004B46214601FB03F3134422464146A2FB77
:101CA0000112C7F84C230A46C7F84823D7F84C233B
:101CB0001344C7F84C33D7E9D24522462B46911836
:101CC000B9605B41FB60D7E9022321465118C7F890
:101CD0007811294643EB0101C7F87C116FF00042EF
:101CE0004FF00003D7E95E01FEF7DEFC02460B462B
:101CF0006FF002004FF0FF31801AC7F8E80061EB87
:101D00000303C7F8EC308F4B9B681A46D7F8E830CE
:101D100013441A468B4B9A6005F0CAFA0346DA1749
:101D2000C7F87031C7F87421D7F8E4330022C7F838
:101D30006831C7F86C21D7E95C452B46D7E95A8949
:101D4000424602FB03F24B46214601FB03F31344D8
:101D500022464146A2FB0112C7F844230A46C7F8AF
:101D60004023D7F844231344C7F84433D7E9D04578
:101D700022462B464FF000004FF00001D90041EA07
:101D80005271D00002460B462146511AC7F8601125
:101D9000294663EB0103C7F864316FF000424FF04E
:101DA0000003D7E95801FEF77FFC02460B4612F10B
:101DB000C801C7F8E01043F10003C7F8E430624BF4
:101DC0001B681A46D7F8E03013441A465E4B1A6077
:101DD00005F06EFA0346DA17C7F85831C7F85C21E8
:101DE000D7F8E4330022C7F85031C7F85421D7E9B7
:101DF00056452B46D7E95489424602FB03F24B462F
:101E0000214601FB03F3134422464146A2FB011283
:101E1000C7F83C230A46C7F83823D7F83C231344B5
:101E2000C7F83C33D7E9CE4522462B469118396096
:101E30005B417B60D7E9002321465118C7F8481160
:101E4000294643EB0101C7F84C116FF000424FF0F7
:101E50000003D7E95201FEF727FC02460B4612F1B8
:101E60009601C7F8D81043F10003C7F8DC30364BB1
:101E70005B681A46D7F8D830D31A1A46324B5A60E4
:101E800005F016FA0346DA17C7F84031C7F84421BF
:101E9000D7F8E4330022C7F83831C7F83C21D7E936
:101EA00050452B46D7E94E89424602FB03F24B468A
:101EB000214601FB03F3134422464146A2FB0112D3
:101EC000C7F834230A46C7F83023D7F8342313441D
:101ED000C7F83433D7E9CC4522462B464FF00000F3
:101EE0004FF00001990041EA9271900002460B46C2
:101EF00021465118C7F83011294643EB0101C7F8B4
:101F000034116FF000424FF00003D7E94C01FEF7A7
:101F1000CBFB02460B4612F10A01C7F8D01043F181
:101F20000003C7F8D430084B9B681A46D7F8D03066
:101F300013441A46044B9A6000BF07F57A77BD46F2
:101F4000BDE8B08FF80000200401002080B400AF8D
:101F50006E4B1A686E4B83FB0213D911D317CB1A41
:101F60004FF4FA6101FB03F3D31A002B03D1674B43
:101F70001B685B4200E00A23644A1360634B5A68A3
:101F8000634B83FB0213D911D317CB1A4FF4FA61B9
:101F900001FB03F3D31A002B03D15C4B5B685B425C
:101FA00001E06FF00903594A5360584B9A68584B47
:101FB00083FB0213D911D317CB1A4FF4FA6101FB3B
:101FC00003F3D31A002B03D1504B9B685B4200E014
:101FD0000A234E4A93604F4B1A684D4B83FB021302
:101FE000D911D317CB1A4FF4FA6101FB03F3D31ABB
:101FF000002B03D1474B1B685B4200E06423454A3A
:102000001360444B5A68424B83FB0213D911D31718
:10201000CB1A4FF4FA6101FB03F3D31A002B03D15F
:102020003C4B5B685B4201E06FF06303394A5360ED
:10203000384B9A68364B83FB0213D911D317CB1A4E
:102040004FF4FA6101FB03F3D31A002B03D1314B98
:102050009B685B4200E064232E4A93602D4B1A6814
:102060002B4B83FB0213D911D317CB1A4FF4FA6110
:1020700001FB03F3D31A002B03D1274B1B685B42F0
:1020800000E00323244A1360224B5A68204B83FB51
:102090000213D911D317CB1A4FF4FA6101FB03F3E2
:1020A000D31A002B03D11C4B5B685B4201E06FF03D
:1020B0000203194A5360174B9A68154B83FB0213AE
:1020C000D911D317CB1A4FF4FA6101FB03F3D31ADA
:1020D000002B03D1104B9B685B4200E003230E4AA8
:1020E00093600E4B1B685B420C4A13600B4B5B68A2
:1020F0005B420A4A5360094B9B685B42074A936004
:1021000000BFBD465DF8047B704700BFE0000020C3
:10211000D34D6210EC000020F800002004010020E4
:1021200080B483B000AF0346FB71044B01221A70E8
:1021300000BF0C37BD465DF8047B7047A600002049
:1021400090B58DB006AF1B233B71C5237B71D523A2
:10215000BB71A523FB7102233B7200237B72B42366
:10216000BB729A23FB72E1233B7311237B73012320
:10217000BB730023FB7300233B7400237B74002399
:10218000BB740023FB74524B1C463B1D0FCB84E8F1
:102190000F00504B0093102301224D49022004F000
:1021A0002CF90346FB75FB7D002B01D047238AE009
:1021B0001B233B71C5237B71D523BB71A523FB7109
:1021C00002233B7200237B723623BB72AC23FB726B
:1021D000E1233B7311237B730123BB730023FB7348
:1021E00000233B7400237B740023BB740023FB7427
:1021F000BB7C43F00403DBB2BB74BB7C43F0100335
:10220000DBB2BB74344B1C463B1D0FCB84E80F0084
:10221000304B1888314B059300230493102303930C
:1022200004230293002301931223009308232A4AD4
:10223000022104F06BF90346FB75FB7D002B01D0F6
:10224000472340E01B233B71C5237B71D523BB7122
:10225000A523FB7102233B7200237B723623BB72E2
:10226000AC23FB72E1233B7311237B730123BB730C
:102270000023FB7300233B7400237B74E023BB74B7
:102280000023FB74144B1C463B1D0FCB84E80F004E
:10229000104B1888124B05930023049310230393CB
:1022A00004230293002301931023009314230A4A6A
:1022B000022104F02BF90346FB75FB7D002B01D0B6
:1022C000472300E0002318461C37BD4690BD00BFE1
:1022D000B8000020AC000020C8000020AE000020A4
:1022E000B000002090B58DB006AF01237B611B23A9
:1022F0003B70C5237B70D523BB70A523FB700223E5
:102300003B7100237B71B423BB719A23FB71E123E2
:102310003B7211237B720223BB720023FB720023EA
:102320003B7300237B730023BB730023FB73314B90
:102330001C463B460FCB84E80F007B69DBB21A4694
:1023400052001344DBB20133DBB22B4A009201226C
:102350002849022004F051F80346FB74FB7C002B53
:102360003FD11B233B70C5237B70D523BB70A523B6
:10237000FB7002233B7100237B713623BB71AC23BE
:10238000FB71E1233B7211237B720123BB7200239B
:10239000FB7200233B7301237B730023BB73002379
:1023A000FB73164B1C463B460FCB84E80F00124BC9
:1023B0001888134B059300230493102303930423DD
:1023C0000293002301931023009308230B4A022158
:1023D00004F09CF80346FB74FB7C002B03D1002324
:1023E00003E000BF00E000BF472318461C37BD468E
:1023F00090BD00BFB8000020B2000020C80000203F
:10240000B400002080B58CB002AFF860B9607A608B
:1024100001F0E4FA0346DB08DBB23B7401F0DEFABC
:102420000346DB0ADBB27B74FB685B68DBB25B42B2
:10243000DBB2BB74FB685B685B421B12DBB2FB74F4
:10244000FB681B68DBB23B75FB681B681B12DBB2C9
:102450007B75FB689B68DBB25B42DBB2BB75FB68DC
:102460009B685B421B12DBB2FB75BB685B68DBB22F
:102470003B76BB685B681B12DBB27B76BB681B6874
:10248000DBB2BB76BB681B681B12DBB2FB76BB689A
:102490009B68DBB23B77BB689B681B12DBB27B7728
:1024A0007B685B68DBB2BB777B685B681B12DBB267
:1024B000FB777B681B68DBB287F820307B681B6882
:1024C0001B12DBB287F821307B689B68DBB287F890
:1024D00022307B689B681B12DBB287F823300F4BDE
:1024E00018880F4B198807F110030093142300225A
:1024F00004F0D7F8034687F8273097F82730002BE9
:1025000007D097F827301946064804F0D1FF472333
:1025100000E0002318462837BD4680BDAC000020EF
:10252000B00000208C85000880B588B002AF7860CC
:1025300001F054FA0346DB08DBB23B7301F04EFABC
:102540000346DB0ADBB27B737B681B68DBB2BB73C1
:102550007B681B681B12DBB2FB737B685B68DBB2BA
:102560003B747B685B681B12DBB27B747B689B6887
:10257000DBB2BB747B689B681B12DBB2FB740E4B37
:1025800018880E4B198807F10C03009308230022CA
:1025900004F087F80346FB75FB7D002B06D0FB7D1E
:1025A0001946074804F084FF472300E0002318463B
:1025B0001837BD4680BD00BFB2000020B400002027
:1025C000C88500082DE9B04F8EB000AF0346FB84EC
:1025D000FA8C5C4B1B8801339A4205D15A4A5B49FD
:1025E0005B48FFF70FFF91E0FA8C5A4B1B880133D1
:1025F0009A4240F08B8004F05BFE0346DA17BB6121
:10260000FA61D7E906234FF000004FF0000199006E
:1026100041EA9271900002460B46B969511839613E
:10262000F96943EB010179616FF000424FF000035B
:10263000D7E90401FEF738F802460B461046194662
:10264000FDF7ACFF4FF00002434BFDF727FE0246BB
:102650000B4610461946FDF7D7FF03467B6304F08F
:1026600027FE0346DA179846914642464B46911894
:1026700039605B417B60D7E9002312EB080443EB30
:1026800009054FF000024FF000036B0143EAD463E9
:10269000620114EB020A45EB030B1AEB0803BB6063
:1026A0004BEB0903FB606FF000424FF00003D7E9EA
:1026B0000201FDF7F9FF02460B4610461946FDF7E9
:1026C0006DFF4FF00002254BFDF7E8FD02460B467B
:1026D00010461946FDF798FF03463B63D7ED0C7A89
:1026E0009FED1F7A67EE877AFDEEE76AD7ED0D7AE8
:1026F000B2EE047A67EE877AFDEEE77A17EE903A4B
:102700001BB2194616EE900A00F030F8154B1B88E4
:10271000002B11D0134B1B88184604F052F80346C7
:1027200087F82F3097F82F30002B05D097F82F30EF
:1027300019460D4804F0BCFE00BF3837BD46BDE861
:10274000B08F00BFB0000020F8000020EC00002097
:10275000E0000020AE00002000003B4000408F4021
:102760000000C842D80000200486000880B588B068
:1027700002AF78600B467B8001F030F90346DB083E
:10278000DBB23B7301F02AF90346DB0ADBB27B7351
:102790007B68DBB2BB737B681B12DBB2FB737B68AD
:1027A0001B14DBB23B747B681B16DBB27B747B882B
:1027B000DBB2BB74B7F902301B121BB2DBB2FB7485
:1027C0000D4B18880D4B198807F10C030093082353
:1027D000002203F066FF0346FB75FB7D002B06D04D
:1027E000FB7D1946064804F063FE472300E0002302
:1027F00018461837BD4680BDAC000020AE00002052
:102800002C86000880B592B008AF3F4A07F11C0340
:1028100092E8030083E8030002233B700A237B70E5
:102820000023BB700823FB7009233B7142237B719B
:102830006C23BB717523FB7165233B724E237B7246
:102840005223BB724723FB720D233B73FF237B7321
:102850000123BB738023FB7300233B74F4237B743D
:102860000023BB740023FB74284B5B793B75274B1B
:102870001B797B75254BDB78BB75244B9B78FB75EF
:10288000224B5B783B76214B1B787B76BB7C43F0FD
:102890000103DBB2BB740021002004F0F3F81C48F4
:1028A00004F076FE0023069300230593002304938F
:1028B0000023039307F11C030293082301930023D1
:1028C000009301234FF4F0624FF4C861002003F03D
:1028D000DFFB034687F827303B4619461A2003F0F2
:1028E00018FD97F82730002B06D097F827301946A7
:1028F000084804F0DDFD02E0074804F049FE00BF8F
:102900002837BD4680BD00BFD4860008A000002047
:102910006086000880860008AC86000880B588B014
:1029200000AF78607B68FB61FB690133BB61FB69C9
:102930001B78042B39D1BB691B78FF2B1FD0FF2BD1
:1029400038DC052B02D03E2B03D033E000F036F804
:1029500030E0BB690233FB60FB681B78012B26D19A
:10296000FB680133BB60BB685A1DBB68B3F801301C
:102970009BB21946104600F039F800BF17E0BB695A
:1029800002337B617B691B889BB21A4640F6144375
:102990009A420ED17B6902333B613B695B889BB2F3
:1029A0001846FFF70FFE00BF03E000BF02E000BFC4
:1029B00000E000BF2037BD4680BD000080B500AFFD
:1029C000064B00221A60064804F0E2FD054B012286
:1029D0001A70054B00221A7000BF80BDDC00002079
:1029E000DC86000801000020DA00002080B584B0F9
:1029F00000AF78600B467B80114B01221A60114AB0
:102A00007B881380104804F053FD0523FB600AE027
:102A10007A68FB6813441B7819460C4804F048FD9B
:102A2000FB68013BFB60FB68002BF1D17B681B78E6
:102A30001946074804F03CFD00BF1037BD4680BD75
:102A4000DC000020D8000020EC8600080487000885
:102A50000C87000880B588B000AF78600023BB60A9
:102A60001E4B1B6B1D4A43F0010313631B4B1B6B77
:102A700003F00103BB60BB680123FB604FF48813C4
:102A80003B6100237B6107F10C031946144801F0F8
:102A900039F94FF48073FB6001233B6100237B61B4
:102AA0000023BB6107F10C0319460D4801F02AF918
:102AB0000223FB6001233B6100237B610023BB6198
:102AC00007F10C031946064801F01CF900F032FB2F
:102AD000034618462037BD4680BD00BF003802407F
:102AE0000000024080B500AF0121074801F08EFAD6
:102AF0000221054801F08AFA4FF48071024801F082
:102B000085FA0023184680BD0000024080B500AF62
:102B1000012202210B4801F075FB00224FF4807165
:102B2000084801F06FFB052000F064FF01224FF41C
:102B30008071044801F066FB052000F05BFF002374
:102B4000184680BD0000024080B588B000AF7860B4
:102B50000B467B8000237B77FF23FB750B233B61B8
:102B600000233B75002202212E4801F04BFB07F1A8
:102B7000080107F110030522184600F00BFB3B7A11
:102B8000022B2AD13B7B1BB21B021AB2FB7A1BB26F
:102B900013431BB2FB83FB8B002B1ED0FA8B7B886D
:102BA0009A4201D97B88FB8300237B7710E007F1F1
:102BB000160107F117030122184600F0EBFA7B7F9C
:102BC0007A681344BA7DD2B21A707B7F01337B7767
:102BD0007B7F9BB2FA8B9A42E9D8012202211148ED
:102BE00001F010FB7B7F002B16D0FDF7F3FE0023D6
:102BF000BB610AE0BB697A6813441B7819460A482E
:102C000004F056FCBB690133BB617B7FBA699A4211
:102C1000F0DB0A2004F05EFC7B7F18462037BD46BF
:102C200080BD00BF000002401487000880B588B056
:102C300000AF78600B467B800A233B6100233B7525
:102C400000F0CCFEB8610023FB61002202211C4889
:102C500001F0D8FA07F1080107F110030522184620
:102C600000F098FA3B7A022B0FD17B7A1A467B88C8
:102C7000934206D87B881A461249786800F08AFA8F
:102C800006E06FF00103FB6102E04FF0FF33FB61F0
:102C9000012202210A4801F0B5FA00F09FFE024627
:102CA000BB69D31A0F2B03D96FF00203FB6102E05B
:102CB000FB69002BC7DBFB6918462037BD4680BD8A
:102CC000000002401801002080B500AF0121054836
:102CD00001F080FA0346012B0CBF01230023DBB275
:102CE000184680BD0000024080B588B000AF134B8D
:102CF0007B60134BBB60134B7B61134B3B61134BEE
:102D0000FB60134BFB613B1D184603F0DBFF4FF0EC
:102D1000C061104800F0BDFF0F4A00210D4800F0CF
:102D20009EFF00220021062000F063FF062000F035
:102D30007CFF00BF2037BD4680BD00BF552A00087C
:102D4000E52A00082D2C0008492B00080D2B00084F
:102D5000D5310008100100205D2D000880B500AFBE
:102D600005E0002004F012F90346002B05D1FFF71F
:102D7000ABFF0346002BF4D100E000BF80BD80B55F
:102D800000AF00F0C5FD00F009F800F0C1F800F058
:102D90006FF8FDF773FEFDF769FFFCE780B594B0AF
:102DA00000AF07F1200330220021184604F0D0FCC8
:102DB00007F10C0300221A605A609A60DA601A6107
:102DC0000023BB60284B1B6C274A43F080531364DD
:102DD000254B1B6C03F08053BB60BB6800237B60FA
:102DE000224B1B68214A43F4404313601F4B1B686E
:102DF00003F440437B607B6802233B620123FB6258
:102E000010233B630223BB630023FB6310233B645B
:102E10004FF4A8737B640423BB640423FB6407F1B1
:102E20002003184601F022FA0346002B01D000F0DF
:102E3000EDF80F23FB6002233B6100237B614FF41D
:102E40008053BB610023FB6107F10C03022118468C
:102E500001F084FC0346002B01D000F0D7F800BF3E
:102E60005037BD4680BD00BF0038024000700040B2
:102E700080B586B000AF07F1080300221A605A60DF
:102E80009A60DA603B4600221A605A601E4B1F4A65
:102E90001A601D4B00225A601B4B00229A601A4B8D
:102EA0004FF6FF72DA60184B00221A61164B0022AF
:102EB0005A61154B00229A61134802F095F90346B6
:102EC000002B01D000F0A2F84FF48053BB6007F153
:102ED000080319460C4802F0D6F90346002B01D02E
:102EE00000F094F800233B6000237B603B461946CA
:102EF000054802F0AFFB0346002B01D000F086F836
:102F000000BF1837BD4680BD1802002000000140F8
:102F100080B58AB000AF07F1140300221A605A602E
:102F20009A60DA601A6100233B61364B1B6B354AAD
:102F300043F004031363334B1B6B03F004033B6147
:102F40003B690023FB602F4B1B6B2E4A43F0800331
:102F500013632C4B1B6B03F08003FB60FB680023A7
:102F6000BB60284B1B6B274A43F001031363254BBF
:102F70001B6B03F00103BB60BB6800237B60214B2C
:102F80001B6B204A43F0020313631E4B1B6B03F0C1
:102F900002037B607B6800224FF481711A4801F0C4
:102FA00031F901237B614FF48813BB610023FB617E
:102FB00007F114031946144800F0A4FE4FF481737E
:102FC0007B610123BB610023FB6100233B6207F1AE
:102FD000140319460C4800F095FE0022002106203B
:102FE00000F007FE062000F020FE0022002128202D
:102FF00000F0FFFD282000F018FE00BF2837BD4676
:1030000080BD00BF003802400000024080B400AF25
:1030100072B600BF00BFFDE780B582B000AF0023ED
:103020007B60104B5B6C0F4A43F4804353640D4B41
:103030005B6C03F480437B607B6800233B60094B3F
:103040001B6C084A43F080531364064B1B6C03F05F
:1030500080533B603B68072000F0C0FD00BF08378D
:10306000BD4680BD0038024080B485B000AF7860B6
:103070007B681B680B4A93420DD10023FB600A4B0F
:103080005B6C094A43F001035364074B5B6C03F02C
:103090000103FB60FB6800BF1437BD465DF8047B8D
:1030A000704700BF000001400038024080B400AF0C
:1030B00000BFFDE780B400AF00BFFDE780B400AF04
:1030C00000BFFDE780B400AF00BFFDE780B400AFF4
:1030D00000BFFDE780B400AF00BFBD465DF8047BD4
:1030E000704780B400AF00BFBD465DF8047B7047F9
:1030F00080B400AF00BFBD465DF8047B704780B56B
:1031000000AF00F057FC00BF80BD000080B500AFED
:10311000024800F0D3FD00BF80BD00BF10010020B9
:1031200080B500AF024800F0C9FD00BF80BD00BF00
:103130001000002080B582B000AF00237B60124BEE
:10314000124A1A60124B1B685A1C11490A60002B64
:1031500014D10D4801F05EFF0346002B0ED10A4842
:1031600000F07CF87B68002B08D1074800F03AF8A3
:103170000346002B02D06FF007037B607B68184684
:103180000837BD4680BD00BF60020020003001400E
:10319000B802002080B588B002AFF860B96013466D
:1031A000FB8000237B61FB884FF480520092BA6859
:1031B000F968074801F085FD0346002B02D06FF047
:1031C00005037B617B6918461837BD4680BD00BF8B
:1031D0006002002080B500AF00F000FC03461846F6
:1031E00080BD000080B584B000AF78600023FB7321
:1031F0007B68194A1A607B684FF482725A607B6858
:1032000000229A607B680022DA607B6800221A61E3
:103210007B6800225A617B684FF400729A617B6878
:103220001822DA617B6800221A627B6800225A62E7
:103230007B6800229A627B680A22DA62786801F071
:10324000ADFC0346002B01D00123FB73FB7B18462A
:103250001037BD4680BD00BF0030014080B58AB048
:1032600000AF786000233B612D4B5B6C2C4A43F42C
:10327000805353642A4B5B6C03F480533B613B697E
:103280000023FB60264B1B6B254A43F001031363AD
:10329000234B1B6B03F00103FB60FB680023BB6047
:1032A0001F4B1B6B1E4A43F0020313631C4B1B6B2B
:1032B00003F00203BB60BB6840237B610223BB6158
:1032C0000023FB6103233B6205237B6207F11403A8
:1032D0001946144800F016FD80237B610223BB6170
:1032E0000023FB6103233B6205237B6207F1140388
:1032F00019460C4800F006FD08237B610223BB61E0
:103300000023FB6103233B6205237B6207F1140367
:103310001946054800F0F6FC00BF2837BD4680BDC1
:1033200000380240000002400004024080B400AFB8
:1033300001231846BD465DF8047B704780B582B016
:1033400000AF7860396004F051FA034616221A6023
:103350004FF0FF3318460837BD4680BD80B582B0B8
:1033600000AF78604FF0FF317868FFF7E7FF00BFEC
:10337000FDE780B586B000AFF860B9607A600023E1
:103380007B610AE0AFF300800146BB685A1CBA605B
:10339000CAB21A707B6901337B617A697B689A4291
:1033A000F0DB7B6818461837BD4680BD80B586B017
:1033B00000AFF860B9607A6000237B6109E0BB6808
:1033C0005A1CBA601B78184600F03EFA7B6901333C
:1033D0007B617A697B689A42F1DB7B681846183713
:1033E000BD4680BD80B483B000AF78604FF0FF333E
:1033F00018460C37BD465DF8047B704780B483B037
:1034000000AF786039603B684FF400525A60002387
:1034100018460C37BD465DF8047B704780B483B016
:1034200000AF7860012318460C37BD465DF8047B79
:10343000704780B485B000AFF860B9607A6000234F
:1034400018461437BD465DF8047B704780B586B0DA
:1034500000AF7860144A154BD31A7B617B693B61DE
:10346000134B1B68002B02D1114B124A1A60104BF0
:103470001A687B6813443A699A4207D204F0B6F995
:1034800003460C221A604FF0FF3309E0084B1B681B
:10349000FB60074B1A687B681344054A1360FB689E
:1034A00018461837BD4680BD000002200004000009
:1034B000BC0200204807002080B400AF064BD3F8C0
:1034C0008830054A43F47003C2F8883000BFBD4617
:1034D0005DF8047B704700BF00ED00E0DFF834D0FA
:1034E000FFF7EAFF0C480D490D4A002302E0D458CB
:1034F000C4500433C4188C42F9D30A4A0A4C00233E
:1035000001E013600432A242FBD304F075F9FFF727
:1035100036FC7047000002200000002080000020E0
:10352000388800088000002048070020FEE70000DF
:1035300080B582B000AF0346FB71FB79044A52F8B4
:1035400023309847002318460837BD4680BD00BF8A
:103550003487000880B582B000AF0346FB71FB7969
:10356000064A52F8233020221146184600F063FE26
:10357000002318460837BD4680BD00BF0800002064
:1035800080B588B000AF0023BB601C4B1B6B1B4A8F
:1035900043F001031363194B1B6B03F00103BB6082
:1035A000BB6807F10C0300221A605A609A60DA6067
:1035B0001A6100237B60114B1B6B104A43F001031F
:1035C00013630E4B1B6B03F001037B607B680022CF
:1035D00020210B4800F016FE2023FB6001233B61F5
:1035E00000237B610023BB6107F10C0319460448EB
:1035F00000F088FB00BF2037BD4680BD0038024088
:103600000000024080B584B000AF03460A46FB715B
:103610001346BB710023FB60FB791F4A52F823302D
:103620009847BB79012B32D1FB79DB001B4A1A4446
:10363000FB791B4951F823301946104600F029FB4D
:103640000346002B03D06FF00303FB601FE0FB7900
:10365000DB00124A9818FB79124A52F823301A46B6
:10366000002100F0FCFA0346002B03D06FF00303A7
:10367000FB600CE02820FB790B4A52F82330002233
:10368000194600F0B6FA2823184600F0CEFAFB6877
:1036900018461037BD4680BD38870008100000204E
:1036A0003C870008408700084487000880B582B046
:1036B00000AF0346FB71FB79094A52F823304FF4FF
:1036C00000521146184600F085FD0346002B0CBF42
:1036D00001230023DBB218460837BD4680BD00BF7A
:1036E0000C00002080B500AF0020FEF719FD00BFE0
:1036F00080BD000080B588B000AF0023BB601A4BCE
:103700001B6B194A43F004031363174B1B6B03F045
:103710000403BB60BB6807F10C0300221A605A6007
:103720009A60DA601A6100237B600F4B1B6B0E4AB4
:1037300043F0040313630C4B1B6B03F004037B6027
:103740007B684FF40053FB604FF404133B6100238C
:103750007B6107F10C031946044800F0D3FA00BF5F
:103760002037BD4680BD00BF00380240000802403F
:1037700080B584B000AF0346FB710023FB60FB798A
:10378000012B03D96FF00103FB6025E0FB79FA7987
:10379000144951F8231014481346DB001344DB008E
:1037A00003441960FA791346DB001344DB000E4A28
:1037B0001344184600F064F8FA791346DB0013440A
:1037C000DB00094A1344184600F010F80346002BAA
:1037D00002D06FF00303FB60FB6818461037BD464C
:1037E00080BD00BF18000020C002002080B584B05A
:1037F00000AF78600023FB737B68124A1A607B6815
:103800004FF4E1325A607B6800229A607B680022A4
:10381000DA607B6800221A617B680C225A617B683F
:1038200000229A617B680022DA61786801F080FFEB
:103830000346002B01D00123FB73FB7B1846103796
:10384000BD4680BD0044004080B582B000AF7860C6
:10385000094B1B781A461346DB001344DB00074A6A
:103860009818391D4FF47A73012201F0BBFF7B6871
:1038700018460837BD4680BD08030020C00200205E
:1038800080B58AB000AF786000233B611E4B1B6C93
:103890001D4A43F4003313641B4B1B6C03F40033C9
:1038A0003B613B690023FB60174B1B6B164A43F0DF
:1038B00001031363144B1B6B03F00103FB60FB68F4
:1038C00004237B610223BB610023FB6103233B6272
:1038D00007237B6207F1140319460C4800F012FA23
:1038E00008237B610223BB610023FB6103233B624E
:1038F00007237B6207F114031946044800F002FA1B
:1039000000BF2837BD4680BD00380240000002409D
:1039100080B500AF0E4B1B680D4A43F40073136073
:103920000B4B1B680A4A43F480631360084B1B6807
:10393000074A43F480731360032000F04FF900201E
:1039400000F008F8FFF768FB0023184680BD00BFB1
:10395000003C024080B582B000AF7860124B1A681C
:10396000124B1B7819464FF47A73B3FBF1F3B2FB99
:10397000F3F3184600F067F90346002B01D001234A
:103980000EE07B680F2B0AD8002279684FF0FF30D9
:1039900000F02FF9064A7B681360002300E0012342
:1039A00018460837BD4680BD0400002020000020D6
:1039B0001C00002080B400AF064B1B781A46064B53
:1039C0001B681344044A136000BFBD465DF8047BC6
:1039D000704700BF200000200C03002080B400AF1F
:1039E000034B1B681846BD465DF8047B704700BF5B
:1039F0000C03002080B584B000AF7860FFF7EEFFC5
:103A0000B8607B68FB60FB68B3F1FF3F05D00A4BF1
:103A10001B781A46FB681344FB6000BFFFF7DEFF0C
:103A20000246BB68D31AFA689A42F7D800BF00BFB3
:103A30001037BD4680BD00BF2000002080B485B097
:103A400000AF78607B6803F00703FB600C4BDB681A
:103A5000BB60BA684FF6FF031340BB60FB681A02F5
:103A6000BB68134343F0BF6343F40033BB60044AB5
:103A7000BB68D36000BF1437BD465DF8047B704758
:103A800000ED00E080B400AF044BDB681B0A03F0DC
:103A900007031846BD465DF8047B704700ED00E063
:103AA00080B483B000AF0346FB7197F90730002B59
:103AB0000BDBFB7903F01F02074997F907305B091D
:103AC000012000FA02F241F8232000BF0C37BD4666
:103AD0005DF8047B704700BF00E100E080B483B074
:103AE00000AF03463960FB7197F90730002B0ADB02
:103AF0003B68DAB20C4997F907301201D2B20B4495
:103B000083F800230AE03B68DAB20849FB7903F046
:103B10000F03043B1201D2B20B441A7600BF0C37DC
:103B2000BD465DF8047B704700E100E000ED00E079
:103B300080B489B000AFF860B9607A60FB6803F0C8
:103B40000703FB61FB69C3F10703042B28BF0423B0
:103B5000BB61FB690433062B02D9FB69033B00E020
:103B600000237B614FF0FF32BB6902FA03F3DA43B3
:103B7000BB681A407B699A404FF0FF317B6901FABC
:103B800003F3D9437B680B40134318462437BD46E3
:103B90005DF8047B7047000080B582B000AF7860AC
:103BA0007B68013BB3F1807F01D301230FE00A4A18
:103BB0007B68013B53600F214FF0FF30FFF78EFF12
:103BC000054B00229A60044B07221A600023184616
:103BD0000837BD4680BD00BF10E000E080B582B070
:103BE00000AF78607868FFF729FF00BF0837BD464F
:103BF00080BD80B586B000AF0346B9607A60FB73C4
:103C000000237B61FFF73EFF78617A68B9687869C5
:103C1000FFF78EFF024697F90F3011461846FFF75F
:103C20005DFF00BF1837BD4680BD80B582B000AFD4
:103C30000346FB7197F907301846FFF731FF00BFC5
:103C40000837BD4680BD80B582B000AF7860786827
:103C5000FFF7A2FF034618460837BD4680BD80B473
:103C600087B000AFF8600B467A60FB720023FB75EB
:103C7000FB7A002B03D1FB687A685A6002E00123CB
:103C8000FB7500BFFB7D18461C37BD465DF8047B05
:103C9000704780B483B000AF786039607B68002BD8
:103CA00001D1012303E07B683A681A6000231846BB
:103CB0000C37BD465DF8047B7047000080B584B0CA
:103CC00000AF78607B681B6803F01F03012202FAD3
:103CD00003F3FB600A4B5B69FA681340BB60BB6887
:103CE000002B09D0064AFB6853617B685B68002B98
:103CF00002D07B685B68984700BF1037BD4680BD27
:103D0000003C014080B489B000AF78603960002386
:103D10007B6100233B610023BB610023FB6159E110
:103D20000122FB6902FA03F37B613B681B687A6935
:103D300013403B613A697B699A4240F048813B6895
:103D40005B6803F00303012B05D03B685B6803F05D
:103D50000303022B30D17B689B68BB61FB695B006E
:103D6000032202FA03F3DB43BA691340BB613B68E9
:103D7000DA68FB695B0002FA03F3BA691343BB61BB
:103D80007B68BA699A607B685B68BB610122FB69EA
:103D900002FA03F3DB43BA691340BB613B685B681B
:103DA0001B0903F00102FB6902FA03F3BA6913432A
:103DB000BB617B68BA695A603B685B6803F00303C8
:103DC000032B17D07B68DB68BB61FB695B000322B8
:103DD00002FA03F3DB43BA691340BB613B689A689C
:103DE000FB695B0002FA03F3BA691343BB617B68AA
:103DF000BA69DA603B685B6803F00303022B23D1E6
:103E0000FB69DA087B68083253F82230BB61FB6932
:103E100003F007039B000F2202FA03F3DB43BA69A6
:103E20001340BB613B681A69FB6903F007039B0001
:103E300002FA03F3BA691343BB61FB69DA087B68D2
:103E40000832B96943F822107B681B68BB61FB69C3
:103E50005B00032202FA03F3DB43BA691340BB6140
:103E60003B685B6803F00302FB695B0002FA03F343
:103E7000BA691343BB617B68BA691A603B685B68C7
:103E800003F44033002B00F0A2800023FB60574B6B
:103E90005B6C564A43F480435364544B5B6C03F4AD
:103EA0008043FB60FB68524AFB699B08023352F86F
:103EB0002330BB61FB6903F003039B000F2202FA6E
:103EC00003F3DB43BA691340BB617B68494A934201
:103ED00019D07B68484A934213D07B68474A934283
:103EE0000DD07B68464A934207D07B68454A93428F
:103EF00001D1042308E0072306E0032304E00223A2
:103F000002E0012300E00023FA6902F003029200BC
:103F10009340BA691343BB613549FB699B0802337F
:103F2000BA6941F82320384B9B68BB613B69DB438E
:103F3000BA691340BB613B685B6803F48013002BD4
:103F400003D0BA693B691343BB612F4ABB699360D5
:103F50002D4BDB68BB613B69DB43BA691340BB6136
:103F60003B685B6803F40013002B03D0BA693B691C
:103F70001343BB61244ABB69D360234B5B68BB61BD
:103F80003B69DB43BA691340BB613B685B6803F480
:103F90000033002B03D0BA693B691343BB611A4A53
:103FA000BB695360184B1B68BB613B69DB43BA6953
:103FB0001340BB613B685B6803F48033002B03D084
:103FC000BA693B691343BB610F4ABB691360FB6964
:103FD0000133FB61FB690F2B7FF6A2AE00BF00BF70
:103FE0002437BD465DF8047B704700BF00380240AF
:103FF0000038014000000240000402400008024076
:10400000000C024000100240003C014080B487B028
:1040100000AF7860396000233B610023FB60002320
:10402000BB6000237B61BBE001227B6902FA03F3E2
:104030003B613A683B691340FB60FA683B699A420E
:1040400040F0AB805C4A7B699B08023352F8233016
:10405000BB607B6903F003039B000F2202FA03F3AA
:10406000BA681340BB607B68544A934219D07B689E
:10407000534A934213D07B68524A93420DD07B68D7
:10408000514A934207D07B68504A934201D104239E
:1040900008E0072306E0032304E0022302E00123F3
:1040A00000E000237A6902F0030292009340BA68AC
:1040B0009A4232D1464B1A68FB68DB4344491340AD
:1040C0000B60434B5A68FB68DB43414913404B602C
:1040D0003F4BDA68FB68DB433D491340CB603C4B08
:1040E0009A68FB68DB433A4913408B607B6903F0B5
:1040F00003039B000F2202FA03F3BB602E4A7B6985
:104100009B08023352F82310BB68DA432A487B69C4
:104110009B080A40023340F823207B681A687B69B9
:104120005B00032101FA03F3DB431A407B681A604A
:104130007B69DA087B68083253F822107B6903F048
:1041400007039B000F2202FA03F3DB437A69D208CC
:1041500019407B68083243F822107B68DA687B6973
:104160005B00032101FA03F3DB431A407B68DA604A
:104170007B685A6801217B6901FA03F3DB431A402B
:104180007B685A607B689A687B695B00032101FA4F
:1041900003F3DB431A407B689A607B6901337B61E0
:1041A0007B690F2B7FF640AF00BF00BF1C37BD46B9
:1041B0005DF8047B704700BF0038014000000240FA
:1041C0000004024000080240000C024000100240BF
:1041D000003C014080B485B000AF78600B467B8026
:1041E0007B681A697B881340002B02D00123FB7384
:1041F00001E00023FB73FB7B18461437BD465DF8D6
:10420000047B704780B483B000AF78600B467B803E
:1042100013467B707B78002B03D07A887B689A6189
:1042200003E07B881A047B689A6100BF0C37BD46A7
:104230005DF8047B704780B485B000AF78600B46B2
:104240007B807B685B69FB607A88FB6813401A049B
:10425000FB68D9437B880B401A437B689A6100BF97
:104260001437BD465DF8047B7047000080B586B00A
:1042700000AF78607B68002B01D1012367E27B6887
:104280001B6803F00103002B75D0884B9B6803F07B
:104290000C03042B0CD0854B9B6803F00C03082BFC
:1042A00012D1824B5B6803F48003B3F5800F0BD10E
:1042B0007E4B1B6803F40033002B5BD07B685B688C
:1042C000002B57D1012342E27B685B68B3F5803F46
:1042D00006D1764B1B68754A43F4803313601DE0AA
:1042E0007B685B68B3F5A02F0CD1704B1B686F4ADD
:1042F00043F4802313606D4B1B686C4A43F4803396
:1043000013600BE0694B1B68684A23F48033136029
:10431000664B1B68654A23F4802313607B685B68E7
:10432000002B13D0FFF75AFB386108E0FFF756FB6C
:1043300002463B69D31A642B01D9032307E25B4B86
:104340001B6803F40033002BF0D014E0FFF746FBAA
:10435000386108E0FFF742FB02463B69D31A642B41
:1043600001D90323F3E1514B1B6803F40033002B05
:10437000F0D100E000BF7B681B6803F00203002B54
:1043800063D04A4B9B6803F00C03002B0BD0474BC8
:104390009B6803F00C03082B1CD1444B5B6803F4AF
:1043A0008003002B16D1414B1B6803F00203002B46
:1043B00005D07B68DB68012B01D00123C7E13B4BB3
:1043C0001B6823F0F8027B681B69DB003749134345
:1043D0000B603AE07B68DB68002B20D0344B012275
:1043E0001A60FFF7FBFA386108E0FFF7F7FA0246B8
:1043F0003B69D31A022B01D90323A8E12B4B1B687D
:1044000003F00203002BF0D0284B1B6823F0F802C6
:104410007B681B69DB00254913430B6015E0244BC7
:1044200000221A60FFF7DAFA386108E0FFF7D6FADF
:1044300002463B69D31A022B01D9032387E11B4BA8
:104440001B6803F00203002BF0D17B681B6803F0AC
:104450000803002B36D07B685B69002B16D0154B08
:1044600001221A60FFF7BAFA386108E0FFF7B6FADE
:1044700002463B69D31A022B01D9032367E10B4B98
:104480005B6F03F00203002BF0D01BE0094B00220E
:104490001A60FFF7A3FA38610EE0FFF79FFA0246B1
:1044A0003B69D31A022B07D9032350E1003802409D
:1044B00000004742800E4742884B5B6F03F00203C7
:1044C000002BEAD17B681B6803F00403002B00F08B
:1044D00097800023FB75814B1B6C03F08053002BEE
:1044E0000FD10023BB607D4B1B6C7C4A43F0805393
:1044F00013647A4B1B6C03F08053BB60BB680123D1
:10450000FB75774B1B6803F48073002B18D1744B39
:104510001B68734A43F480731360FFF75FFA3861D6
:1045200008E0FFF75BFA02463B69D31A022B01D978
:1045300003230CE16A4B1B6803F48073002BF0D05B
:104540007B689B68012B06D1644B1B6F634A43F069
:10455000010313671CE07B689B68052B0CD15F4B44
:104560001B6F5E4A43F0040313675C4B1B6F5B4A8F
:1045700043F0010313670BE0584B1B6F574A23F0BE
:1045800001031367554B1B6F544A23F00403136751
:104590007B689B68002B15D0FFF720FA38610AE092
:1045A000FFF71CFA02463B69D31A41F28832934264
:1045B00001D90323CBE0494B1B6F03F00203002B0F
:1045C000EED014E0FFF70AFA38610AE0FFF706FAC6
:1045D00002463B69D31A41F28832934201D9032340
:1045E000B5E03E4B1B6F03F00203002BEED1FB7DC9
:1045F000012B05D1394B1B6C384A23F080531364CF
:104600007B689B69002B00F0A180344B9B6803F012
:104610000C03082B5CD07B689B69022B41D1314B8A
:1046200000221A60FFF7DAF9386108E0FFF7D6F9DF
:1046300002463B69D31A022B01D9032387E0274B9B
:104640001B6803F00073002BF0D17B68DA697B688C
:104650001B6A1A437B685B6A9B011A437B689B6AEF
:104660005B08013B1B041A437B68DB6A1B061B4982
:1046700013434B601B4B01221A60FFF7AFF93861FF
:1046800008E0FFF7ABF902463B69D31A022B01D9C8
:1046900003235CE0114B1B6803F00073002BF0D088
:1046A00054E0104B00221A60FFF798F9386108E0D7
:1046B000FFF794F902463B69D31A022B01D9032371
:1046C00045E0064B1B6803F00073002BF0D13DE082
:1046D0007B689B69012B07D1012338E00038024039
:1046E00000700040600047421B4B5B68FB607B68CA
:1046F0009B69012B28D0FB6803F480027B68DB698F
:104700009A4221D1FB6803F03F027B681B6A9A4200
:104710001AD1FA6847F6C07313407A68526A920158
:10472000934211D1FB6803F440327B689B6A5B08BB
:10473000013B1B049A4207D1FB6803F070627B685F
:10474000DB6A1B069A4201D0012300E000231846D1
:104750001837BD4680BD00BF0038024080B584B028
:1047600000AF786039607B68002B01D10123CCE079
:10477000684B1B6803F007033A689A420CD9654BF3
:104780003A68D2B21A70634B1B6803F007033A68A9
:104790009A4201D00123B8E07B681B6803F0020352
:1047A000002B20D07B681B6803F00403002B05D08E
:1047B000594B9B68584A43F4E05393607B681B68ED
:1047C00003F00803002B05D0534B9B68524A43F477
:1047D00060439360504B9B6823F0F0027B689B68BA
:1047E0004D4913438B607B681B6803F00103002B6A
:1047F00044D07B685B68012B07D1474B1B6803F4EF
:104800000033002B19D101237FE07B685B68022B0A
:1048100003D07B685B68032B07D13F4B1B6803F019
:104820000073002B09D101236FE03B4B1B6803F0A1
:104830000203002B01D1012367E0374B9B6823F073
:1048400003027B685B68344913438B60FFF7C6F84B
:10485000F8600AE0FFF7C2F80246FB68D31A41F29B
:104860008832934201D903234FE02B4B9B6803F01E
:104870000C027B685B689B009A42EBD1254B1B685E
:1048800003F007033A689A420CD2224B3A68D2B23C
:104890001A70204B1B6803F007033A689A4201D054
:1048A000012332E07B681B6803F00403002B08D06F
:1048B000194B9B6823F4E0527B68DB68164913436D
:1048C0008B607B681B6803F00803002B09D0124B38
:1048D0009B6823F460427B681B69DB000E4913432D
:1048E0008B6000F021F802460B4B9B681B0903F01C
:1048F0000F030A49CB5C22FA03F3094A1360094B00
:104900001B681846FFF726F8002318461037BD46E7
:1049100080BD00BF003C0240003802401C870008F8
:10492000040000201C0000202DE9B04F94B000AF1F
:1049300000237B640023FB6400233B640023BB64EF
:10494000794B9B6803F00C03082B0DD0082B00F269
:10495000E180002B02D0042B03D0DBE0734BBB645F
:10496000DBE0734BBB64D8E06F4B5B6803F03F0345
:104970007B646D4B5B6803F48003002B63D06A4B50
:104980005B689B090022BB63FA63BB6BC3F308033C
:104990003B6300237B63D7E90C4522462B464FF04F
:1049A00000004FF00001590141EAD2615001024676
:1049B0000B462146511A3961294663EB01037B619D
:1049C0004FF000024FF00003D7E904AB59468B01CA
:1049D000514643EA916351468A015146B2EB0108C0
:1049E000594663EB01094FF000024FF000034FEA14
:1049F000C90343EA58734FEAC802904699462346D2
:104A000018EB0303BB602B4649EB0303FB604FF03D
:104A100000024FF00003D7E9024529464B02214628
:104A200043EAD15321464A02104619467B6C0022C4
:104A3000BB62FA62D7E90A23FBF736FE02460B4651
:104A40001346FB6458E0384B5B689B09002218460C
:104A50001146C0F308033B6200237B62D7E9088953
:104A600042464B464FF000004FF00001590141EA29
:104A7000D261500102460B464146B2EB010A49465B
:104A800063EB010B4FF000024FF000034FEA8B1372
:104A900043EA9A634FEA8A12B2EB0A0463EB0B050E
:104AA0004FF000024FF00003EB0043EA5473E200C2
:104AB00014461D464346E3183B604B4645EB030353
:104AC0007B604FF000024FF00003D7E90045294614
:104AD0008B02214643EA915321468A021046194629
:104AE0007B6C0022BB61FA61D7E90623FBF7DCFD92
:104AF00002460B461346FB640B4B5B681B0C03F032
:104B0000030301335B003B64FA6C3B6CB2FBF3F3D1
:104B1000BB6402E0054BBB6400BFBB6C184650375A
:104B2000BD46BDE8B08F00BF003802400024F4004D
:104B300000127A0080B400AF034B1B681846BD46D4
:104B40005DF8047B704700BF0400002080B500AF13
:104B5000FFF7F0FF0246054B9B689B0A03F0070333
:104B60000349CB5C22FA03F3184680BD00380240AB
:104B70002C87000880B500AFFFF7DCFF0246054B2D
:104B80009B685B0B03F007030349CB5C22FA03F33A
:104B9000184680BD003802402C87000880B582B0DE
:104BA00000AF78607B68002B01D101237BE07B683C
:104BB0005B6A002B08D17B685B68B3F5827F09D004
:104BC0007B680022DA6105E07B6800221A617B685D
:104BD00000225A617B6800229A627B6893F8513008
:104BE000DBB2002B06D17B68002283F85020786866
:104BF00000F05DF87B68022283F851207B681B6817
:104C00001A687B681B6822F040021A607B685B6848
:104C100003F482727B689B6803F404431A437B6845
:104C2000DB6803F400631A437B681B6903F002032B
:104C30001A437B685B6903F001031A437B689B6935
:104C400003F400731A437B68DB6903F038031A43EB
:104C50007B681B6A03F0800342EA03017B689B6A5E
:104C600003F400527B681B680A431A607B689B69E7
:104C70001B0C03F004017B685B6A03F010027B6885
:104C80001B680A435A607B681B68DA697B681B688B
:104C900022F40062DA617B6800225A657B68012297
:104CA00083F85120002318460837BD4680BD80B4E4
:104CB00083B000AF786000BF0C37BD465DF8047B61
:104CC000704780B58AB000AFF860B9607A607B80C9
:104CD00001237B62FEF782FE3862FB6893F8513055
:104CE000FB77FB685B68BB617B88FB82FB7F012BEA
:104CF0000CD0BB69B3F5827F06D1FB689B68002BA3
:104D000002D1FB7F042B01D002237FE1BB68002B83
:104D100005D07B68002B02D07B88002B01D10123BA
:104D200074E1FB6893F85030012B01D102236DE14F
:104D3000FB68012283F85020FB6893F85130DBB206
:104D4000042B03D0FB68052283F85120FB68002266
:104D50005A65FB687A689A63FB687A88DA87FB6829
:104D60007A889A87FB68BA681A63FB687A88DA8659
:104D7000FB687A889A86FB6800221A64FB68002226
:104D80005A64FB681B681B6803F04003402B07D084
:104D9000FB681B681A68FB681B6842F040021A60D7
:104DA000FB68DB68B3F5006F7ED1FB685B68002BA6
:104DB00002D0FB8A012B6CD1FB681B6B1A88FB6845
:104DC0001B68DA60FB681B6B9A1CFB681A63FB6844
:104DD000DB8E9BB2013B9AB2FB68DA8659E0FB6836
:104DE0001B689B6803F00203022B1BD1FB68DB8E60
:104DF0009BB2002B16D07B6A012B13D1FB681B6B77
:104E00001A88FB681B68DA60FB681B6B9A1CFB68DE
:104E10001A63FB68DB8E9BB2013B9AB2FB68DA86B1
:104E200000237B62FB681B689B6803F00103012B76
:104E300019D1FB68DB8F9BB2002B14D0FB681B6879
:104E4000DA68FB689B6B92B21A80FB689B6B9A1CBA
:104E5000FB689A63FB68DB8F9BB2013B9AB2FB68ED
:104E6000DA8701237B62FEF7B9FD02463B6AD31A5B
:104E70003A6B9A420DD83B6BB3F1FF3F09D0FB6808
:104E8000012283F85120FB68002283F8502003237D
:104E9000BCE0FB68DB8E9BB2002BA0D1FB68DB8FF4
:104EA0009BB2002B9BD182E0FB685B68002B02D099
:104EB000FB8A012B71D1FB681A6BFB681B680C33F2
:104EC00012781A70FB681B6B5A1CFB681A63FB682C
:104ED000DB8E9BB2013B9AB2FB68DA865DE0FB6831
:104EE0001B689B6803F00203022B1CD1FB68DB8E5E
:104EF0009BB2002B17D07B6A012B14D1FB681A6B75
:104F0000FB681B680C3312781A70FB681B6B5A1C09
:104F1000FB681A63FB68DB8E9BB2013B9AB2FB68AD
:104F2000DA8600237B62FB681B689B6803F0010341
:104F3000012B19D1FB68DB8F9BB2002B14D0FB68CF
:104F40001B68DA68FB689B6BD2B21A70FB689B6BBC
:104F50005A1CFB689A63FB68DB8F9BB2013B9AB2D9
:104F6000FB68DA8701237B62FEF738FD02463B6A65
:104F7000D31A3A6B9A4203D83B6BB3F1FF3F02D18D
:104F80003B6B002B09D1FB68012283F85120FB68A1
:104F9000002283F85020032338E0FB68DB8E9BB2AD
:104FA000002B9CD1FB68DB8F9BB2002B97D13A6A18
:104FB000396BF86800F0C4F80346002B08D0FB6892
:104FC00020225A65FB68002283F8502001231DE04F
:104FD000FB689B68002B0AD100233B61FB681B68C0
:104FE000DB683B61FB681B689B683B613B69FB6856
:104FF000012283F85120FB68002283F85020FB68CF
:105000005B6D002B01D0012300E0002318462837F8
:10501000BD4680BD80B483B000AF78607B6893F8F4
:105020005130DBB218460C37BD465DF8047B704743
:1050300080B588B000AFF860B9603B601346FB7183
:10504000FEF7CCFC0246BB6A9B1A3A681344FB612C
:10505000FEF7C4FCB861394B1B685B011B0DFA6994
:1050600002FB03F37B6155E03B68B3F1FF3F51D096
:10507000FEF7B4FC0246BB69D31AFA699A4202D918
:10508000FB69002B3DD1FB681B685A68FB681B68F5
:1050900022F0E0025A60FB685B68B3F5827F11D1B1
:1050A000FB689B68B3F5004F04D0FB689B68B3F5C1
:1050B000806F07D1FB681B681A68FB681B6822F0C9
:1050C00040021A60FB689B6AB3F5005F0FD1FB6872
:1050D0001B681A68FB681B6822F400521A60FB68A0
:1050E0001B681A68FB681B6842F400521A60FB6870
:1050F000012283F85120FB68002283F8502003230B
:1051000018E07B69002B02D10023FB6102E07B6980
:10511000013B7B61FB681B689A68BB681340BA68F7
:105120009A420CBF01230023DBB21A46FB799A4254
:105130009AD1002318462037BD4680BD04000020C8
:1051400080B588B002AFF860B9607A607B68009380
:10515000BB6801220221F868FFF76AFF0346002BB3
:1051600007D0FB685B6D43F02002FB685A650323A0
:1051700032E01B4B1B681B4AA2FB03235B0D4FF461
:105180007A7202FB03F37B61FB685B68B3F5827F95
:1051900012D17B680093BB6800228021F868FFF77A
:1051A00047FF0346002B16D0FB685B6D43F02002DF
:1051B000FB685A6503230FE07B69002B0AD07B69EB
:1051C000013B7B61FB681B689B6803F08003802BBD
:1051D000F2D000E000BF002318461837BD4680BD5E
:1051E00004000020819F5E1680B582B000AF786019
:1051F0007B68002B01D1012341E07B6893F83D30AF
:10520000DBB2002B06D17B68002283F83C20786853
:10521000FDF72AFF7B68022283F83D207B681A682D
:105220007B6804331946104600F0F4F87B680122CD
:1052300083F846207B68012283F83E207B680122A8
:1052400083F83F207B68012283F840207B6801229D
:1052500083F841207B68012283F842207B68012289
:1052600083F843207B68012283F844207B68012275
:1052700083F845207B68012283F83D2000231846EF
:105280000837BD4680BD80B584B000AF7860396016
:105290000023FB737B6893F83C30012B01D1022380
:1052A000B4E07B68012283F83C207B68022283F80B
:1052B0003D207B681B689B68BB60BB6823F077035D
:1052C000BB60BB6823F47F43BB607B681B68BA6824
:1052D0009A603B681B68B3F5005F3ED0B3F5005F92
:1052E00000F28780B3F5805F00F08680B3F5805FC1
:1052F0007FD8702B1AD0702B7BD8602B50D0602BAE
:1053000077D8502B3CD0502B73D8402B58D0402B03
:105310006FD8302B64D0302B6BD8202B60D0202B53
:1053200067D8002B5CD0102B5AD062E07B681868DD
:105330003B6899683B685A683B68DB6800F06AF92B
:105340007B681B689B68BB60BB6843F07703BB60EE
:105350007B681B68BA689A604FE07B6818683B6896
:1053600099683B685A683B68DB6800F053F97B68D2
:105370001B689A687B681B6842F480429A603CE034
:105380007B6818683B6859683B68DB681A4600F020
:10539000C7F87B681B685021184600F020F92CE004
:1053A0007B6818683B6859683B68DB681A4600F000
:1053B000E6F87B681B686021184600F010F91CE0D5
:1053C0007B6818683B6859683B68DB681A4600F0E0
:1053D000A7F87B681B684021184600F000F90CE034
:1053E0007B681A683B681B681946104600F0F7F89E
:1053F00003E00123FB7300E000BF7B68012283F818
:105400003D207B68002283F83C20FB7B1846103748
:10541000BD4680BD80B485B000AF786039607B68E0
:105420001B68FB607B68374A93420FD07B68B3F1FF
:10543000804F0BD07B68344A934207D07B68334A55
:10544000934203D07B68324A934208D1FB6823F031
:105450007003FB603B685B68FA681343FB607B6822
:10546000284A93421BD07B68B3F1804F17D07B68EA
:10547000254A934213D07B68244A93420FD07B681D
:10548000234A93420BD07B68224A934207D07B6821
:10549000214A934203D07B68204A934208D1FB689B
:1054A00023F44073FB603B68DB68FA681343FB60DE
:1054B000FB6823F080023B685B691343FB603B6839
:1054C0009A687B68DA623B681A687B689A627B68D4
:1054D0000C4A934203D13B681A697B681A637B6864
:1054E0001B6843F004027B681A607B6801225A61E2
:1054F0007B68FA681A6000BF1437BD465DF8047B0C
:10550000704700BF00000140000400400008004058
:10551000000C0040004001400044014000480140B0
:1055200080B487B000AFF860B9607A60FB681B6A2E
:105530007B61FB681B6A23F00102FB681A62FB684F
:105540009B693B613B6923F0F0033B617B681B0176
:105550003A6913433B617B6923F00A037B617A69F3
:10556000BB6813437B61FB683A699A61FB687A699F
:105570001A6200BF1C37BD465DF8047B704780B4DB
:1055800087B000AFF860B9607A60FB681B6A7B6126
:10559000FB681B6A23F01002FB681A62FB689B69B8
:1055A0003B613B6923F470433B617B681B033A69B1
:1055B00013433B617B6923F0A0037B61BB681B0144
:1055C0007A6913437B61FB683A699A61FB687A697F
:1055D0001A6200BF1C37BD465DF8047B704780B47B
:1055E00085B000AF786039607B689B68FB60FB68C2
:1055F00023F07003FB603A68FB68134343F0070332
:10560000FB607B68FA689A6000BF1437BD465DF89E
:10561000047B704780B487B000AFF860B9607A60EF
:105620003B60FB689B687B617B6923F47F437B6104
:105630003B681A027B681A43BB6813437A691343B9
:105640007B61FB687A699A6000BF1C37BD465DF8D4
:10565000047B704780B485B000AF786039607B68A8
:1056600093F83C30012B01D1022350E07B680122EA
:1056700083F83C207B68022283F83D207B681B680E
:105680005B68FB607B681B689B68BB60FB6823F002
:105690007003FB603B681B68FA681343FB607B6820
:1056A0001B68FA685A607B681B681C4A934218D0D2
:1056B0007B681B68B3F1804F13D07B681B68184A66
:1056C00093420ED07B681B68164A934209D07B68D0
:1056D0001B68154A934204D07B681B68134A9342A7
:1056E0000CD1BB6823F08003BB603B685B68BA6881
:1056F0001343BB607B681B68BA689A607B680122B1
:1057000083F83D207B68002283F83C200023184664
:105710001437BD465DF8047B704700BF00000140B0
:105720000004004000080040000C00400040014020
:1057300080B582B000AF78607B68002B01D1012377
:1057400042E07B6893F84130DBB2002B06D17B68E6
:10575000002283F84020786800F03AF87B68242221
:1057600083F841207B681B68DA687B681B6822F439
:105770000052DA60786800F07DF97B681B681A696E
:105780007B681B6822F490421A617B681B685A6927
:105790007B681B6822F02A025A617B681B68DA6802
:1057A0007B681B6842F40052DA607B6800225A640E
:1057B0007B68202283F841207B68202283F84220E6
:1057C0007B6800225A63002318460837BD4680BD17
:1057D00080B483B000AF786000BF0C37BD465DF881
:1057E000047B704780B58AB002AFF860B9603B6057
:1057F0001346FB8000237B61FB6893F84130DBB2EA
:10580000202B75D1BB68002B02D0FB88002B01D167
:1058100001236EE0FB6800225A64FB68212283F8B2
:105820004120FEF7DBF87861FB68FA889A84FB6810
:10583000FA88DA84FB689B68B3F5805F08D1FB685F
:105840001B69002B04D10023FB61BB68BB6103E033
:10585000BB68FB610023BB612EE03B6800937B6962
:1058600000228021F86800F048F80346002B05D09C
:10587000FB68202283F8412003233AE0FB69002BD8
:105880000BD1BB691B881A46FB681B68C2F3080270
:105890005A60BB690233BB6107E0FB691A78FB6899
:1058A0001B685A60FB690133FB61FB68DB8C9BB2B0
:1058B000013B9AB2FB68DA84FB68DB8C9BB2002B5D
:1058C000CBD13B6800937B6900224021F86800F04F
:1058D00014F80346002B05D0FB68202283F84120F2
:1058E000032306E0FB68202283F84120002300E028
:1058F000022318462037BD4680BD80B586B000AF74
:10590000F860B9603B601346FB713BE03B6AB3F162
:10591000FF3F37D0FEF762F802463B68D31A3A6A77
:105920009A4202D33B6A002B01D103233AE0FB6881
:105930001B68DB6803F00403002B23D0BB68802BBB
:1059400020D0BB68402B1DD0FB681B681B6803F090
:105950000803082B16D100237B61FB681B681B68BA
:105960007B61FB681B685B687B617B69F86800F0A2
:105970001DF8FB6808225A64FB68002283F8402067
:1059800001230FE0FB681B681A68BB681340BA6804
:105990009A420CBF01230023DBB21A46FB799A42DC
:1059A000B4D0002318461837BD4680BD80B495B0EA
:1059B00000AF78607B681B680C337B637B6B53E8BC
:1059C000003F3B633B6B23F49073FB647B681B6875
:1059D0000C33FA6C3A64FB63F96B3A6C41E80023D0
:1059E000BB63BB6B002BE5D17B681B6814333B6248
:1059F0003B6A53E8003FFB61FB6923F00103BB6492
:105A00007B681B681433BA6CFA62BB62B96AFA6AC3
:105A100041E800237B627B6A002BE5D17B681B6B2E
:105A2000012B19D17B681B680C33FB60FB6853E8C2
:105A3000003FBB60BB6823F010037B647B681B687E
:105A40000C337A6CBA617B617969BA6941E80023E9
:105A50003B613B69002BE5D17B68202283F8422023
:105A60007B6800221A6300BF5437BD465DF8047B93
:105A7000704700002DE9B04FC0B000AFC7F8F40088
:105A8000D7F8F4301B681B6923F44050D7F8F43082
:105A9000D968D7F8F4301A6840EA01031361D7F8DF
:105AA000F4309A68D7F8F4301B691A43D7F8F43009
:105AB0005B691A43D7F8F430DB691343C7F8F83051
:105AC000D7F8F4301B68DB6823F4164121F00C0191
:105AD000D7F8F4301A68D7F8F8300B43D360D7F80A
