:020000040800F2
:100000000000022001160008D5110008DD110008CB
:10001000E5110008ED110008F511000800000000CE
:10002000000000000000000000000000FD110008BA
:100030000B12000800000000191200082712000827
:1000400051160008511600085116000851160008F4
:100050005116000851160008351200085116000804
:1000600051160008511600085116000851160008D4
:1000700051160008511600085116000851160008C4
:100080005116000851160008511600080000000023
:1000900000000000000000000000000051160008F1
:1000A0005116000851160008511600085116000894
:1000B0005116000851160008511600085116000884
:1000C0005116000851160008511600085116000874
:1000D00051160008511600085116000800000000D3
:1000E00049120008511600085116000800000000CF
:1000F0000000000000000000000000005116000891
:1001000000000000511600085116000851160008A2
:1001100000000000000000000000000000000000DF
:100120005116000851160008511600085116000813
:100130005116000800000000000000000000000050
:100140000000000000000000000000005116000840
:1001500051160008511600085116000851160008E3
:1001600051160008511600080000000000000000B1
:10017000000000000000000000000000000000007F
:100180000000000051160008000000000000000000
:08019000511600085116000889
:1001A00010B5054C237833B9044B13B10448AFF3B1
:1001B00000800123237010BD6C00002000000000AF
:1001C000A056000808B5034B1BB103490348AFF321
:1001D000008008BD0000000070000020A05600084C
:1001E00001F0FF01102A2BDB10F0070F08D010F8E8
:1001F000013B013A8B422DD010F0070F42B3F6D1EC
:10020000F0B441EA012141EA014122F007047FF004
:1002100000070023F0E80256083C85EA010586EA5B
:10022000010685FA47F5A3FA87F586FA47F6A5FA97
:1002300087F68EB9EED1F0BC01F0FF0102F00702A3
:1002400032B110F8013B013A83EA010313B1F8D14E
:100250000020704701387047002D06BF354603382F
:10026000073815F0010F07D1013015F4807F02BF68
:10027000013015F4C03F0130F0BC0138704700BFB9
:1002800053B94AB9002908BF00281CBF4FF0FF31FD
:100290004FF0FF3000F088B9ADF1080C6DE904CEE5
:1002A00000F006F8DDF804E0DDE9022304B0704751
:1002B0002DE9F047089D8E4604468846002B4AD11A
:1002C0008A42174662D9B2FA82F64EB1C6F12003CD
:1002D00001FA06F820FA03F3B74043EA0808B440ED
:1002E0004FEA174E1FFA87FCB8FBFEF1230C0EFBFA
:1002F000118843EA084301FB0CF29A4209D9FB1822
:1003000001F1FF3080F0EA809A4240F2E780023942
:100310003B449A1AA3B2B2FBFEF00EFB102243EA52
:10032000024300FB0CFC9C4509D9FB1800F1FF328D
:1003300080F0D6809C4540F2D3803B44023840EAAE
:100340000140A3EB0C0300211DB1F3400022C5E9DD
:100350000032BDE8F0878B4205D90DB1C5E9000137
:1003600000210846F5E7B3FA83F1002946D1734529
:1003700002D3824200F20581841A6EEB030201204F
:100380009046002DE5D0C5E90048E2E7002A00F0DC
:100390009080B2FA82F6002E40F0A4808A1A030CF4
:1003A0004FEA174E80B2BCB20121B2FBFEFC0EFB3D
:1003B0001C2243EA024304FB0CF29A4207D9FB18C1
:1003C0000CF1FF3802D29A4200F2E080C4469B1A38
:1003D000B3FBFEF20EFB123340EA034302FB04F4CC
:1003E0009C4207D9FB1802F1FF3002D29C4200F276
:1003F000CA8002461B1B42EA0C40A5E7C1F1200659
:100400008B4022FA06F71F430EFA01F420FA06F396
:100410002EFA06FE4FEA1749234300FA01F81FFAA5
:1004200087FCBEFBF9F01C0C09FB10EE44EA0E44FD
:1004300000FB0CFEA64502FA01F209D93C1900F1B5
:10044000FF3A80F09C80A64540F2998002383C44F7
:10045000A4EB0E041FFA83FEB4FBF9F309FB13446B
:100460004EEA044403FB0CFCA44508D93C1903F1F3
:10047000FF3E80F08280A4457FD9023B3C4443EAA2
:100480000040A4EB0C04A0FB02EC64457346E1467B
:1004900062D35FD05DB1B8EB030264EB090404FAE8
:1004A00006F622FA01F31E43CC40C5E900640021A0
:1004B0004FE7B1FBF2FC010C41EA0E4180B240EA89
:1004C00001423B4638463C46B846BE462026B1FB74
:1004D000F7F1A2EB080241EA0C4166E7014618E792
:1004E00010462CE7C6F120022EFA02F3B740B140C5
:1004F00020FA02F24FEA174E0A43B3FBFEF8BCB2F1
:100500000EFB1833110C41EA034108FB04F9B0401B
:1005100089454FEA104380B23ED9791808F1FF3C73
:1005200001D289451FD8A1EB0901B1FBFEF909FBF6
:1005300004F80EFB191192B242EA0142424529D257
:10054000BA1809F1FF31C4D24245C2D2A9F1020161
:100550003A44BEE7F0459DD2BEEB02036CEB070CBC
:100560000138E14696E7A7EB09094944A8F1020CD6
:10057000B1FBFEF909FB04F8DBE773467FE7504661
:1005800066E70846FDE63B44023A33E7ACF1020C6D
:100590003B441CE749469CE7A1EB0901C446B1FB7B
:1005A000FEF909FB04F8C4E7704700BF80B588B0C6
:1005B00000AF78600023BB601E4B1B6B1D4A43F0ED
:1005C000010313631B4B1B6B03F00103BB60BB6890
:1005D0000123FB604FF488133B6100237B6107F12B
:1005E0000C031946144801F02FFA4FF48073FB6096
:1005F00001233B6100237B610023BB6107F10C03F6
:1006000019460D4801F020FA0223FB6001233B61EB
:1006100000237B610023BB6107F10C0319460648E8
:1006200001F012FA00F018FE034618462037BD46C6
:1006300080BD00BF003802400000024080B500AF1E
:100640000121074801F084FB0221054801F080FBED
:100650004FF48071024801F07BFB0023184680BDF7
:100660000000024080B500AF012202210B4801F0DA
:100670006BFC00224FF48071084801F065FC0520F6
:1006800001F05AF801224FF48071044801F05CFC3B
:10069000052001F051F80023184680BD00000240FB
:1006A00080B588B000AF78600B467B8000237B77F5
:1006B000FF233B770B237B6100233B760022022143
:1006C000214801F041FC07F10C0107F11403052258
:1006D000184600F0F1FD3B7B022B2AD13B7C1BB27C
:1006E0001B021AB2FB7B1BB213431BB2FB83FB8BB7
:1006F000002B1ED0FA8B7B889A4201D97B88FB8322
:1007000000237B7710E007F11B0107F11C03012296
:10071000184600F0D1FD7B7F7A681344FA7ED2B28E
:100720001A707B7F01337B777B7F9BB2FA8B9A4277
:10073000E9D801220221044801F006FC7B7F18461B
:100740002037BD4680BD00BF0000024080B588B0A4
:1007500000AF78600B467B800A233B6100233B752A
:1007600000F0DEFFB8610023FB61002202211C487B
:1007700001F0EAFB07F1080107F110030522184612
:1007800000F09AFD3B7A022B0FD17B7A1A467B88C8
:10079000934206D87B881A461249786800F08CFD8F
:1007A00006E06FF00103FB6102E04FF0FF33FB61F5
:1007B000012202210A4801F0C7FB00F0B1FF024606
:1007C000BB69D31A0F2B03D96FF00203FB6102E060
:1007D000FB69002BC7DBFB6918462037BD4680BD8F
:1007E000000002409000002080B500AF01210548C4
:1007F00001F092FB0346012B0CBF01230023DBB267
:10080000184680BD0000024080B588B000AF134B91
:100810007B60134BBB60134B7B61134B3B61134BF2
:10082000FB60134BFB613B1D184603F087FC4FF048
:10083000C061104801F0CFF80F4A00210D4801F0C7
:10084000B0F800220021062001F075F8062001F022
:100850008EF800BF2037BD4680BD00BFAD05000843
:100860003D0600084D070008A106000865060008BF
:10087000F9120008880000207D08000880B500AF4C
:1008800005E0002003F0BEFD0346002B05D1FFF775
:10089000ABFF0346002BF4D100E000BF80BD000099
:1008A00090B593B006AF324B07F120040FCB84E82C
:1008B0000F00304B07F110040FCB84E80F002E4BD4
:1008C0003C460FCB84E80F0007F120012B4B00932F
:1008D00009230122022002F0E9FF03461A46284BB1
:1008E0001A70274B1B78002B38D1244B188807F13E
:1008F0001002244B05930123049310230393002338
:10090000029300230193122300931423022103F086
:1009100056F803461A461A4B1A70194B1B78002BCF
:100920001ED1164B18883A46174B059301230493A2
:100930001023039301230293002301930C230093BC
:100940001423022103F03BF803461A460C4B1A709D
:100950000B4B1B78002B05D1002305E000BF02E004
:1009600000BF00E000BF472318463437BD4690BDA6
:10097000B8560008C8560008D85600089A0100204A
:10098000A00100209C0100209E01002080B58CB0B9
:1009900008AF134A3B1D07CA03C31A700021002089
:1009A00003F0ACFA0023069300230593002304937D
:1009B000002303933B1D029309230193002300931B
:1009C00000234FF480524FF40061002002F00AFE31
:1009D00003461A46034B1A7000BF1037BD4680BD50
:1009E000E8560008A001002080B582B000AF786012
:1009F0000B46FB7013463B80786800F027FA00BF77
:100A00000837BD4680BD000080B584B002AF786075
:100A10000B46FB700A4B18880A4B1988FA787B68DA
:100A200000931346002203F095F803461A46064B3E
:100A30001A70054B1B7818460837BD4680BD00BFAD
:100A40009A0100209C010020A001002080B582B006
:100A500000AF03463A60FB800B467B71FA880E4B71
:100A60001B8801339A4206D1FA887B791946386887
:100A7000FFF7BAFF0CE0FA88084B1B8802339A4252
:100A800006D13B681B78012B02D1054B01221A705D
:100A900000BF0837BD4680BD9E0100209C0100209C
:100AA0009201002080B483B000AF78600B467B8059
:100AB000054B01221A70054A7B88138000BF0C3752
:100AC000BD465DF8047B70478F0100209001002037
:100AD00080B400AF0C4B00221A700C4B01221A702C
:100AE0000B4B00221A700B4B00221A700A4B00228B
:100AF0001A700A4B00221A70094B00221A7000BFAC
:100B0000BD465DF8047B70478F0100200000002087
:100B10009201002093010020940100209501002003
:100B20009601002080B582B000AF03463A60FB809A
:100B30000B467B71FA88084B1B8801339A4206D119
:100B4000064B1A887B7919463868FFF74DFF00BFBE
:100B50000837BD4680BD00BF980100209C010020E1
:100B600080B58AB000AF78607B687B627B6A0133B6
:100B70003B627B6A1B78042B64D13B6A1B78FF2B9A
:100B80001FD0FF2B61DC052B02D03E2B03D05CE095
:100B9000FFF79EFF59E03B6A0233FB60FB681B785E
:100BA000012B51D1FB680133BB60BB685A1DBB6888
:100BB000B3F801309BB219461046FFF773FF00BF30
:100BC00042E03B6A0233FB61FB691B889BB240F643
:100BD0000142934204D040F60F42934220D034E0C9
:100BE0001B4B1B78012B0DD1FB6902333B613B6929
:100BF0005B8898B23B6919793B6907331A46FFF75E
:100C000025FF1EE0FB6902337B617B695B8898B23C
:100C10007B6919797B6905331A46FFF717FF10E0E6
:100C2000FB690233BB61BB69B3F8033098B2BB699F
:100C30009B78023BD9B2BB6905331A46FFF772FFB6
:100C400000BF02E000BF00E000BF2837BD4680BD06
:100C50000100002080B58AB004AF0021434803F0B2
:100C60002BFABA1C7B1D1146184603F099F803F0C5
:100C7000D9F8642000F060FD7B79302B02D93C4B21
:100C800001221A7001237B6111E003F01FFD03466E
:100C90005A42DBB2D2B258BF5342D9B207F10C026A
:100CA0007B6913440A461A707B6901337B617B6957
:100CB000052BEADD3B7B43F00103DBB23B7307F11D
:100CC0000C031A460621002002F0D4FF03461A4600
:100CD000284B1A7002F0C7FD03461A46254B1A70BE
:100CE000234B1B78012B11D107F10A02BB1D019385
:100CF00007F108030093134607220021012002F0A8
:100D0000D7FB03461A461B4B1A700BE0BB1D07F1BD
:100D1000080207F10A01012002F01AFC03461A46F4
:100D2000144B1A7001230393134B02930023019376
:100D300010230093072300220021012002F03CFD34
:100D400003461A460B4B1A70FFF7AAFD03461A46D4
:100D5000084B1A700421012002F0F1FF03461A46E5
:100D6000044B1A7000BF1837BD4680BD610B0008E8
:100D700001000020A001002040E2010080B483B007
:100D800000AF0346FB80FB88B3F5005F02D1044B44
:100D900001221A7000BF0C37BD465DF8047B704716
:100DA000A101002080B500AF1E4B1B78DBB2002BE9
:100DB0000DD0FFF7EBFD1B4B00221A704FF40051D2
:100DC000194801F0A9F803461A46184B1A70184B37
:100DD0001B78002B23D0322000F0AEFC00BF4FF474
:100DE0000051114801F098F803461A460F4B1B7842
:100DF000DBB2002B0CBF01230023DBB29A42EED002
:100E0000322000F099FC0B4B1B78DBB2002B03D097
:100E10000B210948FFF7F8FD054B00221A7000BFAF
:100E200080BD00BF0000002000080240020000203A
:100E3000A10100208F010020F456000880B500AF0A
:100E4000FFF7B0FF03F0B2FA00BF80BD80B582B0FB
:100E500000AF78607B681B78312B04D10122202100
:100E6000074801F071F87B681B78302B04D1002211
:100E70002021034801F068F800BF0837BD4680BD57
:100E80000000024080B500AF00F0E4FB00F00AF87B
:100E900000F09CF800F070F8FFF7DCFEFFF7CEFFE3
:100EA000FCE7000080B594B000AF07F120033022CA
:100EB0000021184603F04DFD07F10C0300221A60D3
:100EC0005A609A60DA601A610023BB60284B1B6C81
:100ED000274A43F080531364254B1B6C03F0805367
:100EE000BB60BB6800237B60224B1B68214A43F434
:100EF000404313601F4B1B6803F440437B607B68D7
:100F000002233B620123FB6210233B630223BB638A
:100F10000023FB6310233B644FF4A8737B6404231A
:100F2000BB640423FB6407F12003184601F03EF87C
:100F30000346002B01D000F0D7F80F23FB600223FB
:100F40003B6100237B614FF48053BB610023FB6155
:100F500007F10C030221184601F0A0FA0346002B0A
:100F600001D000F0C1F800BF5037BD4680BD00BFC2
:100F7000003802400070004080B500AF114B124AAB
:100F80001A60104B4FF4E1325A600E4B00229A6007
:100F90000C4B0022DA600B4B00221A61094B0C2229
:100FA0005A61084B00229A61064B0022DA6105481B
:100FB00001F0BAFF0346002B01D000F095F800BF06
:100FC00080BD00BFA40100200044004080B58AB06D
:100FD00000AF07F1140300221A605A609A60DA60C9
:100FE0001A6100233B613D4B1B6B3C4A43F00403F9
:100FF00013633A4B1B6B03F004033B613B69002313
:10100000FB60364B1B6B354A43F080031363334B55
:101010001B6B03F08003FB60FB680023BB602F4B5E
:101020001B6B2E4A43F0010313632C4B1B6B03F025
:101030000103BB60BB6800237B60284B1B6B274A06
:1010400043F002031363254B1B6B03F002037B6029
:101050007B6800224FF49171214800F075FF4FF436
:1010600000537B614FF40413BB610023FB6107F164
:10107000140319461B4800F0E7FC01237B614FF481
:101080008813BB610023FB6107F114031946144860
:1010900000F0DAFC4FF491737B610123BB61002304
:1010A000FB6100233B6207F1140319460C4800F072
:1010B000CBFC00220021062000F03DFC062000F0C1
:1010C00056FC00220021282000F035FC282000F0EA
:1010D0004EFC00BF2837BD4680BD00BF003802402F
:1010E000000002400008024080B400AF72B600BFAA
:1010F00000BFFDE780B582B000AF00237B60104BDE
:101100005B6C0F4A43F4804353640D4B5B6C03F4F8
:1011100080437B607B6800233B60094B1B6C084A63
:1011200043F080531364064B1B6C03F080533B6009
:101130003B68072000F0F4FB00BF0837BD4680BDC8
:101140000038024080B58AB000AF786007F1140320
:1011500000221A605A609A60DA601A617B681B6824
:10116000194A93422BD100233B61184B1B6C174A41
:1011700043F400331364154B1B6C03F400333B61E1
:101180003B690023FB60114B1B6B104A43F00103CA
:1011900013630E4B1B6B03F00103FB60FB680C2316
:1011A0007B610223BB610023FB6103233B620723B6
:1011B0007B6207F114031946054800F045FC00BFA7
:1011C0002837BD4680BD00BF0044004000380240C3
:1011D0000000024080B400AF00BFFDE780B400AF64
:1011E00000BFFDE780B400AF00BFFDE780B400AFF3
:1011F00000BFFDE780B400AF00BFFDE780B400AFE3
:1012000000BFBD465DF8047B704780B400AF00BFEF
:10121000BD465DF8047B704780B400AF00BFBD469B
:101220005DF8047B704780B500AF00F065FA00BF41
:1012300080BD000080B500AF024800F0E1FB00BFB8
:1012400080BD00BF8800002080B500AF4FF4005083
:1012500000F094FE00BF80BD80B582B000AF0023D7
:101260007B60124B124A1A60124B1B685A1C1149C0
:101270000A60002B14D10D4801F06CFD0346002BD1
:101280000ED10A4800F07CF87B68002B08D1074893
:1012900000F03AF80346002B02D06FF007037B60A2
:1012A0007B6818460837BD4680BD00BFEC010020B2
:1012B000003001404402002080B588B002AFF860E1
:1012C000B9601346FB8000237B61FB884FF480529A
:1012D0000092BA68F968074801F093FB0346002BB7
:1012E00002D06FF005037B617B6918461837BD4655
:1012F00080BD00BFEC01002080B500AF00F010FA07
:101300000346184680BD000080B584B000AF786009
:101310000023FB737B68194A1A607B684FF4827262
:101320005A607B6800229A607B680022DA607B68E2
:1013300000221A617B6800225A617B684FF40072B8
:101340009A617B681822DA617B6800221A627B68E6
:1013500000225A627B6800229A627B680A22DA6263
:10136000786801F0BBFA0346002B01D00123FB7320
:10137000FB7B18461037BD4680BD00BF00300140E2
:1013800080B58AB000AF786000233B612D4B5B6C69
:101390002C4A43F4805353642A4B5B6C03F4805310
:1013A0003B613B690023FB60264B1B6B254A43F0E6
:1013B00001031363234B1B6B03F00103FB60FB680A
:1013C0000023BB601F4B1B6B1E4A43F002031363D9
:1013D0001C4B1B6B03F00203BB60BB6840237B61AB
:1013E0000223BB610023FB6103233B6205237B6275
:1013F00007F114031946144800F026FB80237B6193
:101400000223BB610023FB6103233B6205237B6254
:1014100007F1140319460C4800F016FB08237B6102
:101420000223BB610023FB6103233B6205237B6234
:1014300007F114031946054800F006FB00BF2837E2
:10144000BD4680BD0038024000000240000402405A
:1014500080B400AF01231846BD465DF8047B704799
:1014600080B582B000AF7860396003F0C1FA0346FE
:1014700016221A604FF0FF3318460837BD4680BD6C
:1014800080B582B000AF78604FF0FF317868FFF729
:10149000E7FF00BFFDE780B586B000AFF860B96038
:1014A0007A6000237B610AE0AFF300800146BB68ED
:1014B0005A1CBA60CAB21A707B6901337B617A69BF
:1014C0007B689A42F0DB7B6818461837BD4680BDC2
:1014D00080B586B000AFF860B9607A6000237B61A8
:1014E00009E0BB685A1CBA601B781846AFF300804D
:1014F0007B6901337B617A697B689A42F1DB7B68A7
:1015000018461837BD4680BD80B483B000AF786000
:101510004FF0FF3318460C37BD465DF8047B70472B
:1015200080B483B000AF786039603B684FF40052FC
:101530005A60002318460C37BD465DF8047B70479F
:1015400080B483B000AF7860012318460C37BD46E5
:101550005DF8047B704780B485B000AFF860B96077
:101560007A60002318461437BD465DF8047B704747
:1015700080B586B000AF7860144A154BD31A7B61F2
:101580007B693B61134B1B68002B02D1114B124A44
:101590001A60104B1A687B6813443A699A4207D262
:1015A00003F026FA03460C221A604FF0FF3309E0DD
:1015B000084B1B68FB60074B1A687B681344054A9D
:1015C0001360FB6818461837BD4680BD0000022036
:1015D00000040000480200208806002080B400AF0C
:1015E000064BD3F88830054A43F47003C2F88830BC
:1015F00000BFBD465DF8047B704700BF00ED00E012
:10160000DFF834D0FFF7EAFF0C480D490D4A0023FC
:1016100002E0D458C4500433C4188C42F9D30A4AA7
:101620000A4C002301E013600432A242FBD303F012
:10163000E5F9FFF727FC70470000022000000020BA
:101640006C000020085800086C000020880600206C
:10165000FEE7000080B500AF0E4B1B680D4A43F457
:10166000007313600B4B1B680A4A43F480631360DA
:10167000084B1B68074A43F480731360032000F093
:101680004FF9002000F008F8FFF734FD002318465A
:1016900080BD00BF003C024080B582B000AF7860E2
:1016A000124B1A68124B1B7819464FF47A73B3FB2E
:1016B000F1F3B2FBF3F3184600F067F90346002B91
:1016C00001D001230EE07B680F2B0AD80022796835
:1016D0004FF0FF3000F02FF9064A7B6813600023BB
:1016E00000E0012318460837BD4680BD04000020F5
:1016F0000C0000200800002080B400AF064B1B78CF
:101700001A46064B1B681344044A136000BFBD46CB
:101710005DF8047B704700BF0C0000204C020020E5
:1017200080B400AF034B1B681846BD465DF8047BD0
:10173000704700BF4C02002080B584B000AF7860D5
:10174000FFF7EEFFB8607B68FB60FB68B3F1FF3F1B
:1017500005D00A4B1B781A46FB681344FB6000BF98
:10176000FFF7DEFF0246BB68D31AFA689A42F7D841
:1017700000BF00BF1037BD4680BD00BF0C00002079
:1017800080B485B000AF78607B6803F00703FB602E
:101790000C4BDB68BB60BA684FF6FF031340BB60BD
:1017A000FB681A02BB68134343F0BF6343F4003382
:1017B000BB60044ABB68D36000BF1437BD465DF808
:1017C000047B704700ED00E080B400AF044BDB68A1
:1017D0001B0A03F007031846BD465DF8047B7047FB
:1017E00000ED00E080B483B000AF0346FB7197F9D1
:1017F0000730002B0BDBFB7903F01F02074997F939
:1018000007305B09012000FA02F241F8232000BFF3
:101810000C37BD465DF8047B704700BF00E100E077
:1018200080B483B000AF03463960FB7197F907308D
:10183000002B0ADB3B68DAB20C4997F9073012013A
:10184000D2B20B4483F800230AE03B68DAB20849BD
:10185000FB7903F00F03043B1201D2B20B441A765A
:1018600000BF0C37BD465DF8047B704700E100E027
:1018700000ED00E080B489B000AFF860B9607A6034
:10188000FB6803F00703FB61FB69C3F10703042B4B
:1018900028BF0423BB61FB690433062B02D9FB6913
:1018A000033B00E000237B614FF0FF32BB6902FA8B
:1018B00003F3DA43BB681A407B699A404FF0FF316B
:1018C0007B6901FA03F3D9437B680B401343184645
:1018D0002437BD465DF8047B7047000080B582B0B8
:1018E00000AF78607B68013BB3F1807F01D30123B7
:1018F0000FE00A4A7B68013B53600F214FF0FF3035
:10190000FFF78EFF054B00229A60044B07221A60F6
:10191000002318460837BD4680BD00BF10E000E038
:1019200080B582B000AF78607868FFF729FF00BF0C
:101930000837BD4680BD80B586B000AF0346B960AC
:101940007A60FB7300237B61FFF73EFF78617A6862
:10195000B9687869FFF78EFF024697F90F30114694
:101960001846FFF75DFF00BF1837BD4680BD80B544
:1019700082B000AF0346FB7197F907301846FFF7B6
:1019800031FF00BF0837BD4680BD80B582B000AFD3
:1019900078607868FFF7A2FF034618460837BD460F
:1019A00080BD80B487B000AFF8600B467A60FB72F0
:1019B0000023FB75FB7A002B03D1FB687A685A6021
:1019C00002E00123FB7500BFFB7D18461C37BD46B6
:1019D0005DF8047B704780B483B000AF78603960F5
:1019E0007B68002B01D1012303E07B683A681A6011
:1019F000002318460C37BD465DF8047B7047000095
:101A000080B584B000AF78607B681B6803F01F036B
:101A1000012202FA03F3FB600A4B5B69FA68134088
:101A2000BB60BB68002B09D0064AFB6853617B682A
:101A30005B68002B02D07B685B68984700BF10375B
:101A4000BD4680BD003C014080B489B000AF7860E5
:101A5000396000237B6100233B610023BB610023CD
:101A6000FB6159E10122FB6902FA03F37B613B68E8
:101A70001B687A6913403B613A697B699A4240F07E
:101A800048813B685B6803F00303012B05D03B688A
:101A90005B6803F00303022B30D17B689B68BB615A
:101AA000FB695B00032202FA03F3DB43BA691340CC
:101AB000BB613B68DA68FB695B0002FA03F3BA6951
:101AC0001343BB617B68BA699A607B685B68BB61E2
:101AD0000122FB6902FA03F3DB43BA691340BB61DD
:101AE0003B685B681B0903F00102FB6902FA03F320
:101AF000BA691343BB617B68BA695A603B685B682B
:101B000003F00303032B17D07B68DB68BB61FB6921
:101B10005B00032202FA03F3DB43BA691340BB61A3
:101B20003B689A68FB695B0002FA03F3BA691343E6
:101B3000BB617B68BA69DA603B685B6803F00303EA
:101B4000022B23D1FB69DA087B68083253F8223074
:101B5000BB61FB6903F007039B000F2202FA03F34A
:101B6000DB43BA691340BB613B681A69FB6903F048
:101B700007039B0002FA03F3BA691343BB61FB69D5
:101B8000DA087B680832B96943F822107B681B6861
:101B9000BB61FB695B00032202FA03F3DB43BA6912
:101BA0001340BB613B685B6803F00302FB695B00A9
:101BB00002FA03F3BA691343BB617B68BA691A601E
:101BC0003B685B6803F44033002B00F0A2800023E5
:101BD000FB60574B5B6C564A43F480435364544B51
:101BE0005B6C03F48043FB60FB68524AFB699B0813
:101BF000023352F82330BB61FB6903F003039B00FF
:101C00000F2202FA03F3DB43BA691340BB617B681E
:101C1000494A934219D07B68484A934213D07B6863
:101C2000474A93420DD07B68464A934207D07B686F
:101C3000454A934201D1042308E0072306E0032329
:101C400004E0022302E0012300E00023FA6902F02D
:101C5000030292009340BA691343BB613549FB69A3
:101C60009B080233BA6941F82320384B9B68BB615B
:101C70003B69DB43BA691340BB613B685B6803F4B3
:101C80008013002B03D0BA693B691343BB612F4A11
:101C9000BB6993602D4BDB68BB613B69DB43BA6971
:101CA0001340BB613B685B6803F40013002B03D057
:101CB000BA693B691343BB61244ABB69D360234BB8
:101CC0005B68BB613B69DB43BA691340BB613B683E
:101CD0005B6803F40033002B03D0BA693B691343FC
:101CE000BB611A4ABB695360184B1B68BB613B69F7
:101CF000DB43BA691340BB613B685B6803F4803324
:101D0000002B03D0BA693B691343BB610F4ABB691F
:101D10001360FB690133FB61FB690F2B7FF6A2AEF9
:101D200000BF00BF2437BD465DF8047B704700BF8D
:101D30000038024000380140000002400004024028
:101D400000080240000C024000100240003C01402C
:101D500080B487B000AF7860396000233B61002316
:101D6000FB600023BB6000237B61BBE001227B6939
:101D700002FA03F33B613A683B691340FB60FA687F
:101D80003B699A4240F0AB805C4A7B699B08023316
:101D900052F82330BB607B6903F003039B000F22E2
:101DA00002FA03F3BA681340BB607B68544A93425B
:101DB00019D07B68534A934213D07B68524A9342AE
:101DC0000DD07B68514A934207D07B68504A9342BA
:101DD00001D1042308E0072306E0032304E00223E3
:101DE00002E0012300E000237A6902F0030292007E
:101DF0009340BA689A4232D1464B1A68FB68DB437B
:101E0000444913400B60434B5A68FB68DB4341492C
:101E100013404B603F4BDA68FB68DB433D4913409E
:101E2000CB603C4B9A68FB68DB433A4913408B60BC
:101E30007B6903F003039B000F2202FA03F3BB60EC
:101E40002E4A7B699B08023352F82310BB68DA43A1
:101E50002A487B699B080A40023340F823207B68AC
:101E60001A687B695B00032101FA03F3DB431A4024
:101E70007B681A607B69DA087B68083253F82210A5
:101E80007B6903F007039B000F2202FA03F3DB4395
:101E90007A69D20819407B68083243F822107B68BF
:101EA000DA687B695B00032101FA03F3DB431A4024
:101EB0007B68DA607B685A6801217B6901FA03F369
:101EC000DB431A407B685A607B689A687B695B00D9
:101ED000032101FA03F3DB431A407B689A607B69B4
:101EE00001337B617B690F2B7FF640AF00BF00BFE2
:101EF0001C37BD465DF8047B704700BF00380140C9
:101F0000000002400004024000080240000C0240B1
:101F100000100240003C014080B485B000AF786002
:101F20000B467B807B681A697B881340002B02D0AC
:101F30000123FB7301E00023FB73FB7B184614377E
:101F4000BD465DF8047B704780B483B000AF786015
:101F50000B467B8013467B707B78002B03D07A88FE
:101F60007B689A6103E07B881A047B689A6100BFF2
:101F70000C37BD465DF8047B7047000080B582B029
:101F800000AF0346FB80084B5A69FB881340002BC7
:101F900006D0054AFB885361FB881846FEF7EEFE23
:101FA00000BF0837BD4680BD003C014080B586B00B
:101FB00000AF78607B68002B01D1012367E27B686A
:101FC0001B6803F00103002B75D0884B9B6803F05E
:101FD0000C03042B0CD0854B9B6803F00C03082BDF
:101FE00012D1824B5B6803F48003B3F5800F0BD1F1
:101FF0007E4B1B6803F40033002B5BD07B685B686F
:10200000002B57D1012342E27B685B68B3F5803F28
:1020100006D1764B1B68754A43F4803313601DE08C
:102020007B685B68B3F5A02F0CD1704B1B686F4ABF
:1020300043F4802313606D4B1B686C4A43F4803378
:1020400013600BE0694B1B68684A23F4803313600C
:10205000664B1B68654A23F4802313607B685B68CA
:10206000002B13D0FFF75CFB386108E0FFF758FB4B
:1020700002463B69D31A642B01D9032307E25B4B69
:102080001B6803F40033002BF0D014E0FFF748FB8B
:10209000386108E0FFF744FB02463B69D31A642B22
:1020A00001D90323F3E1514B1B6803F40033002BE8
:1020B000F0D100E000BF7B681B6803F00203002B37
:1020C00063D04A4B9B6803F00C03002B0BD0474BAB
:1020D0009B6803F00C03082B1CD1444B5B6803F492
:1020E0008003002B16D1414B1B6803F00203002B29
:1020F00005D07B68DB68012B01D00123C7E13B4B96
:102100001B6823F0F8027B681B69DB003749134327
:102110000B603AE07B68DB68002B20D0344B012257
:102120001A60FFF7FDFA386108E0FFF7F9FA024696
:102130003B69D31A022B01D90323A8E12B4B1B685F
:1021400003F00203002BF0D0284B1B6823F0F802A9
:102150007B681B69DB00254913430B6015E0244BAA
:1021600000221A60FFF7DCFA386108E0FFF7D8FABE
:1021700002463B69D31A022B01D9032387E11B4B8B
:102180001B6803F00203002BF0D17B681B6803F08F
:102190000803002B36D07B685B69002B16D0154BEB
:1021A00001221A60FFF7BCFA386108E0FFF7B8FABD
:1021B00002463B69D31A022B01D9032367E10B4B7B
:1021C0005B6F03F00203002BF0D01BE0094B0022F1
:1021D0001A60FFF7A5FA38610EE0FFF7A1FA024690
:1021E0003B69D31A022B07D9032350E10038024080
:1021F00000004742800E4742884B5B6F03F00203AA
:10220000002BEAD17B681B6803F00403002B00F06D
:1022100097800023FB75814B1B6C03F08053002BD0
:102220000FD10023BB607D4B1B6C7C4A43F0805375
:1022300013647A4B1B6C03F08053BB60BB680123B3
:10224000FB75774B1B6803F48073002B18D1744B1C
:102250001B68734A43F480731360FFF761FA3861B7
:1022600008E0FFF75DFA02463B69D31A022B01D959
:1022700003230CE16A4B1B6803F48073002BF0D03E
:102280007B689B68012B06D1644B1B6F634A43F04C
:10229000010313671CE07B689B68052B0CD15F4B27
:1022A0001B6F5E4A43F0040313675C4B1B6F5B4A72
:1022B00043F0010313670BE0584B1B6F574A23F0A1
:1022C00001031367554B1B6F544A23F00403136734
:1022D0007B689B68002B15D0FFF722FA38610AE073
:1022E000FFF71EFA02463B69D31A41F28832934245
:1022F00001D90323CBE0494B1B6F03F00203002BF2
:10230000EED014E0FFF70CFA38610AE0FFF708FAA4
:1023100002463B69D31A41F28832934201D9032322
:10232000B5E03E4B1B6F03F00203002BEED1FB7DAB
:10233000012B05D1394B1B6C384A23F080531364B1
:102340007B689B69002B00F0A180344B9B6803F0F5
:102350000C03082B5CD07B689B69022B41D1314B6D
:1023600000221A60FFF7DCF9386108E0FFF7D8F9BE
:1023700002463B69D31A022B01D9032387E0274B7E
:102380001B6803F00073002BF0D17B68DA697B686F
:102390001B6A1A437B685B6A9B011A437B689B6AD2
:1023A0005B08013B1B041A437B68DB6A1B061B4965
:1023B00013434B601B4B01221A60FFF7B1F93861E0
:1023C00008E0FFF7ADF902463B69D31A022B01D9A9
:1023D00003235CE0114B1B6803F00073002BF0D06B
:1023E00054E0104B00221A60FFF79AF9386108E0B8
:1023F000FFF796F902463B69D31A022B01D9032352
:1024000045E0064B1B6803F00073002BF0D13DE064
:102410007B689B69012B07D1012338E0003802401B
:1024200000700040600047421B4B5B68FB607B68AC
:102430009B69012B28D0FB6803F480027B68DB6971
:102440009A4221D1FB6803F03F027B681B6A9A42E3
:102450001AD1FA6847F6C07313407A68526A92013B
:10246000934211D1FB6803F440327B689B6A5B089E
:10247000013B1B049A4207D1FB6803F070627B6842
:10248000DB6A1B069A4201D0012300E000231846B4
:102490001837BD4680BD00BF0038024080B584B00B
:1024A00000AF786039607B68002B01D10123CCE05C
:1024B000684B1B6803F007033A689A420CD9654BD6
:1024C0003A68D2B21A70634B1B6803F007033A688C
:1024D0009A4201D00123B8E07B681B6803F0020335
:1024E000002B20D07B681B6803F00403002B05D071
:1024F000594B9B68584A43F4E05393607B681B68D0
:1025000003F00803002B05D0534B9B68524A43F459
:1025100060439360504B9B6823F0F0027B689B689C
:102520004D4913438B607B681B6803F00103002B4C
:1025300044D07B685B68012B07D1474B1B6803F4D1
:102540000033002B19D101237FE07B685B68022BED
:1025500003D07B685B68032B07D13F4B1B6803F0FC
:102560000073002B09D101236FE03B4B1B6803F084
:102570000203002B01D1012367E0374B9B6823F056
:1025800003027B685B68344913438B60FFF7C8F82C
:10259000F8600AE0FFF7C4F80246FB68D31A41F27C
:1025A0008832934201D903234FE02B4B9B6803F001
:1025B0000C027B685B689B009A42EBD1254B1B6841
:1025C00003F007033A689A420CD2224B3A68D2B21F
:1025D0001A70204B1B6803F007033A689A4201D037
:1025E000012332E07B681B6803F00403002B08D052
:1025F000194B9B6823F4E0527B68DB681649134350
:102600008B607B681B6803F00803002B09D0124B1A
:102610009B6823F460427B681B69DB000E4913430F
:102620008B6000F021F802460B4B9B681B0903F0FE
:102630000F030A49CB5C22FA03F3094A1360094BE2
:102640001B681846FFF728F8002318461037BD46C8
:1026500080BD00BF003C0240003802400057000827
:1026600004000020080000202DE9B04F94B000AF16
:1026700000237B640023FB6400233B640023BB64D2
:10268000794B9B6803F00C03082B0DD0082B00F24C
:10269000E180002B02D0042B03D0DBE0734BBB6442
:1026A000DBE0734BBB64D8E06F4B5B6803F03F0328
:1026B0007B646D4B5B6803F48003002B63D06A4B33
:1026C0005B689B090022BB63FA63BB6BC3F308031F
:1026D0003B6300237B63D7E90C4522462B464FF032
:1026E00000004FF00001590141EAD2615001024659
:1026F0000B462146511A3961294663EB01037B6180
:102700004FF000024FF00003D7E904AB59468B01AC
:10271000514643EA916351468A015146B2EB0108A2
:10272000594663EB01094FF000024FF000034FEAF6
:10273000C90343EA58734FEAC802904699462346B4
:1027400018EB0303BB602B4649EB0303FB604FF020
:1027500000024FF00003D7E9024529464B0221460B
:1027600043EAD15321464A02104619467B6C0022A7
:10277000BB62FA62D7E90A23FDF782FD02460B46E7
:102780001346FB6458E0384B5B689B0900221846EF
:102790001146C0F308033B6200237B62D7E9088936
:1027A00042464B464FF000004FF00001590141EA0C
:1027B000D261500102460B464146B2EB010A49463E
:1027C00063EB010B4FF000024FF000034FEA8B1355
:1027D00043EA9A634FEA8A12B2EB0A0463EB0B05F1
:1027E0004FF000024FF00003EB0043EA5473E200A5
:1027F00014461D464346E3183B604B4645EB030336
:102800007B604FF000024FF00003D7E900452946F6
:102810008B02214643EA915321468A02104619460B
:102820007B6C0022BB61FA61D7E90623FDF728FD26
:1028300002460B461346FB640B4B5B681B0C03F014
:10284000030301335B003B64FA6C3B6CB2FBF3F3B4
:10285000BB6402E0054BBB6400BFBB6C184650373D
:10286000BD46BDE8B08F00BF003802400024F40030
:1028700000127A0080B400AF034B1B681846BD46B7
:102880005DF8047B704700BF0400002080B500AFF6
:10289000FFF7F0FF0246054B9B689B0A03F0070316
:1028A0000349CB5C22FA03F3184680BD003802408E
:1028B0001057000880B500AFFFF7DCFF0246054B5C
:1028C0009B685B0B03F007030349CB5C22FA03F31D
:1028D000184680BD003802401057000880B582B00D
:1028E00000AF78607B68002B01D101237BE07B681F
:1028F0005B6A002B08D17B685B68B3F5827F09D0E7
:102900007B680022DA6105E07B6800221A617B683F
:1029100000225A617B6800229A627B6893F85130EA
:10292000DBB2002B06D17B68002283F85020786848
:1029300000F05DF87B68022283F851207B681B68F9
:102940001A687B681B6822F040021A607B685B682B
:1029500003F482727B689B6803F404431A437B6828
:10296000DB6803F400631A437B681B6903F002030E
:102970001A437B685B6903F001031A437B689B6918
:1029800003F400731A437B68DB6903F038031A43CE
:102990007B681B6A03F0800342EA03017B689B6A41
:1029A00003F400527B681B680A431A607B689B69CA
:1029B0001B0C03F004017B685B6A03F010027B6868
:1029C0001B680A435A607B681B68DA697B681B686E
:1029D00022F40062DA617B6800225A657B6801227A
:1029E00083F85120002318460837BD4680BD80B4C7
:1029F00083B000AF786000BF0C37BD465DF8047B44
:102A0000704780B58AB000AFF860B9607A607B80AB
:102A100001237B62FEF784FE3862FB6893F8513035
:102A2000FB77FB685B68BB617B88FB82FB7F012BCC
:102A30000CD0BB69B3F5827F06D1FB689B68002B85
:102A400002D1FB7F042B01D002237FE1BB68002B66
:102A500005D07B68002B02D07B88002B01D101239D
:102A600074E1FB6893F85030012B01D102236DE132
:102A7000FB68012283F85020FB6893F85130DBB2E9
:102A8000042B03D0FB68052283F85120FB68002249
:102A90005A65FB687A689A63FB687A88DA87FB680C
:102AA0007A889A87FB68BA681A63FB687A88DA863C
:102AB000FB687A889A86FB6800221A64FB68002209
:102AC0005A64FB681B681B6803F04003402B07D067
:102AD000FB681B681A68FB681B6842F040021A60BA
:102AE000FB68DB68B3F5006F7ED1FB685B68002B89
:102AF00002D0FB8A012B6CD1FB681B6B1A88FB6828
:102B00001B68DA60FB681B6B9A1CFB681A63FB6826
:102B1000DB8E9BB2013B9AB2FB68DA8659E0FB6818
:102B20001B689B6803F00203022B1BD1FB68DB8E42
:102B30009BB2002B16D07B6A012B13D1FB681B6B59
:102B40001A88FB681B68DA60FB681B6B9A1CFB68C1
:102B50001A63FB68DB8E9BB2013B9AB2FB68DA8694
:102B600000237B62FB681B689B6803F00103012B59
:102B700019D1FB68DB8F9BB2002B14D0FB681B685C
:102B8000DA68FB689B6B92B21A80FB689B6B9A1C9D
:102B9000FB689A63FB68DB8F9BB2013B9AB2FB68D0
:102BA000DA8701237B62FEF7BBFD02463B6AD31A3C
:102BB0003A6B9A420DD83B6BB3F1FF3F09D0FB68EB
:102BC000012283F85120FB68002283F85020032360
:102BD000BCE0FB68DB8E9BB2002BA0D1FB68DB8FD7
:102BE0009BB2002B9BD182E0FB685B68002B02D07C
:102BF000FB8A012B71D1FB681A6BFB681B680C33D5
:102C000012781A70FB681B6B5A1CFB681A63FB680E
:102C1000DB8E9BB2013B9AB2FB68DA865DE0FB6813
:102C20001B689B6803F00203022B1CD1FB68DB8E40
:102C30009BB2002B17D07B6A012B14D1FB681A6B57
:102C4000FB681B680C3312781A70FB681B6B5A1CEC
:102C5000FB681A63FB68DB8E9BB2013B9AB2FB6890
:102C6000DA8600237B62FB681B689B6803F0010324
:102C7000012B19D1FB68DB8F9BB2002B14D0FB68B2
:102C80001B68DA68FB689B6BD2B21A70FB689B6B9F
:102C90005A1CFB689A63FB68DB8F9BB2013B9AB2BC
:102CA000FB68DA8701237B62FEF73AFD02463B6A46
:102CB000D31A3A6B9A4203D83B6BB3F1FF3F02D170
:102CC0003B6B002B09D1FB68012283F85120FB6884
:102CD000002283F85020032338E0FB68DB8E9BB290
:102CE000002B9CD1FB68DB8F9BB2002B97D13A6AFB
:102CF000396BF86800F0C4F80346002B08D0FB6875
:102D000020225A65FB68002283F8502001231DE031
:102D1000FB689B68002B0AD100233B61FB681B68A2
:102D2000DB683B61FB681B689B683B613B69FB6838
:102D3000012283F85120FB68002283F85020FB68B1
:102D40005B6D002B01D0012300E0002318462837DB
:102D5000BD4680BD80B483B000AF78607B6893F8D7
:102D60005130DBB218460C37BD465DF8047B704726
:102D700080B588B000AFF860B9603B601346FB7166
:102D8000FEF7CEFC0246BB6A9B1A3A681344FB610D
:102D9000FEF7C6FCB861394B1B685B011B0DFA6975
:102DA00002FB03F37B6155E03B68B3F1FF3F51D079
:102DB000FEF7B6FC0246BB69D31AFA699A4202D9F9
:102DC000FB69002B3DD1FB681B685A68FB681B68D8
:102DD00022F0E0025A60FB685B68B3F5827F11D194
:102DE000FB689B68B3F5004F04D0FB689B68B3F5A4
:102DF000806F07D1FB681B681A68FB681B6822F0AC
:102E000040021A60FB689B6AB3F5005F0FD1FB6854
:102E10001B681A68FB681B6822F400521A60FB6882
:102E20001B681A68FB681B6842F400521A60FB6852
:102E3000012283F85120FB68002283F850200323ED
:102E400018E07B69002B02D10023FB6102E07B6963
:102E5000013B7B61FB681B689A68BB681340BA68DA
:102E60009A420CBF01230023DBB21A46FB799A4237
:102E70009AD1002318462037BD4680BD04000020AB
:102E800080B588B002AFF860B9607A607B68009363
:102E9000BB6801220221F868FFF76AFF0346002B96
:102EA00007D0FB685B6D43F02002FB685A65032383
:102EB00032E01B4B1B681B4AA2FB03235B0D4FF444
:102EC0007A7202FB03F37B61FB685B68B3F5827F78
:102ED00012D17B680093BB6800228021F868FFF75D
:102EE00047FF0346002B16D0FB685B6D43F02002C2
:102EF000FB685A6503230FE07B69002B0AD07B69CE
:102F0000013B7B61FB681B689B6803F08003802B9F
:102F1000F2D000E000BF002318461837BD4680BD40
:102F200004000020819F5E1680B582B000AF7860FB
:102F30007B68002B01D1012342E07B6893F841308C
:102F4000DBB2002B06D17B68002283F84020786832
:102F5000FEF7F8F87B68242283F841207B681B6821
:102F6000DA687B681B6822F40052DA60786800F047
:102F70002BF87B681B681A697B681B6822F49042F7
:102F80001A617B681B685A697B681B6822F02A02F9
:102F90005A617B681B68DA687B681B6842F40052E0
:102FA000DA607B6800225A647B68202283F8412023
:102FB0007B68202283F842207B6800225A6300232A
:102FC00018460837BD4680BD2DE9B04FC0B000AFF0
:102FD000C7F8F400D7F8F4301B681B6923F440509D
:102FE000D7F8F430D968D7F8F4301A6840EA01030A
:102FF0001361D7F8F4309A68D7F8F4301B691A4394
:10300000D7F8F4305B691A43D7F8F430DB6913431F
:10301000C7F8F830D7F8F4301B68DB6823F41641A2
:1030200021F00C01D7F8F4301A68D7F8F8300B43C8
:10303000D360D7F8F4301B685B6923F44070D7F88D
:10304000F4309969D7F8F4301A6840EA0103536103
:10305000D7F8F4301A688F4B9A4205D0D7F8F4307D
:103060001A688D4B9A4204D1FFF724FCC7F8FC0084
:1030700003E0FFF70BFCC7F8FC00D7F8F430DB697E
:10308000B3F5004F40F00C81D7F8FC300022C7F8B0
:10309000E830C7F8EC20D7E93A4522462B4691188C
:1030A000B9655B41FB65D7E91623214612EB0108A0
:1030B000294643EB01094FF000024FF000034FEAAD
:1030C000C90343EA58734FEAC8029046994623461B
:1030D00018EB0303C7F8E0302B4649EB0303C7F8AE
:1030E000E430D7F8F4305B680022C7F8D830C7F86E
:1030F000DC20D7E936120B46DB183B65134642EB62
:1031000003037B65D7E91423D7E93801FDF7B8F845
:1031100002460B46614BA3FB02235B091C01D7F857
:10312000FC300022C7F8D030C7F8D420D7E9348962
:1031300042464B469118B9645B41FB64D7E91223C0
:10314000414612EB010A494643EB010B4FF00002E6
:103150004FF000034FEACB0343EA5A734FEACA0227
:1031600092469B4643461AEB0303C7F8C8304B46CA
:103170004BEB0303C7F8CC30D7F8F4305B68002280
:10318000C7F8C030C7F8C420D7E930120B46DB18A7
:103190003B64134642EB03037B64D7E91023D7E972
:1031A0003201FDF76DF802460B4611463B4BA3FB7F
:1031B00001235B09642202FB03F3CB1ADB0003F15A
:1031C0003202364BA3FB02235B095B0003F4F87366
:1031D0001C44D7F8FC300022C7F8B830C7F8BC2030
:1031E000D7E92E8942464B469118B9635B41FB6390
:1031F000D7E90E2341465118396349464B417B6359
:103200004FF000024FF00003D7E90CAB5946CB005A
:10321000514643EA51735146CA00104619460346C7
:1032200042469B18C7F8B0304B460A4642EB0303B0
:10323000C7F8B430D7F8F4305B680022C7F8A8307C
:10324000C7F8AC20D7E92A120B46DB18BB6213463D
:1032500042EB0303FB62D7E90A23D7E92C01FDF710
:103260000FF802460B460D4BA3FB02135B096421CA
:1032700001FB03F3D31ADB003233084AA2FB03231A
:103280005B0903F00702D7F8F4301B6822449A6008
:1032900006E100BF00100140001401401F85EB5102
:1032A000D7F8FC300022C7F8A030C7F8A420D7E92F
:1032B000288942464B46911839625B417B62D7E9C7
:1032C000082341465418494643EB01054FF00002DC
:1032D0004FF00003EB0043EA5473E20014461D462E
:1032E0004346E318C7F898304B4645EB0303C7F84D
:1032F0009C30D7F8F4305B680022C7F89030C7F8EC
:1033000094204FF000024FF00003D7E924452946EE
:103310008B00214643EA917321468A00D7E92601B2
:10332000FCF7AEFF02460B46604BA3FB02235B0992
:103330001C01D7F8FC300022C7F88830C7F88C2071
:10334000D7E9228942464B469118B9615B41FB613E
:10335000D7E9062341465118396149464B417B6103
:103360004FF000024FF00003D7E904AB5946CB0001
:10337000514643EA51735146CA0010461946034666
:1033800042469B18C7F880304B460A4642EB03037F
:10339000C7F88430D7F8F4305B680022BB67FA675F
:1033A0004FF000024FF00003D7E91E8949468B0019
:1033B000414643EA917341468A00D7E92001FCF770
:1033C0005FFF02460B461146384BA3FB01235B0906
:1033D000642202FB03F3CB1A1B013233334AA2FBF4
:1033E00003235B0903F0F0031C44D7F8FC300022F0
:1033F0003B677A67D7E91C8942464B469118B9600A
:103400005B41FB60D7E902234146511839604946C8
:103410004B417B604FF000024FF00003D7E900AB57
:103420005946CB00514643EA51735146CA001046F3
:103430001946034642469B18BB664B460A4642EB7A
:103440000303FB66D7F8F4305B6800223B667A66BC
:103450004FF000024FF00003D7E9188949468B006E
:10346000414643EA917341468A00D7E91A01FCF7C5
:1034700007FF02460B460D4BA3FB02135B096421B9
:1034800001FB03F3D31A1B013233084AA2FB0323C7
:103490005B0903F00F02D7F8F4301B6822449A60EE
:1034A00000BF07F58077BD46BDE8B08F1F85EB51A3
:1034B00080B58CB000AF3B600346FB710B46BB711F
:1034C00013467B71FB793B75BB797B757B79BB754B
:1034D00007F10C0307220021184601F03AFA07F120
:1034E000180318220021184601F033FA3F233B83CA
:1034F0008A237B8307F114033B6203237B6207F17A
:103500000C03BB620723FB6207F118030021184676
:1035100000F034FE0346002B01DAFF2314E03B7B6E
:10352000002B01D03B7B0FE0B7F80D309AB23B681F
:103530001A80B7F80F309AB2BB6B1A80B7F8113007
:103540009AB2FB6B1A80002318463037BD4680BD07
:1035500080B58EB000AFB9607A603B600346FB7304
:10356000FB7B3B7707F1140307220021184601F08B
:10357000F0F907F1200318220021184601F0E9F9BB
:103580003F233B848A237B8407F11C03BB62012316
:10359000FB6207F114033B6307237B6307F12003FE
:1035A0000021184600F0EAFD0346002B01DAFF2354
:1035B00014E03B7D002B01D03B7D0FE0B7F81530C8
:1035C0009AB2BB681A80B7F817309AB27B681A8033
:1035D000B7F819309AB23B681A800023184638377A
:1035E000BD4680BD90B595B000AF04460846114673
:1035F0001A462346FB710346BB800B467B8013466D
:10360000BB71002387F84F3097F8642097F86C302F
:1036100013440E33282B01D94223C9E097F84F30C9
:1036200050333B44FA7903F8482C97F84F30013374
:1036300087F84F30BB88BB8097F84F3007F10802FE
:103640001344BA881A8097F84F30023387F84F3006
:103650007B887B8097F84F3007F1080213447A8803
:103660001A8097F84F30023387F84F3097F84F3071
:1036700050333B44BA7903F8482C97F84F30013364
:1036800087F84F3097F84F3050333B4497F860201D
:1036900003F8482C97F84F30013387F84F3097F8EC
:1036A0004F3050333B4497F8642003F8482C97F888
:1036B0004F30013387F84F3097F84F3007F1080249
:1036C000134497F86420B96E184601F0BEF997F8D4
:1036D0004F2097F86430134487F84F3097F84F30F5
:1036E00050333B4497F86C2003F8482C97F84F3040
:1036F000013387F84F3097F84F3007F10802134431
:1037000097F86C20396F184601F09FF997F84F2011
:1037100097F86C30134487F84F30B7F87430A7F837
:10372000743097F84F3007F108021344B7F874204B
:103730001A8097F84F30023387F84F30B7F8783057
:10374000A7F8783097F84F3007F108021344B7F81C
:1037500078201A8097F84F30023387F84F3007F1FE
:10376000340318220021184601F0F3F83F23BB86EA
:103770008323FB8607F10803FB6397F84F303B6414
:1037800007F133037B640123BB6407F13403002199
:10379000184600F0F3FC0346002B01DAFF2307E094
:1037A00097F83330002B02D097F8333000E0002335
:1037B00018465437BD4690BD90B591B000AF3A6001
:1037C0001A460346FB710B46BB7113467B71FB79AE
:1037D0003B73BB797B73BB79002B0AD03A6807F146
:1037E0000E03146850689168D2681C605860996034
:1037F000DA607B79BB7797F85030FB7797F85430D5
:1038000087F82030BB6DC7F8213097F85C3087F817
:10381000253007F1280318220021184601F099F8F5
:103820003F233B8586237B8507F10C033B631A23EB
:103830007B6307F10B03BB630123FB6307F12803E1
:103840000021184600F09AFC0346002B01DAFF2302
:1038500005E0FB7A002B01D0FB7A00E0002318463C
:103860004437BD4690BD80B588B000AF07F108036E
:1038700018220021184601F06CF83F233B8140F2EA
:1038800001137B81FB1DBB610123FB6107F1080371
:103890000021184600F072FC0346002B01DAFF23DA
:1038A00000E0FB7918462037BD4680BD80B590B05A
:1038B00000AF396011461A460346FB710B46BB71D7
:1038C00013467B71002387F83E3097F83E30403333
:1038D0003B44FA7903F8342C97F83E30013387F8EB
:1038E0003E30FB79012B03D1022387F83F3002E001
:1038F000102387F83F3097F83E3007F10C0213444D
:1039000097F83F203968184601F09FF897F83E2055
:1039100097F83F30134487F83E3097F83E304033F5
:103920003B44BA7903F8342C97F83E30013387F8DA
:103930003E3097F83E3040333B447A7903F8342CDC
:1039400097F83E30013387F83E3007F12003032219
:103950000021184600F0FDFF07F124031822002182
:10396000184600F0F6FF3F23BB844FF48173FB84BD
:1039700007F10C03FB6297F83E303B6307F120032D
:103980007B630323BB6307F124030021184600F087
:10399000F5FB0346002B01DAFF230CE097F82030FB
:1039A000002B02D097F8203005E0B7F821309AB20A
:1039B000BB6C1A80002318464037BD4680BD80B5D9
:1039C00092B000AF3A601A460346FB800B467B710B
:1039D00013463B71002387F84630FB88FB8097F83D
:1039E000463007F10C021344FA881A8097F84630E3
:1039F000023387F8463097F8463048333B447A79AB
:103A000003F83C2C97F84630013387F846307B7931
:103A1000012B03D1022387F8473002E0102387F8F7
:103A2000473097F8463007F10C02134497F84720C7
:103A30003968184601F009F897F8462097F847309A
:103A4000134487F8463097F8463048333B443A7978
:103A500003F83C2C97F84630013387F8463097F846
:103A6000463048333B4497F8502003F83C2C97F8F5
:103A70004630013387F8463097F8463048333B44A8
:103A800097F8542003F83C2C97F84630013387F818
:103A9000463097F8463048333B4497F8582003F8AF
:103AA0003C2C97F84630013387F8463097F846307B
:103AB00048333B4497F85C2003F83C2C97F8463099
:103AC000013387F8463097F8463048333B4497F83F
:103AD000602003F83C2C97F84630013387F84630D5
:103AE00007F1280303220021184600F032FF07F1F6
:103AF0002C0318220021184600F02BFF3F23BB8522
:103B00004FF48273FB8507F10C037B6397F8463013
:103B1000BB6307F12803FB6303233B6407F12C031A
:103B20000021184600F02AFB0346002B01DAFF2390
:103B30000CE097F82830002B02D097F8283005E0E9
:103B4000B7F829309AB27B6E1A800023184648379E
:103B5000BD4680BD90B5ABB000AF044608461146E7
:103B60001A462346FB800346BB800B46FB70134678
:103B7000BB70002387F8A730BB787A2B01D942238A
:103B800074E0FB88FB8097F8A73007F10802134424
:103B9000FA881A8097F8A730023387F8A730BB88D5
:103BA000BB8097F8A73007F108021344BA881A803F
:103BB00097F8A730023387F8A73097F8A730A833D3
:103BC0003B44FA7803F8A02C97F8A730013387F824
:103BD000A73097F8A730A8333B44BA7803F8A02C55
:103BE00097F8A730013387F8A73097F8A73007F187
:103BF00008021344BA78D7F8B810184600F025FF29
:103C000097F8A720BB78134487F8A73007F18C03F7
:103C100018220021184600F09CFE3F23A7F88C30A4
:103C20004FF48373A7F88E3007F10803C7F8943078
:103C300097F8A730C7F8983007F18B03C7F89C3086
:103C40000123C7F8A03007F18C030021184600F0CB
:103C500095FA0346002B01DAFF2307E097F88B3033
:103C6000002B02D097F88B3000E000231846AC37C9
:103C7000BD4690BD80B5AAB000AF03463A60FB7167
:103C80000B46BB71002387F8A730BB797E2B01D987
:103C9000422350E097F8A730A8333B44FA7903F861
:103CA000A02C97F8A730013387F8A73097F8A730F2
:103CB000A8333B44BA7903F8A02C97F8A730013316
:103CC00087F8A73097F8A73007F108021344BA79AC
:103CD0003968184600F0B9FE97F8A720BB7913445D
:103CE00087F8A73007F18C0318220021184600F04E
:103CF00030FE3F23A7F88C300C23A7F88E3007F155
:103D00000803C7F8943097F8A730C7F8983007F140
:103D10008B03C7F89C300123C7F8A03007F18C0350
:103D20000021184600F02AFA0346002B01DAFF238F
:103D300001E097F88B301846A837BD4680BD80B5A6
:103D40008AB000AF03460A46FB711346BB71FB798C
:103D50003B73BB797B7307F11003182200211846CF
:103D600000F0F7FD3F233B820F237B8207F10C031A
:103D7000BB610223FB6107F10B033B6201237B6202
:103D800007F110030021184600F0F8F90346002B54
:103D900001DAFF2300E0FB7A18462837BD4680BDD4
:103DA00090B589B002AF7860396007F1100407F16F
:103DB000150207F1120107F1160007F10E03009337
:103DC000234600F051F80346FB75FB7D002B24D100
:103DD0007B8A1B0A9BB2DAB27B681A707B8A1B0251
:103DE0009AB23B681A803B681B881AB2FB891BB2E7
:103DF00003F0F0031BB213431BB29AB23B681A8064
:103E00003B681B881AB2FB891BB203F00F031BB27D
:103E100013431BB29AB23B681A80FB7D18461C37CD
:103E2000BD4690BD80B588B000AF07F108031822E9
:103E30000021184600F08DFD03233B8103237B8185
:103E4000FB1DBB610123FB6107F10803002118463C
:103E500000F094F90346002B01DAFF2300E0FB7920
:103E600018462037BD4680BD80B58EB000AFF860E3
:103E7000B9607A603B6007F11403092200211846FB
:103E800000F067FD07F1200318220021184600F01A
:103E900060FD04233B8401237B840023BB62002359
:103EA000FB6207F114033B6309237B6307F12003E3
:103EB0000021184600F062F90346002B01DAFF23C7
:103EC00018E03B7D002B01D03B7D13E07A7DFB6841
:103ED0001A70FA8ABB681A803A7E7B681A70B7F843
:103EE00019309AB23B681A80B7F81B309AB23B6C13
:103EF0001A80002318463837BD4680BD80B592B081
:103F000000AF03463960FB7107F110032022002146
:103F1000184600F01EFDFB793B74FB791F2B28BF70
:103F20001F23DBB21A4607F1100301333968184624
:103F300000F08BFD07F1300318220021184600F035
:103F400008FD08233B8609237B8607F11003BB632A
:103F50002023FB6307F10F033B6401237B6407F11C
:103F600030030021184600F009F90346002B01DA5E
:103F7000FF2300E0FB7B18464837BD4680BD80B478
:103F800085B000AF78607B680833FB60FB681B7806
:103F9000042B01D001230CE0FB6802331B781A4686
:103FA0007B6893F88830033B9A4201D0022300E0FB
:103FB000002318461437BD465DF8047B70470000A7
:103FC00080B5A6B000AF7B600346FB810B46BB818A
:103FD0001346FB72B7F90C30C3F309031AB2B7F9F1
:103FE0000E309B021BB213431BB29BB2BB82FB7A07
:103FF000BB7501233B7607F1180301331A4607F11D
:10400000140319889B781180937007F11803043307
:10401000FA7A7968184600F018FD094B1B69002BE5
:1040200009D0074B1B69FA7A92B2043291B207F1B8
:1040300018021046984700BF9837BD4680BD00BFA4
:104040001C05002080B584B000AF786039600AE0BC
:1040500007F10C031946386800F0E8FAFB681946C6
:10406000786800F04FFA386800F02AFA0346002B0F
:10407000EED000BF00BF1037BD4680BD80B582B016
:1040800000AF09E03B1D1946094800F0A8FA7B681B
:104090001946084800F05CFA064800F0EEFA0346BC
:1040A000012BEFDD00BF00BF0837BD4680BD00BF5C
:1040B000580200205002002080B584B000AF786024
:1040C00039607B68002B02D0184A7B68D36118489E
:1040D00000F0E6F9174800F0E3F9FCF795FB002340
:1040E000FB730CE0FB7B8C2202FB03F3124A1344AC
:1040F00019460F4800F02CFAFB7B0133FB73FB7B66
:10410000042BEFD9094B1B68002B03D0074B1B680E
:1041100000209847054B9B68002B02D0034B9B68FF
:10412000984700BF1037BD4680BD00BF1C0500206A
:1041300050020020580200206002002080B483B0AA
:1041400000AF78607B681B680B4A13607B68DB6894
:10415000094AD3607B681B69074A13617B689B69C6
:10416000054A93617B689B68034A936000BF0C37E4
:10417000BD465DF8047B70471C05002080B58EB0FD
:1041800000AF78600B46FB707B685B881BB2C3F3A3
:1041900009031AB27B681B881BB29B021BB2134334
:1041A0001BB2FB8600233B6107F10803184600F0B1
:1041B00077F9FFF763FF7B6818887B6859887B680D
:1041C000DB68DAB27B689B68FFF7FAFEFB78002BAE
:1041D00001D00023E2E0FDF7A3FA3863FDF7A0FA6F
:1041E00002463B6BD31AB3F57A7F00F2B3806D4879
:1041F00000F066F90346002B00D0EFE700BF07F19F
:1042000010031946674800F0EAF93B690833FB627E
:10421000FB6A1B78042B7FD1FB6A0133BB623B69CD
:10422000083303337B623B6993F88830033B3B627E
:10423000BB6A1B783E2B4CD03E2B68DC102B00F069
:104240008B80102B63DC0E2B23D00F2B5FD17B6A6E
:10425000BB61BB695B889BB2FA8E9A427ED17B6858
:104260005B680F2B04D0BB691B78002B51D078E022
:104270007B685A693B6A9A4228BF1A467B685A6132
:104280007B6818697B685B691A46796A00F0DDFB18
:1042900078E07B6A7B617B69B3F801309BB2FA8E70
:1042A0009A425DD17B6A03337B623B6A033B3B628C
:1042B0007B685A693B6A9A4228BF1A467B685A61F2
:1042C0007B6818697B685B691A46796A00F0BDFBF8
:1042D00058E07B6AFB61FB691B781A467B685B6868
:1042E0009A4218D13B6A013B3B627B685A693B6A40
:1042F0009A4228BF1A467B685A617B681869FB6935
:10430000591C7B685B691A4600F09FFB3AE000BFCE
:1043100002E000BF00E000BF234800F0D1F80346F0
:10432000002B0DD01F4800F0CBF80346002B07D020
:104330003B6919461C4800F00BF900233B6108E07B
:104340003A6907F108031146184600F001F9002305
:104350003B6140E700BF04E000BF02E000BF00E0B7
:1043600000BF3B69002B04D03B6919460E4800F0A2
:10437000C9F807F1080319460A48FFF763FE4FF032
:10438000FF330BE03B691946074800F0BBF807F123
:10439000080319460348FFF755FE0023184638372F
:1043A000BD4680BD580200205002002080B582B07A
:1043B00000AF00237B6013E03B1D19460E4800F060
:1043C0000EF90E4BDB69002B05D00C4BDB697A68CC
:1043D0000832104698477B681946094800F0B8F83B
:1043E000054800F06DF80346002BE5D000BF00BF84
:1043F0000837BD4680BD00BF580200201C050020C4
:104400005002002080B586B000AF78600023FB60CA
:1044100000237B611F4800F053F80346002B32D184
:1044200007F10C0319461B4800F0D9F81A4BDB685A
:10443000002B2AD0184BDB68FA680832802110461E
:1044400098470346FB74FB7C002B16D0FB68FA7C74
:1044500083F88820FB681846FFF791FD0346002B80
:1044600005D1FB6819460D4800F072F80DE0FB68B5
:104470001946084800F046F807E0FB681946054869
:1044800000F040F801E001237B617B691846183792
:10449000BD4680BD500200201C05002058020020AF
:1044A00080B483B000AF78607B687A681A607B68FC
:1044B0007A685A6000BF0C37BD465DF8047B7047D0
:1044C00080B487B000AF7860EFF31083FB60FB68C7
:1044D0003B6172B600BF7B681B687A689A4202D162
:1044E0000123FB7501E00023FB753B69BB60BB68E2
:1044F00083F3108800BFFB7D18461C37BD465DF86E
:10450000047B704780B487B000AF78603960EFF308
:104510001083FB60FB687B6172B600BF7B681A6822
:104520003B681A603B687A685A607B683A681A6030
:104530003B681B683A685A607B693B613B6983F35F
:10454000108800BF00BF1C37BD465DF8047B704774
:1045500080B487B000AF78603960EFF31083FB6000
:10456000FB687B6172B600BF3B687A681A607B6843
:104570005A683B685A607B683A685A603B685B6877
:104580003A681A607B693B613B6983F3108800BF1E
:1045900000BF1C37BD465DF8047B704780B487B010
:1045A00000AF7860EFF31083FB60FB687B6172B64D
:1045B00000BF7B685B687A6812681A607B681B685A
:1045C0007A6852685A607B693B613B6983F3108863
:1045D00000BF00BF1C37BD465DF8047B704780B547
:1045E00086B000AF78603960EFF31083FB60FB6842
:1045F0007B6172B600BF7B681A683B681A607B6893
:104600001B681846FFF7CAFF3B681B6800221A6048
:104610003B681B6800225A607B693B613B6983F3FE
:10462000108800BF00BF1837BD4680BD80B586B07A
:1046300000AF78603960EFF31083FB60FB687B614B
:1046400072B600BF7B685A683B681A607B685B681B
:104650001846FFF7A3FF3B681B6800221A603B68FF
:104660001B6800225A607B693B613B6983F31088B9
:1046700000BF00BF1837BD4680BD80B489B000AF11
:1046800078600023FB61EFF310833B613B697B6142
:1046900072B600BF7B681B68BB6105E0FB69013334
:1046A000FB61BB691B68BB61BA697B689A42F5D143
:1046B0007B69FB60FB6883F3108800BFFB691846C9
:1046C0002437BD465DF8047B70470000164B10B5DB
:1046D0001C68236BB3B9182000F02EFA0246206341
:1046E00020B9124B1248522100F0BEF91149124B69
:1046F000C0E90013114B83600B238381002101204B
:10470000C2E90401216B0E480B694C690D4A5843FC
:1047100002FB0400A3FB0232013340EB0200C1E9BB
:10472000043020F0004010BD1C0000201857000885
:104730002F5700080E33CDAB34126DE6ECDE0500CA
:104740002DF451582D7F954C002310B50446C0E937
:104750000033C0E90433836081814366C281836191
:10476000194608225C3000F0F4F80D4B63620D4BE3
:10477000A3620D4BE3620D4B23630D4B24629C42FD
:1047800006D003F16802944202D0D0339C4205D196
:1047900004F15800BDE8104000F054B910BD00BF4E
:1047A000CD480008EF480008274900084B49000899
:1047B0003C050020024A0349034800F069B800BFE5
:1047C00010000020AD4D00082000002041680C4B77
:1047D000994210B5044601D000F0E8FAA168094BEF
:1047E000994202D0204600F0E1FAE168064B994276
:1047F00004D02046BDE8104000F0D8BA10BD00BF7C
:104800003C050020A40500200C06002010B50B4B31
:104810000B4C0C4A1A60204600220421FFF794FF3B
:1048200004F1680001220921FFF78EFF04F1D00096
:104830000222BDE810401221FFF786BF7406002057
:104840003C050020B5470008014800F0FCB800BF57
:104850007D060020014800F0F7B800BF7D0600206B
:1048600010B50446FFF7F0FF236A1BB1BDE8104006
:10487000FFF7F0BF044B2362044B1B68002BF5D1FC
:10488000FFF7C4FFF2E700BFCD4700087406002021
:104890002DE9F8430746884614460026D4E90195D9
:1048A000B9F1010905D52468002CF7D13046BDE8DF
:1048B000F883AB89012B07D9B5F90E30013303D04A
:1048C00029463846C04706436835E9E710B50C4627
:1048D000B1F90E1000F068F80028ABBF636DA38932
:1048E0001B1823F48053ACBF6365A38110BD2DE971
:1048F000F0411F468B89DB0505460C46164605D55B
:10490000B1F90E100223002200F03CF8A389B4F99B
:104910000E1023F48053A38132463B462846BDE85F
:10492000F04100F053B810B50C46B1F90E1000F08C
:1049300029F8431CA38915BF606523F4805343F411
:104940008053A38118BFA38110BDB1F90E1000F0F0
:1049500009B802440346934200D1704703F8011B93
:10496000F9E7000038B5064D0023044608462B60E1
:10497000FCF7CAFD431C02D12B6803B1236038BD8C
:104980007806002038B5074D044608461146002237
:104990002A601A46FCF7DFFD431C02D12B6803B1E5
:1049A000236038BD7806002038B5074D0446084618
:1049B000114600222A601A46FCF76DFD431C02D105
:1049C0002B6803B1236038BD7806002038B5074D49
:1049D00004460846114600222A601A46FCF778FD74
:1049E000431C02D12B6803B1236038BD7806002038
:1049F000014B1868704700BF1C00002070B50D4DBA
:104A00000D4C641BA4100026A64209D10B4D0C4C82
:104A100000F046FE641BA4100026A64205D170BD1E
:104A200055F8043B98470136EEE755F8043B9847A4
:104A30000136F2E700580008005800080058000846
:104A4000045800087047704770470A44914200F1CB
:104A5000FF3300D1704710B511F8014B03F8014F37
:104A60009142F9D110BD00001FB514461A46094BFA
:104A70001B680546D8684CB1074B0091CDE901345D
:104A800006492B4600F0BAF900F0DAF9044B1C464F
:104A9000F3E700BF1C000020875700089457000868
:104AA000C257000838B50546002941D051F8043CEA
:104AB0000C1F002BB8BFE41800F0E8F81D4A13687B
:104AC00033B9636014602846BDE8384000F0E4B8AC
:104AD000A34208D9206821188B4201BF19685B687E
:104AE00009182160EDE71A465B680BB1A342FAD9B9
:104AF00011685018A0420BD120680144501883421D
:104B00001160E0D118685B68536008441060DAE710
:104B100002D90C232B60D6E7206821188B4204BFF2
:104B200019685B68636004BF091821605460CAE7B4
:104B300038BD00BF84060020024B0146186800F013
:104B400025B800BF1C00002070B50F4E0C46316820
:104B5000054611B900F064F930602146284600F09E
:104B60005FF9431C03D14FF0FF34204670BDC41CD5
:104B700024F00304A042F8D0211A284600F050F98E
:104B80000130F2D1EFE700BF800600202DE9F843A5
:104B9000CD1C25F0030508350C2D38BF0C25002D44
:104BA000064601DBA94204D90C2333600020BDE88E
:104BB000F883DFF8D48000F069F8D8F800301C469C
:104BC00044BB29463046FFF7BFFF431C044658D17B
:104BD000D8F800402746002F43D1002C4BD0236843
:104BE0003946304604EB030900F01AF9814542D1F9
:104BF00021686D1A29463046FFF7A6FF01303AD0EA
:104C000023682B442360D8F800305A6862BBC8F888
:104C100000700FE02268521B20D40B2A17D96119AB
:104C2000A342256018BF5960636808BFC8F8001028
:104C300062514B60304600F02FF804F10B00231D49
:104C400020F00700C21A1CBF1B1AA350AFE762680E
:104C5000A3420CBFC8F800205A60EBE72346646803
:104C6000AEE73C467F68B6E71A465B68A342FBD1D5
:104C700000235360DEE70C233360304600F00CF86D
:104C800094E70560D6E700BF840600200148FFF7DF
:104C9000DABE00BF7C0600200148FFF7D5BE00BF8A
:104CA0007C060020B1F90C202DE9F04116070546DD
:104CB0000C4654D44B68002B02DC0B6C002B48DDF7
:104CC000E66A002E45D0002312F480522F68216A34
:104CD0002B6030D0626DA389590705D56368D21A5D
:104CE000636B0BB1236CD21A0023E66A216A284653
:104CF000B047431CA38906D129681D292BD82A4A0D
:104D0000CA40D60727D500226260D90422692260F2
:104D100004D5421C01D12B6803B96065616B2F601B
:104D2000B9B104F14403994202D02846FFF7BAFE14
:104D3000002363630DE001232846B0470246501C60
:104D4000C9D12B68002BC6D01D2B01D0162B1ED12C
:104D50002F60002022E043F040031BB21BE00F69EC
:104D6000002FF6D093070E6808BF4B690F6018BF7D
:104D70000023A6EB07088B60B8F1000FE9DD216A7C
:104D8000A66A43463A462846B047002808DCB4F9EC
:104D90000C3043F04003A3814FF0FF30BDE8F081B9
:104DA0000744A8EB0008E7E70100402038B50B698D
:104DB00005460C4613B90025284638BD18B1036ACC
:104DC0000BB9FFF74DFDB4F90C30002BF3D0626E38
:104DD000D00704D4990502D4A06DFFF734FE28460D
:104DE0002146FFF75FFF636EDA070546E4D4A38927
:104DF0009B05E1D4A06DFFF727FEDDE70EB403B5F8
:104E0000014603AB054853F8042B0068019300F0FA
:104E100047F802B05DF804EB03B070471C000020B7
:104E200038B5064D0023044608462B60FCF7A0FB6E
:104E3000431C02D12B6803B1236038BD78060020E3
:104E400008B5062000F08CFB0120FCF719FB9368E5
:104E5000013B002B10B4936008DA9469A34201DB94
:104E60000A2903D15DF8044B00F0BEBA1368581C40
:104E70001060197008465DF8044B7047F8B5064697
:104E80000F461446D518AC4201D1002007E014F8B3
:104E9000011B3A463046FFF7DAFF431CF3D1F8BD59
:104EA0002DE9F04F0D469DB014469846064618B1C0
:104EB000036A0BB9FFF7D4FC6B6ED90705D4AB8935
:104EC0009A0502D4A86DFFF7BEFDAB891B0701D57B
:104ED0002B699BB92946304600F0C4FA70B16B6E5D
:104EE000DC0704D54FF0FF301DB0BDE8F08FAB8973
:104EF0009805F7D4A86DFFF7A7FDF3E70023099302
:104F000020238DF82930CDF80C803023DFF8AC81D8
:104F10008DF82A304FF0010923469A4613F8012BE9
:104F20000AB1252AF9D1BAEB040B0BD05B46224615
:104F300029463046FFF7A2FF013000F0A780099A0A
:104F40005A4409929AF80030002B00F09F80002309
:104F50004FF0FF32CDE905230AF1010A04930793CC
:104F60008DF853301A935446052214F8011B534808
:104F7000FBF736F9049AD8B9D10644BF20238DF83F
:104F80005330130744BF2B238DF853309AF8003069
:104F90002A2B15D0079A544600204FF00A0C2146C0
:104FA00011F8013B303B092B4BD9B0B1079214E00B
:104FB000A0EB080309FA03F313430493A246D2E7D4
:104FC000039B191D1B680391002BBBBF5B4242F082
:104FD000020207930793B8BF049223782E2B0AD1BD
:104FE00063782A2B32D1039B1A1D1B68039243EA74
:104FF000E37302340593DFF8D4A0217803225046EE
:10500000FBF7EEF838B1049BA0EB0A004022824087
:1050100013430134049314F8011B29488DF8281018
:105020000622FBF7DDF800283FD0264B1BBB039B75
:10503000073323F0070308330393099B3B44099389
:105040006AE70CFB02320C460120A8E7002301347A
:10505000059319464FF00A0C204610F8012B303A00
:10506000092A03D9002BC6D00591C4E70CFB012106
:1050700004460123F0E703AB00932A46124B04A930
:105080003046AFF300800746781CD6D16B6ED90747
:1050900005D4AB899A0502D4A86DFFF7D5FCAB897E
:1050A0005B063FF51FAF09981EE703AB00932A4646
:1050B000054B04A9304600F079F8E4E7C35700082F
:1050C000CD570008000000007D4E0008C9570008B9
:1050D0002DE9F047164698468A680B69DDF820905E
:1050E0009342B8BF1346336091F8432007460C46FD
:1050F0000AB1013333602368990642BF3368023333
:105100003360256815F0060506D104F1190AE36835
:1051100032689B1AAB4226DC94F843302268003B8D
:1051200018BF012392062BD404F1430241463846AE
:10513000C84701301ED02368226903F00603042B00
:1051400002BFE5683368ED1AA3680CBF25EAE57570
:1051500000259342C4BF9B1AED1800261A34B542AD
:105160001AD1002008E00123524641463846C8477C
:10517000013003D14FF0FF30BDE8F0870135C6E7BD
:10518000E1185A1C302081F84300224494F845105D
:1051900082F843100233C7E70123224641463846CE
:1051A000C8470130E6D00136D9E700002DE9FF47B6
:1051B0000F7E0C9E782F914680460C469A4601F150
:1051C000430207D8622F0AD8002F00F0D180582F51
:1051D00000F0B88004F1420684F842703AE0A7F18A
:1051E0006303152BF6D801A151F823F045520008AE
:1051F00059520008D5510008D5510008D551000872
:10520000D551000859520008D5510008D551000861
:10521000D5510008D55100085753000883520008A3
:1052200011530008D5510008D551000879530008E2
:10523000D551000883520008D5510008D551000807
:105240001953000833681A1D1B68326004F14206C6
:1052500084F8423001239CE033682068191D3160D6
:10526000060601D51D6803E04506FBD5B3F90050DD
:10527000002D03DA2D236D4284F8433058480A2369
:1052800011E021683368080653F8045B02D449062C
:1052900048BFADB26F2F5248336014BF0A230823B2
:1052A000002184F843106668A660002E05DB2168A3
:1052B0002E4321F0040121604BD01646B5FBF3F1DB
:1052C00003FB1157C75D06F8017D2F46BB420D4613
:1052D000F4D9082B0BD12368DF0708D5236961684F
:1052E0009942DEBF302306F8013C06F1FF36921BDF
:1052F0002261CDF800A04B4603AA21464046FFF7A5
:10530000E7FE01304AD14FF0FF3004B0BDE8F0872E
:10531000236843F0200323603248782784F84570DF
:10532000236831681F0651F8045B02D45F0648BF4A
:10533000ADB23160D90744BF43F0200323601DB1F3
:105340001023ADE72648E9E7236823F02003236014
:10535000F6E71646BDE7336825686169181D3060B9
:105360002E061B6801D5196002E06806FBD519807E
:10537000002323611646BCE733681A1D32601E689D
:10538000626800213046FAF72BFF08B1801B60608D
:1053900063682361002384F84330AAE72369324617
:1053A00049464046D0470130ADD023689B0713D40F
:1053B000E068039B9842B8BF1846A6E7012332462F
:1053C00049464046D04701309DD00135E3680399F6
:1053D0005B1AAB42F2DCEBE7002504F11906F5E7B6
:1053E000D4570008E5570008F8B50E4614460546A0
:1053F00018B1036A0BB9FFF733FAA369A360A38955
:105400001A0701D5236943B92146284600F02AF836
:1054100018B14FF0FF373846F8BD23682269981A53
:105420006369F6B28342374605DC21462846FFF71A
:10543000BDFC0028EDD1A368013BA36023685A1C82
:1054400022601E706269431C9A4204D0A389DB0764
:10545000E1D50A2EDFD121462846FFF7A7FC002818
:10546000D9D0D6E738B5294B054618680C4618B18F
:10547000036A0BB9FFF7F4F9B4F90C30190722D419
:10548000DA0607D409222A6043F04003A3814FF0D3
:10549000FF3033E0580712D5616B41B104F144038A
:1054A000994202D02846FFF7FDFA00236363A389DF
:1054B00023F02403A3810023636023692360A3896D
:1054C00043F00803A38123694BB9A38903F4207334
:1054D000B3F5007F03D02146284600F083F8B4F9E5
:1054E0000C3013F001020AD00022A260626952421D
:1054F000A261226942B913F08000C5D138BD990775
:1055000058BF6269A260F4E70020F7E71C000020A2
:105510001F2938B505460C4604D9162303604FF001
:10552000FF3038BDC26B12B152F821304BB928465A
:1055300000F030F8224601462846BDE8384000F029
:1055400017B8012B0AD0591C03D116230360012080
:10555000E7E7002142F82410204698470020E0E7C2
:10556000024B01461868FFF7D3BF00BF1C000020A4
:1055700038B5074D00230446084611462B60FBF75B
:105580006FFF431C02D12B6803B1236038BD00BFFD
:1055900078060020FBF75CBF70B50C46B1F90E1021
:1055A000002996B015461E460DDAA38913F0800F28
:1055B0004FF0000114BF40234FF48063002031609E
:1055C0002B6016B070BD6A4600F048F80028ECDB8E
:1055D000019901F47041A1F50053594259414FF42A
:1055E0008063EBE78B89F7B59D0706460C4607D528
:1055F00004F14703236023610123636103B0F0BD1D
:1056000001AB6A46FFF7C8FF009F054639463046A2
:10561000FFF7BCFA48B9B4F90C309A05EED423F080
:10562000030343F00203A381E2E7A389206043F070
:105630008003A381019BC4E904075BB1B4F90E1098
:10564000304600F01DF828B1A38923F0030343F08E
:105650000103A381A3891D43A581CFE738B5074D79
:1056600000230446084611462B60FBF759FF431CF4
:1056700002D12B6803B1236038BD00BF780600203B
:1056800038B5064D0023044608462B60FBF758FF4B
:10569000431C02D12B6803B1236038BD780600207B
:1056A000F8B500BFF8BC08BC9E467047F8B500BF0F
:0856B000F8BC08BC9E467047DF
:1056B8009ECADC240EE5A9E093F3A3B50100406E71
:1056C8009ECADC240EE5A9E093F3A3B50200406E60
:1056D8009ECADC240EE5A9E093F3A3B50300406E4F
:1056E80009554152542D424C4500000042507072F9
:1056F80065737365640A0D00000000000000000077
:10570800010203040607080900000000010203045F
:105718005245454E54206D616C6C6F632073756300
:10572800636565646564002F6275696C642F676ED4
:10573800752D746F6F6C732D666F722D73746D3366
:10574800325F31332E332E72656C312E3230323463
:10575800303932362D313731352F7372632F6E65FC
:10576800776C69622F6E65776C69622F6C6962630A
:105778002F7374646C69622F72616E642E63002CDF
:105788002066756E6374696F6E3A20006173736585
:105798007274696F6E2022257322206661696C65B8
:1057A800643A2066696C6520222573222C206C6976
:1057B8006E65202564257325730A00232D302B2060
:1057C80000686C4C006566674546470030313233E7
:1057D8003435363738394142434445460030313252
:1057E80033343536373839616263646566000000E2
:0857F800E8A9FF7F0100000099
:04580000C5010008D6
:04580400A1010008F6
:10580800010101000024F400100000000100000064
:1058180000000000030000003C05002020000020DC
:10582800000000003C050020A40500200C06002014
:105838000000000000000000000000000000000060
:105848000000000000000000000000000000000050
:105858000000000000000000000000000000000040
:0C58680000000000000000000000000034
:0400000508001601D8
:00000001FF
