:020000040800F2
:10000000000002204D1A0008611600086916000859
:10001000711600087916000881160008000000001B
:100020000000000000000000000000008916000829
:100030009716000800000000A5160008B316000877
:100040009D1A00089D1A00089D1A00089D1A0008B4
:100050009D1A00089D1A0008C11600089D1A000884
:100060009D1A00089D1A00089D1A00089D1A000894
:100070009D1A00089D1A00089D1A00089D1A000884
:100080009D1A00089D1A00089D1A00080000000033
:100090000000000000000000000000009D1A0008A1
:1000A0009D1A00089D1A00089D1A00089D1A000854
:1000B0009D1A00089D1A00089D1A00089D1A000844
:1000C0009D1A00089D1A00089D1A00089D1A000834
:1000D0009D1A00089D1A00089D1A000800000000E3
:1000E000D51600089D1A00089D1A0008000000009F
:1000F0000000000000000000000000009D1A000841
:10010000000000009D1A00089D1A00089D1A0008B2
:1001100000000000000000000000000000000000DF
:100120009D1A00089D1A00089D1A00089D1A0008D3
:100130009D1A000800000000000000000000000000
:100140000000000000000000000000009D1A0008F0
:100150009D1A00089D1A00089D1A00089D1A0008A3
:100160009D1A00089D1A0008000000000000000011
:10017000000000000000000000000000000000007F
:10018000000000009D1A00080000000000000000B0
:080190009D1A00089D1A0008E9
:1001A00010B5054C237833B9044B13B10448AFF3B1
:1001B00000800123237010BD80000020000000009B
:1001C000586A000808B5034B1BB103490348AFF355
:1001D000008008BD0000000084000020586A00086C
:1001E00001F0FF01102A2BDB10F0070F08D010F8E8
:1001F000013B013A8B422DD010F0070F42B3F6D1EC
:10020000F0B441EA012141EA014122F007047FF004
:1002100000070023F0E80256083C85EA010586EA5B
:10022000010685FA47F5A3FA87F586FA47F6A5FA97
:1002300087F68EB9EED1F0BC01F0FF0102F00702A3
:1002400032B110F8013B013A83EA010313B1F8D14E
:100250000020704701387047002D06BF354603382F
:10026000073815F0010F07D1013015F4807F02BF68
:10027000013015F4C03F0130F0BC0138704700BFB9
:1002800053B94AB9002908BF00281CBF4FF0FF31FD
:100290004FF0FF3000F088B9ADF1080C6DE904CEE5
:1002A00000F006F8DDF804E0DDE9022304B0704751
:1002B0002DE9F047089D8E4604468846002B4AD11A
:1002C0008A42174662D9B2FA82F64EB1C6F12003CD
:1002D00001FA06F820FA03F3B74043EA0808B440ED
:1002E0004FEA174E1FFA87FCB8FBFEF1230C0EFBFA
:1002F000118843EA084301FB0CF29A4209D9FB1822
:1003000001F1FF3080F0EA809A4240F2E780023942
:100310003B449A1AA3B2B2FBFEF00EFB102243EA52
:10032000024300FB0CFC9C4509D9FB1800F1FF328D
:1003300080F0D6809C4540F2D3803B44023840EAAE
:100340000140A3EB0C0300211DB1F3400022C5E9DD
:100350000032BDE8F0878B4205D90DB1C5E9000137
:1003600000210846F5E7B3FA83F1002946D1734529
:1003700002D3824200F20581841A6EEB030201204F
:100380009046002DE5D0C5E90048E2E7002A00F0DC
:100390009080B2FA82F6002E40F0A4808A1A030CF4
:1003A0004FEA174E80B2BCB20121B2FBFEFC0EFB3D
:1003B0001C2243EA024304FB0CF29A4207D9FB18C1
:1003C0000CF1FF3802D29A4200F2E080C4469B1A38
:1003D000B3FBFEF20EFB123340EA034302FB04F4CC
:1003E0009C4207D9FB1802F1FF3002D29C4200F276
:1003F000CA8002461B1B42EA0C40A5E7C1F1200659
:100400008B4022FA06F71F430EFA01F420FA06F396
:100410002EFA06FE4FEA1749234300FA01F81FFAA5
:1004200087FCBEFBF9F01C0C09FB10EE44EA0E44FD
:1004300000FB0CFEA64502FA01F209D93C1900F1B5
:10044000FF3A80F09C80A64540F2998002383C44F7
:10045000A4EB0E041FFA83FEB4FBF9F309FB13446B
:100460004EEA044403FB0CFCA44508D93C1903F1F3
:10047000FF3E80F08280A4457FD9023B3C4443EAA2
:100480000040A4EB0C04A0FB02EC64457346E1467B
:1004900062D35FD05DB1B8EB030264EB090404FAE8
:1004A00006F622FA01F31E43CC40C5E900640021A0
:1004B0004FE7B1FBF2FC010C41EA0E4180B240EA89
:1004C00001423B4638463C46B846BE462026B1FB74
:1004D000F7F1A2EB080241EA0C4166E7014618E792
:1004E00010462CE7C6F120022EFA02F3B740B140C5
:1004F00020FA02F24FEA174E0A43B3FBFEF8BCB2F1
:100500000EFB1833110C41EA034108FB04F9B0401B
:1005100089454FEA104380B23ED9791808F1FF3C73
:1005200001D289451FD8A1EB0901B1FBFEF909FBF6
:1005300004F80EFB191192B242EA0142424529D257
:10054000BA1809F1FF31C4D24245C2D2A9F1020161
:100550003A44BEE7F0459DD2BEEB02036CEB070CBC
:100560000138E14696E7A7EB09094944A8F1020CD6
:10057000B1FBFEF909FB04F8DBE773467FE7504661
:1005800066E70846FDE63B44023A33E7ACF1020C6D
:100590003B441CE749469CE7A1EB0901C446B1FB7B
:1005A000FEF909FB04F8C4E7704700BF80B58EB0C0
:1005B00004AF734A07F11C0392E803001860043388
:1005C0001980704A07F1140392E80300186004339D
:1005D000198000F0FDF8002001F04CFB0346DAB270
:1005E000694B1A700021694804F042FFBA1C7B1D58
:1005F0001146184604F0B0FD04F0F0FD642001F04F
:10060000DDFC7B7919467B881A46614805F0BCFB06
:100610007B79302B02D95F4B01221A705E4B1B781D
:10062000002B09D107F10C0307F11C0292E803002B
:1006300018600433198008E007F10C0307F1140275
:1006400092E8030018600433198007F10C031A467E
:100650000621002004F0EAFC03467B627B6A002B43
:1006600003D0796A4D4805F08FFB04F08AF9034600
:100670007B627B6A002B02D0494805F0F5FB464BB4
:100680001B78012B1ED1434B1B78012B0FD107F197
:100690000A02BB1D019307F10803009313460722CA
:1006A0000021012003F03EFF03467B6228E0BB1DD2
:1006B00007F1080207F10A01012003F083FF034656
:1006C0007B621DE0334B1B78012B0FD107F10A022F
:1006D000BB1D019307F10803009313460722002175
:1006E000042003F01FFF03467B6209E0BB1D07F1F6
:1006F000080207F10A01032003F064FF03467B624E
:100700007B6A002B02D0274805F0AEFB0123039340
:10071000254B02930023019310230093072300220B
:100720000021012004F082F803467B627B6A002BE3
:1007300002D11E4805F098FB174B1B78012B11D1F5
:100740001B4805F091FB00F0F1F803467B627B6AE1
:10075000002B03D1174805F087FB06E0164805F08B
:1007600083FB02E0154805F07FFB0421012004F023
:10077000C2FC03467B6200BF2837BD4680BD00BF78
:100780005C6B0008646B0008000000201D0E000870
:10079000706A00089C00002001000020846A0008A4
:1007A000A46A0008B86A000840E20100CC6A0008A8
:1007B000E46A0008046B0008206B00083C6B00082A
:1007C00080B500AF00F012F804F0CCFF00BF80BD90
:1007D00080B500AF0121002001F0F8F9002001F000
:1007E0005FF9002001F0A8FA00BF80BDB0B586B067
:1007F00000AF3D4B1B78DBB2002B0BD000F018F99B
:10080000394B00221A70002001F034FA0346DAB2A4
:10081000364B1A70364B1B78002B2ED1354B1B688C
:10082000002B07D0344B1B78DBB2002B02D100F039
:1008300075F90AE02F4B1B68002B06D02F4B1B7855
:10084000DBB2002B01D100F093F92A4B1B68002B7F
:1008500013D0294B1B78DBB2002B0ED0274B1B7813
:10086000DBB2002B09D0264B1B78DBB2002B04D166
:10087000002001F03DF900F0FBF9224B1B78DBB2C0
:10088000002B2CD0322001F099FB00BF002001F09A
:10089000F1F90246154B1B78DBB2002B0CBF01238C
:1008A0000023DBB29A42F1D0322001F087FB114BDA
:1008B0001B68002B10D0124B1B78DBB2002B0BD027
:1008C000114B3C1D1D460FCD0FC42B6823603B1DF3
:1008D0001421184600F09CF90A4B00221A7000BF40
:1008E0001837BD46B0BD00BF020000200000002048
:1008F00001000020A0000020A9000020AA00002084
:10090000A60000209D0000206C6B000880B483B01E
:1009100000AF0346FB71044B01221A7000BF0C3775
:10092000BD465DF8047B70479D00002090B595B0F2
:1009300006AF374B07F124040FCB84E80F00354B8B
:1009400007F114040FCB84E80F00334B3C1D0FCB91
:1009500084E80F0007F12401304B009307230122A4
:10096000022004F031F8034687F8373097F8373023
:10097000002B3FD1294B188807F11402284B05930F
:100980000123049310230393002302930023019374
:10099000102300931423022104F09FF8034687F8E4
:1009A000373097F83730002B26D11C4B18883A1D6A
:1009B0001C4B0593012304931023039301230293FB
:1009C000002301930C2300931423022104F085F8E3
:1009D000034687F8373097F83730002B0ED1104B8D
:1009E0001B8819460F4B1B881A460F4805F0CCF997
:1009F000002308E000BF02E000BF00E000BF0B489A
:100A000005F032FA472318463C37BD4690BD00BF7B
:100A1000E46B0008F46B0008046C0008B0000020D0
:100A2000B2000020B4000020806B0008C06B0008FA
:100A300090B58FB008AF324B1B78002B32D13148C4
:100A400005F012FA304A07F1100392E8030018602B
:100A500004331980002001F035F807F110034FF43A
:100A6000FA6206924FF4FA6205923C220492002246
:100A70000392282202922822019200220092002250
:100A80004FF480414FF4804003F027FF0346FB758D
:100A9000FB7D002B2FD01D4805F0E6F9642001F006
:100AA0008DFA28E01A4B3C460FCB07C42370002177
:100AB000002004F0FFFB174805F066F900230693B9
:100AC0000023059300230493002303933B460293E2
:100AD0000D2301930023009300234FF480524FF421
:100AE0000061002003F0B8FD0346FB75FB7D19464D
:100AF000094805F049F900BF1C37BD4690BD00BF4D
:100B000001000020146C0008746C0008306C0008B0
:100B10007C6C0008546C0008706C000890B587B0BD
:100B200002AF0F4B1B78DBB2002B15D10D4805F03F
:100B30009BF90D4B3C460FCB84E80F000B4B1B88F9
:100B400098B23B46009302234FF6FF72012104F056
:100B50001FF9034B01221A7000BF1437BD4690BD28
:100B6000A70000208C6C0008F46B0008A400002093
:100B700090B587B002AF0F4B1B78DBB2002B15D1BD
:100B80000D4805F071F90D4B3C460FCB84E80F0082
:100B90000B4B1B8898B23B46009302234FF6FF7223
:100BA000012104F0F5F8034B01221A7000BF14373D
:100BB000BD4690BDA8000020AC6C0008046C000885
:100BC000A400002080B584B000AF78600B46FB70B5
:100BD000002000F0A3FF0023FB6009E0FB687A68B7
:100BE00013441B78184605F0E1F8FB680133FB60FD
:100BF000FB78FA689A42F1DB044B1B689B68184645
:100C000004F0ECFF00BF1037BD4680BD300000206F
:100C100080B584B002AF78600B46FB700F4B1B7839
:100C2000012B0BD10E4B18880E4B1988FA787B6874
:100C300000931346002204F01BF80AE00A4B1B88BD
:100C400098B20A4B1B88013399B2FA787B6804F09A
:100C5000A8F900BF0837BD4680BD00BF01000020D5
:100C6000B0000020B2000020A4000020AE00002050
:100C700080B582B000AF01233B8001F093F978602A
:100C800008E001F08FF902467B68D31A42F2107235
:100C900093420ED80B4B1B8898B20B4B1B88023328
:100CA00099B23B46022204F001F90346462BE8D0F4
:100CB00000E000BF054B01221A7000BF0837BD4697
:100CC00080BD00BFA4000020AC000020A6000020D2
:100CD00080B582B000AF03463A60FB800B467B7163
:100CE000FA880E4B1B8801339A4205D17B7919464D
:100CF0003868FFF767FF0CE0FA88094B1B8802335E
:100D00009A4206D13B681B78012B02D1054B012288
:100D10001A7000BF0837BD4680BD00BFB400002078
:100D2000B2000020A600002080B584B000AF78603B
:100D30000B467B80114B01221A60114A7B8813807D
:100D4000104805F021F80523FB600AE0FB687A688B
:100D500013441B7819460C4805F016F8FB68013B54
:100D6000FB60FB68002BF1DC7B681B7819460748A9
:100D700005F00AF800BF1037BD4680BDA000002076
:100D8000A4000020CC6C0008E46C0008EC6C0008A7
:100D900080B500AF0C4B00221A600C4805F064F8D7
:100DA0000B4B01221A700B4B00221A700A4B0022C7
:100DB0001A700A4B00221A70094B00221A70094B54
:100DC00000221A7000BF80BDA0000020F46C000853
:100DD00002000020A6000020A7000020A80000209C
:100DE000A9000020AA00002080B582B000AF034611
:100DF0003A60FB800B467B71FA88074B1B880133F6
:100E00009A4204D17B7919463868FFF7DBFE00BFB0
:100E10000837BD4680BD00BFAC00002080B58CB057
:100E200000AF78607B68FB62FB6A0133BB62FB6AE0
:100E30001B78042B40F0E580BB6A1B78FF2B21D088
:100E4000FF2B00F3E380052B02D03E2B03D0DDE027
:100E5000FFF79EFFDAE0BB6A02333B613B691B7818
:100E6000012B40F0D0803B690133FB60FB685A1DC9
:100E7000FB68B3F801309BB219461046FFF754FFE8
:100E800000BFC0E0BB6A02337B627B6A1B889BB2F7
:100E9000A3F60143112B00F2B88001A252F823F00F
:100EA000E90E00080B1000080B1000080B100008DA
:100EB0000B1000080B1000080B1000080B100008A6
:100EC0000B1000080B1000080B1000080B10000896
:100ED0000B1000080B100008290F0008BB0F0008BA
:100EE0000B1000084B0F00084A4B1B78012B0DD14B
:100EF0007B6A02337B617B695B8898B27B69197975
:100F00007B6907331A46FFF7E3FE79E07B6A023319
:100F1000BB61BB695B8898B2BB691979BB69053352
:100F20001A46FFF7D5FE6BE07B6A0233FB61FB6973
:100F3000B3F8033098B2FB699B78023BD9B2FB69E6
:100F400005331A46FFF750FF5AE0334B1B78002B4E
:100F500053D1324804F088FF7B6A02333B62304B46
:100F60001B78DBB2002B11D02E4B1B78DBB2002B91
:100F70000CD13B6AB3F803309AB22B4B1A802A4B40
:100F80001B881946294804F0FFFE36E0284B1B78E1
:100F9000DBB2002B31D0274B1B78DBB2002B2CD1DE
:100FA0003B6AB3F803309AB2234B1A80224B1B885A
:100FB0001946224804F0E8FE1FE0174B1B78002B6F
:100FC0001DD1174B1B78DBB2002B08D0154B1B78BB
:100FD000DBB2002B03D1134B01221A700FE0144B2C
:100FE0001B78DBB2002B0AD0124B1B78DBB2002B34
:100FF00005D1104B01221A7001E000BF05E000BFCF
:1010000003E000BF02E000BF00E000BF3037BD4694
:1010100080BD00BF9C00002001000020046D00087E
:10102000A7000020A9000020AC000020306D0008BF
:10103000A8000020AA000020AE000020486D000893
:1010400080B588B000AF78600023BB601E4B1B6B7F
:101050001D4A43F0010313631B4B1B6B03F0010399
:10106000BB60BB680123FB604FF488133B61002326
:101070007B6107F10C031946144801F027F94FF47E
:101080008073FB6001233B6100237B610023BB6114
:1010900007F10C0319460D4801F018F90223FB6013
:1010A00001233B6100237B610023BB6107F10C033B
:1010B0001946064801F00AF900F016FB03461846E7
:1010C0002037BD4680BD00BF00380240000002400E
:1010D00080B500AF0121074801F07CFA02210548E4
:1010E00001F078FA4FF48071024801F073FA00239E
:1010F000184680BD0000024080B500AF01220221E9
:101100000B4801F063FB00224FF48071084801F0A6
:101110005DFB052000F052FF01224FF4807104486E
:1011200001F054FB052000F049FF0023184680BD64
:101130000000024080B588B000AF78600B467B802D
:1011400000237B77FF233B770B237B6100233B76D8
:1011500000220221214801F039FB07F10C0107F1BF
:1011600014030522184600F0EFFA3B7B022B2AD12C
:101170003B7C1BB21B021AB2FB7B1BB213431BB29C
:10118000FB83FB8B002B1ED0FA8B7B889A4201D904
:101190007B88FB8300237B7710E007F11B0107F1BD
:1011A0001C030122184600F0CFFA7B7F7A681344B3
:1011B000FA7ED2B21A707B7F01337B777B7F9BB242
:1011C000FA8B9A42E9D801220221044801F0FEFA82
:1011D0007B7F18462037BD4680BD00BF000002401F
:1011E00080B588B000AF78600B467B800A233B61F6
:1011F00000233B7500F0D6FEB8610023FB6100229E
:1012000002211C4801F0E2FA07F1080107F110037E
:101210000522184600F098FA3B7A022B0FD17B7A10
:101220001A467B88934206D87B881A46124978680A
:1012300000F08AFA06E06FF00103FB6102E04FF074
:10124000FF33FB61012202210A4801F0BFFA00F0DE
:10125000A9FE0246BB69D31A0F2B03D96FF0020314
:10126000FB6102E0FB69002BC7DBFB6918462037F6
:10127000BD4680BD00000240C000002080B500AF28
:101280000121054801F08AFA0346012B0CBF012316
:101290000023DBB2184680BD0000024080B588B054
:1012A00000AF134B7B60134BBB60134B7B61134B45
:1012B0003B61134BFB60134BFB613B1D184604F075
:1012C00019F94FF0C061104800F0C7FF0F4A002124
:1012D0000D4800F0A8FF00220021062000F06DFF5D
:1012E000062000F086FF00BF2037BD4680BD00BF4E
:1012F00041100008D1100008E11100083511000864
:10130000F910000889170008B80000201113000820
:1013100080B500AF05E0002004F050FA0346002B32
:1013200005D1FFF7ABFF0346002BF4D100E000BF6F
:1013300080BD80B500AF00F0CFFD00F009F800F0EF
:10134000C1F800F06FF8FFF731F9FFF739FAFCE761
:1013500080B594B000AF07F1200330220021184679
:1013600004F062FE07F10C0300221A605A609A60D2
:10137000DA601A610023BB60284B1B6C274A43F0DC
:1013800080531364254B1B6C03F08053BB60BB6818
:1013900000237B60224B1B68214A43F440431360C7
:1013A0001F4B1B6803F440437B607B6802233B6256
:1013B0000123FB6210233B630223BB630023FB6317
:1013C00010233B644FF4A8737B640423BB640423A1
:1013D000FB6407F12003184601F02CFA0346002BAA
:1013E00001D000F0EDF80F23FB6002233B610023E6
:1013F0007B614FF48053BB610023FB6107F10C0359
:101400000221184601F08EFC0346002B01D000F0AB
:10141000D7F800BF5037BD4680BD00BF003802403E
:101420000070004080B586B000AF07F108030022CD
:101430001A605A609A60DA603B4600221A605A606D
:101440001E4B1F4A1A601D4B00225A601B4B002284
:101450009A601A4B4FF6FF72DA60184B00221A613D
:10146000164B00225A61154B00229A61134802F074
:101470009FF90346002B01D000F0A2F84FF48053EF
:10148000BB6007F1080319460C4802F0E0F9034677
:10149000002B01D000F094F800233B6000237B6018
:1014A0003B461946054802F0B9FB0346002B01D024
:1014B00000F086F800BF1837BD4680BDC00100208F
:1014C0000000014080B58AB000AF07F1140300228C
:1014D0001A605A609A60DA601A6100233B61364BE9
:1014E0001B6B354A43F004031363334B1B6B03F050
:1014F00004033B613B690023FB602F4B1B6B2E4AAF
:1015000043F0800313632C4B1B6B03F08003FB60E1
:10151000FB680023BB60284B1B6B274A43F0010389
:101520001363254B1B6B03F00103BB60BB680023F7
:101530007B60214B1B6B204A43F0020313631E4B5D
:101540001B6B03F002037B607B6800224FF4817108
:101550001A4801F03BF901237B614FF48813BB610A
:101560000023FB6107F114031946144800F0AEFE96
:101570004FF481737B610123BB610023FB61002376
:101580003B6207F1140319460C4800F09FFE00224D
:101590000021062000F011FE062000F02AFE0022A5
:1015A0000021282000F009FE282000F022FE00BFC4
:1015B0002837BD4680BD00BF003802400000024011
:1015C00080B400AF72B600BF00BFFDE780B582B047
:1015D00000AF00237B60104B5B6C0F4A43F48043E9
:1015E00053640D4B5B6C03F480437B607B6800238A
:1015F0003B60094B1B6C084A43F080531364064B55
:101600001B6C03F080533B603B68072000F0CAFD71
:1016100000BF0837BD4680BD0038024080B485B0A9
:1016200000AF78607B681B680B4A93420DD10023A2
:10163000FB600A4B5B6C094A43F001035364074BA0
:101640005B6C03F00103FB60FB6800BF1437BD4611
:101650005DF8047B704700BF000001400038024085
:1016600080B400AF00BFFDE780B400AF00BFFDE76E
:1016700080B400AF00BFFDE780B400AF00BFFDE75E
:1016800080B400AF00BFFDE780B400AF00BFBD462F
:101690005DF8047B704780B400AF00BFBD465DF8C5
:1016A000047B704780B400AF00BFBD465DF8047B8B
:1016B000704780B500AF00F061FC00BF80BD000046
:1016C00080B500AF024800F0DDFD00BF80BD00BF67
:1016D000B800002080B500AF024800F0D3FD00BF85
:1016E00080BD00BF1000002080B582B000AF002395
:1016F0007B60124B124A1A60124B1B685A1C11492C
:101700000A60002B14D10D4801F068FF0346002B3E
:101710000ED10A4800F07CF87B68002B08D10748FE
:1017200000F03AF80346002B02D06FF007037B600D
:101730007B6818460837BD4680BD00BF0802002000
:10174000003001406002002080B588B002AFF86030
:10175000B9601346FB8000237B61FB884FF4805205
:101760000092BA68F968074801F08FFD0346002B24
:1017700002D06FF005037B617B6918461837BD46C0
:1017800080BD00BF0802002080B500AF00F00AFC59
:101790000346184680BD000080B584B000AF786075
:1017A0000023FB737B68194A1A607B684FF48272CE
:1017B0005A607B6800229A607B680022DA607B684E
:1017C00000221A617B6800225A617B684FF4007224
:1017D0009A617B681822DA617B6800221A627B6852
:1017E00000225A627B6800229A627B680A22DA62CF
:1017F000786801F0B7FC0346002B01D00123FB738E
:10180000FB7B18461037BD4680BD00BF003001404D
:1018100080B58AB000AF786000233B612D4B5B6CD4
:101820002C4A43F4805353642A4B5B6C03F480537B
:101830003B613B690023FB60264B1B6B254A43F051
:1018400001031363234B1B6B03F00103FB60FB6875
:101850000023BB601F4B1B6B1E4A43F00203136344
:101860001C4B1B6B03F00203BB60BB6840237B6116
:101870000223BB610023FB6103233B6205237B62E0
:1018800007F114031946144800F020FD80237B6102
:101890000223BB610023FB6103233B6205237B62C0
:1018A00007F1140319460C4800F010FD08237B6172
:1018B0000223BB610023FB6103233B6205237B62A0
:1018C00007F114031946054800F000FD00BF283752
:1018D000BD4680BD003802400000024000040240C6
:1018E00080B586B000AFF860B9607A6000237B6194
:1018F0000AE0AFF300800146BB685A1CBA60CAB266
:101900001A707B6901337B617A697B689A42F0DBEC
:101910007B6818461837BD4680BD80B586B000AFDD
:10192000F860B9607A6000237B6109E0BB685A1CEB
:10193000BA601B78184600F06BFA7B6901337B6153
:101940007A697B689A42F1DB7B6818461837BD4696
:1019500080BD80B483B000AF78604FF0FF3318468D
:101960000C37BD465DF8047B704780B483B000AF90
:10197000786039603B684FF400525A600023184683
:101980000C37BD465DF8047B704780B483B000AF70
:101990007860012318460C37BD465DF8047B70471C
:1019A00080B485B000AFF860B9607A600023184653
:1019B0001437BD465DF8047B7047000080B586B0E3
:1019C00000AF7860144A154BD31A7B617B693B6189
:1019D000134B1B68002B02D1114B124A1A60104B9B
:1019E0001A687B6813443A699A4207D204F06AFB8A
:1019F00003460C221A604FF0FF3309E0084B1B68C6
:101A0000FB60074B1A687B681344054A1360FB6848
:101A100018461837BD4680BD0000022000040000B3
:101A200064020020F006002080B400AF064BD3F81B
:101A30008830054A43F47003C2F8883000BFBD46C1
:101A40005DF8047B704700BF00ED00E0DFF834D0A4
:101A5000FFF7EAFF0C480D490D4A002302E0D45875
:101A6000C4500433C4188C42F9D30A4A0A4C0023E8
:101A700001E013600432A242FBD304F029FBFFF71C
:101A800058FC704700000220000000208000002069
:101A9000D06D000880000020F0060020FEE7000066
:101AA00080B582B000AF0346FB71FB79044A52F85F
:101AB00023309847002318460837BD4680BD00BF35
:101AC000786D000880B582B000AF0346FB71FB79EA
:101AD000064A52F8233020210122184600F076FEF3
:101AE000002318460837BD4680BD00BF080000200F
:101AF00080B582B000AF0346FB71FB79064A52F80D
:101B0000233020210022184600F060FE00231846F2
:101B10000837BD4680BD00BF0800002080B582B0F8
:101B200000AF0346FB71FB79064A52F823302022AE
:101B30001146184600F063FE002318460837BD46DC
:101B400080BD00BF0800002080B588B000AF002332
:101B5000BB601C4B1B6B1B4A43F001031363194B07
:101B60001B6B03F00103BB60BB6807F10C03002291
:101B70001A605A609A60DA601A6100237B60114B28
:101B80001B6B104A43F0010313630E4B1B6B03F0F6
:101B900001037B607B68002220210B4800F016FEC9
:101BA0002023FB6001233B6100237B610023BB6199
:101BB00007F10C031946044800F088FB00BF2037EA
:101BC000BD4680BD003802400000024080B584B0B0
:101BD00000AF03460A46FB711346BB710023FB604E
:101BE000FB791F4A52F823309847BB79012B32D139
:101BF000FB79DB001B4A1A44FB791B4951F823305F
:101C00001946104600F029FB0346002B03D06FF065
:101C10000303FB601FE0FB79DB00124A9818FB7995
:101C2000124A52F823301A46002100F0FCFA03460B
:101C3000002B03D06FF00303FB600CE02820FB793E
:101C40000B4A52F823300022194600F0B6FA282336
:101C5000184600F0CEFAFB6818461037BD4680BD26
:101C60007C6D000810000020806D0008846D000865
:101C7000886D000880B582B000AF0346FB71FB7928
:101C8000094A52F823304FF400521146184600F02A
:101C900085FD0346002B0CBF01230023DBB2184651
:101CA0000837BD4680BD00BF0C00002080B500AFE6
:101CB0000020FEF72BFE00BF80BD000080B588B07D
:101CC00000AF0023BB601A4B1B6B194A43F004039F
:101CD0001363174B1B6B03F00403BB60BB6807F176
:101CE0000C0300221A605A609A60DA601A610023BD
:101CF0007B600F4B1B6B0E4A43F0040313630C4BCA
:101D00001B6B03F004037B607B684FF40053FB60A4
:101D10004FF404133B6100237B6107F10C03194668
:101D2000044800F0D3FA00BF2037BD4680BD00BF95
:101D3000003802400008024080B584B000AF03467E
:101D4000FB710023FB60FB79012B03D96FF00103CA
:101D5000FB6025E0FB79FA79144951F82310144807
:101D60001346DB001344DB0003441960FA79134681
:101D7000DB001344DB000E4A1344184600F064F8FD
:101D8000FA791346DB001344DB00094A1344184672
:101D900000F010F80346002B02D06FF00303FB6045
:101DA000FB6818461037BD4680BD00BF18000020F4
:101DB0006802002080B584B000AF78600023FB7318
:101DC0007B68124A1A607B684FF4E1325A607B6884
:101DD00000229A607B680022DA607B6800221A6128
:101DE0007B680C225A617B6800229A617B68002222
:101DF000DA61786801F080FF0346002B01D00123EF
:101E0000FB73FB7B18461037BD4680BD0044004085
:101E100080B582B000AF7860094B1B781A46134634
:101E2000DB001344DB00074A9818391D4FF47A731E
:101E3000012201F0BBFF7B6818460837BD4680BD14
:101E4000B00200206802002080B58AB000AF786040
:101E500000233B611E4B1B6C1D4A43F4003313648B
:101E60001B4B1B6C03F400333B613B690023FB609D
:101E7000174B1B6B164A43F001031363144B1B6B88
:101E800003F00103FB60FB6804237B610223BB6159
:101E90000023FB6103233B6207237B6207F11403EA
:101EA00019460C4800F012FA08237B610223BB613B
:101EB0000023FB6103233B6207237B6207F11403CA
:101EC0001946044800F002FA00BF2837BD4680BD1D
:101ED000003802400000024080B500AF0E4B1B6886
:101EE0000D4A43F4007313600B4B1B680A4A43F41A
:101EF00080631360084B1B68074A43F480731360C8
:101F0000032000F04FF9002000F008F8FFF75EFB17
:101F10000023184680BD00BF003C024080B582B05F
:101F200000AF7860124B1A68124B1B7819464FF4B9
:101F30007A73B3FBF1F3B2FBF3F3184600F067F9E1
:101F40000346002B01D001230EE07B680F2B0AD83B
:101F5000002279684FF0FF3000F02FF9064A7B68C5
:101F60001360002300E0012318460837BD4680BDFA
:101F700004000020200000201C00002080B400AFDE
:101F8000064B1B781A46064B1B681344044A136021
:101F900000BFBD465DF8047B704700BF20000020F5
:101FA000B402002080B400AF034B1B681846BD4646
:101FB0005DF8047B704700BFB402002080B584B098
:101FC00000AF7860FFF7EEFFB8607B68FB60FB68EE
:101FD000B3F1FF3F05D00A4B1B781A46FB68134448
:101FE000FB6000BFFFF7DEFF0246BB68D31AFA684A
:101FF0009A42F7D800BF00BF1037BD4680BD00BF72
:102000002000002080B485B000AF78607B6803F0CA
:102010000703FB600C4BDB68BB60BA684FF6FF033D
:102020001340BB60FB681A02BB68134343F0BF63F5
:1020300043F40033BB60044ABB68D36000BF14376D
:10204000BD465DF8047B704700ED00E080B400AF52
:10205000044BDB681B0A03F007031846BD465DF816
:10206000047B704700ED00E080B483B000AF03460E
:10207000FB7197F90730002B0BDBFB7903F01F0294
:10208000074997F907305B09012000FA02F241F88D
:10209000232000BF0C37BD465DF8047B704700BFAE
:1020A00000E100E080B483B000AF03463960FB710B
:1020B00097F90730002B0ADB3B68DAB20C4997F935
:1020C00007301201D2B20B4483F800230AE03B68C8
:1020D000DAB20849FB7903F00F03043B1201D2B2D4
:1020E0000B441A7600BF0C37BD465DF8047B704781
:1020F00000E100E000ED00E080B489B000AFF860DE
:10210000B9607A60FB6803F00703FB61FB69C3F108
:102110000703042B28BF0423BB61FB690433062B90
:1021200002D9FB69033B00E000237B614FF0FF32E3
:10213000BB6902FA03F3DA43BB681A407B699A4031
:102140004FF0FF317B6901FA03F3D9437B680B4001
:10215000134318462437BD465DF8047B70470000E2
:1021600080B582B000AF78607B68013BB3F1807FBF
:1021700001D301230FE00A4A7B68013B53600F2122
:102180004FF0FF30FFF78EFF054B00229A60044BA3
:1021900007221A60002318460837BD4680BD00BFDD
:1021A00010E000E080B582B000AF78607868FFF79B
:1021B00029FF00BF0837BD4680BD80B586B000AF9F
:1021C0000346B9607A60FB7300237B61FFF73EFF33
:1021D00078617A68B9687869FFF78EFF024697F9E7
:1021E0000F3011461846FFF75DFF00BF1837BD4698
:1021F00080BD80B582B000AF0346FB7197F9073010
:102200001846FFF731FF00BF0837BD4680BD80B5D7
:1022100082B000AF78607868FFF7A2FF03461846E7
:102220000837BD4680BD80B487B000AFF8600B466C
:102230007A60FB720023FB75FB7A002B03D1FB68ED
:102240007A685A6002E00123FB7500BFFB7D1846E7
:102250001C37BD465DF8047B704780B483B000AF87
:10226000786039607B68002B01D1012303E07B6833
:102270003A681A60002318460C37BD465DF8047BA7
:102280007047000080B584B000AF78607B681B6841
:1022900003F01F03012202FA03F3FB600A4B5B69A0
:1022A000FA681340BB60BB68002B09D0064AFB6884
:1022B00053617B685B68002B02D07B685B68984742
:1022C00000BF1037BD4680BD003C014080B489B0DE
:1022D00000AF7860396000237B6100233B610023FD
:1022E000BB610023FB6159E10122FB6902FA03F3A0
:1022F0007B613B681B687A6913403B613A697B6983
:102300009A4240F048813B685B6803F00303012B6D
:1023100005D03B685B6803F00303022B30D17B6878
:102320009B68BB61FB695B00032202FA03F3DB439A
:10233000BA691340BB613B68DA68FB695B0002FA6B
:1023400003F3BA691343BB617B68BA699A607B681F
:102350005B68BB610122FB6902FA03F3DB43BA69E4
:102360001340BB613B685B681B0903F00102FB691A
:1023700002FA03F3BA691343BB617B68BA695A6016
:102380003B685B6803F00303032B17D07B68DB68B3
:10239000BB61FB695B00032202FA03F3DB43BA690A
:1023A0001340BB613B689A68FB695B0002FA03F368
:1023B000BA691343BB617B68BA69DA603B685B68E2
:1023C00003F00303022B23D1FB69DA087B68083290
:1023D00053F82230BB61FB6903F007039B000F2217
:1023E00002FA03F3DB43BA691340BB613B681A6925
:1023F000FB6903F007039B0002FA03F3BA69134376
:10240000BB61FB69DA087B680832B96943F82210BE
:102410007B681B68BB61FB695B00032202FA03F364
:10242000DB43BA691340BB613B685B6803F003029E
:10243000FB695B0002FA03F3BA691343BB617B6873
:10244000BA691A603B685B6803F44033002B00F004
:10245000A2800023FB60574B5B6C564A43F48043D9
:102460005364544B5B6C03F48043FB60FB68524A3B
:10247000FB699B08023352F82330BB61FB6903F010
:1024800003039B000F2202FA03F3DB43BA691340F4
:10249000BB617B68494A934219D07B68484A9342A2
:1024A00013D07B68474A93420DD07B68464A9342DB
:1024B00007D07B68454A934201D1042308E00723F3
:1024C00006E0032304E0022302E0012300E00023EE
:1024D000FA6902F0030292009340BA691343BB61A8
:1024E0003549FB699B080233BA6941F82320384B10
:1024F0009B68BB613B69DB43BA691340BB613B68C6
:102500005B6803F48013002B03D0BA693B69134363
:10251000BB612F4ABB6993602D4BDB68BB613B6994
:10252000DB43BA691340BB613B685B6803F400138B
:10253000002B03D0BA693B691343BB61244ABB69D2
:10254000D360234B5B68BB613B69DB43BA691340D3
:10255000BB613B685B6803F40033002B03D0BA69AE
:102560003B691343BB611A4ABB695360184B1B6834
:10257000BB613B69DB43BA691340BB613B685B6885
:1025800003F48033002B03D0BA693B691343BB616A
:102590000F4ABB691360FB690133FB61FB690F2BB9
:1025A0007FF6A2AE00BF00BF2437BD465DF8047BB6
:1025B000704700BF00380240003801400000024070
:1025C0000004024000080240000C024000100240DB
:1025D000003C014080B487B000AF786039600023D0
:1025E0003B610023FB600023BB6000237B61BBE0F9
:1025F00001227B6902FA03F33B613A683B691340AD
:10260000FB60FA683B699A4240F0AB805C4A7B69A8
:102610009B08023352F82330BB607B6903F003034D
:102620009B000F2202FA03F3BA681340BB607B6879
:10263000544A934219D07B68534A934213D07B6823
:10264000524A93420DD07B68514A934207D07B682F
:10265000504A934201D1042308E0072306E00323F4
:1026600004E0022302E0012300E000237A6902F083
:10267000030292009340BA689A4232D1464B1A68DC
:10268000FB68DB43444913400B60434B5A68FB68CB
:10269000DB43414913404B603F4BDA68FB68DB4347
:1026A0003D491340CB603C4B9A68FB68DB433A4999
:1026B00013408B607B6903F003039B000F2202FA37
:1026C00003F3BB602E4A7B699B08023352F8231048
:1026D000BB68DA432A487B699B080A40023340F80A
:1026E00023207B681A687B695B00032101FA03F3EE
:1026F000DB431A407B681A607B69DA087B68083222
:1027000053F822107B6903F007039B000F2202FAA3
:1027100003F3DB437A69D20819407B68083243F837
:1027200022107B68DA687B695B00032101FA03F3FE
:10273000DB431A407B68DA607B685A6801217B6959
:1027400001FA03F3DB431A407B685A607B689A689E
:102750007B695B00032101FA03F3DB431A407B68CA
:102760009A607B6901337B617B690F2B7FF640AFF9
:1027700000BF00BF1C37BD465DF8047B704700BF3B
:1027800000380140000002400004024000080240FE
:10279000000C024000100240003C014080B485B0B3
:1027A00000AF78600B467B807B681A697B8813409A
:1027B000002B02D00123FB7301E00023FB73FB7BA2
:1027C00018461437BD465DF8047B704780B483B06B
:1027D00000AF78600B467B8013467B707B78002BC4
:1027E00003D07A887B689A6103E07B881A047B684F
:1027F0009A6100BF0C37BD465DF8047B704780B41A
:1028000085B000AF78600B467B807B685B69FB60BE
:102810007A88FB6813401A04FB68D9437B880B4015
:102820001A437B689A6100BF1437BD465DF8047B8C
:102830007047000080B586B000AF78607B68002BE1
:1028400001D1012367E27B681B6803F00103002BC1
:1028500075D0884B9B6803F00C03042B0CD0854B80
:102860009B6803F00C03082B12D1824B5B6803F4C6
:102870008003B3F5800F0BD17E4B1B6803F400334C
:10288000002B5BD07B685B68002B57D1012342E2B1
:102890007B685B68B3F5803F06D1764B1B68754A51
:1028A00043F4803313601DE07B685B68B3F5A02FB1
:1028B0000CD1704B1B686F4A43F4802313606D4B3F
:1028C0001B686C4A43F4803313600BE0694B1B6850
:1028D000684A23F480331360664B1B68654A23F40F
:1028E000802313607B685B68002B13D0FFF75AFBD3
:1028F000386108E0FFF756FB02463B69D31A642BA8
:1029000001D9032307E25B4B1B6803F40033002B60
:10291000F0D014E0FFF746FB386108E0FFF742FB18
:1029200002463B69D31A642B01D90323F3E1514BCF
:102930001B6803F40033002BF0D100E000BF7B687C
:102940001B6803F00203002B63D04A4B9B6803F023
:102950000C03002B0BD0474B9B6803F00C03082B98
:102960001CD1444B5B6803F48003002B16D1414B10
:102970001B6803F00203002B05D07B68DB68012B8A
:1029800001D00123C7E13B4B1B6823F0F8027B68B1
:102990001B69DB00374913430B603AE07B68DB6857
:1029A000002B20D0344B01221A60FFF7FBFA38616C
:1029B00008E0FFF7F7FA02463B69D31A022B01D968
:1029C0000323A8E12B4B1B6803F00203002BF0D07C
:1029D000284B1B6823F0F8027B681B69DB00254944
:1029E00013430B6015E0244B00221A60FFF7DAFA5C
:1029F000386108E0FFF7D6FA02463B69D31A022B8A
:102A000001D9032387E11B4B1B6803F00203002B52
:102A1000F0D17B681B6803F00803002B36D07B687D
:102A20005B69002B16D0154B01221A60FFF7BAFA2A
:102A3000386108E0FFF7B6FA02463B69D31A022B69
:102A400001D9032367E10B4B5B6F03F00203002BFB
:102A5000F0D01BE0094B00221A60FFF7A3FA38619F
:102A60000EE0FFF79FFA02463B69D31A022B07D903
:102A7000032350E10038024000004742800E4742E5
:102A8000884B5B6F03F00203002BEAD17B681B6865
:102A900003F00403002B00F097800023FB75814BAB
:102AA0001B6C03F08053002B0FD10023BB607D4BC8
:102AB0001B6C7C4A43F0805313647A4B1B6C03F00D
:102AC0008053BB60BB680123FB75774B1B6803F425
:102AD0008073002B18D1744B1B68734A43F48073C6
:102AE0001360FFF75FFA386108E0FFF75BFA024610
:102AF0003B69D31A022B01D903230CE16A4B1B68F3
:102B000003F48073002BF0D07B689B68012B06D107
:102B1000644B1B6F634A43F0010313671CE07B683F
:102B20009B68052B0CD15F4B1B6F5E4A43F004037F
:102B300013675C4B1B6F5B4A43F0010313670BE0A9
:102B4000584B1B6F574A23F001031367554B1B6FFC
:102B5000544A23F0040313677B689B68002B15D04D
:102B6000FFF720FA38610AE0FFF71CFA02463B69DA
:102B7000D31A41F28832934201D90323CBE0494B67
:102B80001B6F03F00203002BEED014E0FFF70AFAEC
:102B900038610AE0FFF706FA02463B69D31A41F2B0
:102BA0008832934201D90323B5E03E4B1B6F03F0FB
:102BB0000203002BEED1FB7D012B05D1394B1B6CA1
:102BC000384A23F0805313647B689B69002B00F024
:102BD000A180344B9B6803F00C03082B5CD07B680E
:102BE0009B69022B41D1314B00221A60FFF7DAF9C1
:102BF000386108E0FFF7D6F902463B69D31A022B89
:102C000001D9032387E0274B1B6803F00073002BD7
:102C1000F0D17B68DA697B681B6A1A437B685B6A60
:102C20009B011A437B689B6A5B08013B1B041A43A8
:102C30007B68DB6A1B061B4913434B601B4B01225D
:102C40001A60FFF7AFF9386108E0FFF7ABF9024609
:102C50003B69D31A022B01D903235CE0114B1B689B
:102C600003F00073002BF0D054E0104B00221A60E8
:102C7000FFF798F9386108E0FFF794F902463B69DD
:102C8000D31A022B01D9032345E0064B1B6803F03E
:102C90000073002BF0D13DE07B689B69012B07D1CD
:102CA000012338E0003802400070004060004742D5
:102CB0001B4B5B68FB607B689B69012B28D0FB6822
:102CC00003F480027B68DB699A4221D1FB6803F040
:102CD0003F027B681B6A9A421AD1FA6847F6C073B2
:102CE00013407A68526A9201934211D1FB6803F44F
:102CF00040327B689B6A5B08013B1B049A4207D108
:102D0000FB6803F070627B68DB6A1B069A4201D0A5
:102D1000012300E0002318461837BD4680BD00BFE0
:102D20000038024080B584B000AF786039607B68BD
:102D3000002B01D10123CCE0684B1B6803F0070393
:102D40003A689A420CD9654B3A68D2B21A70634B12
:102D50001B6803F007033A689A4201D00123B8E0E8
:102D60007B681B6803F00203002B20D07B681B6884
:102D700003F00403002B05D0594B9B68584A43F4D9
:102D8000E05393607B681B6803F00803002B05D0B9
:102D9000534B9B68524A43F460439360504B9B688B
:102DA00023F0F0027B689B684D4913438B607B687E
:102DB0001B6803F00103002B44D07B685B68012B88
:102DC00007D1474B1B6803F40033002B19D10123B3
:102DD0007FE07B685B68022B03D07B685B68032B1A
:102DE00007D13F4B1B6803F00073002B09D101236F
:102DF0006FE03B4B1B6803F00203002B01D1012362
:102E000067E0374B9B6823F003027B685B683449BB
:102E100013438B60FFF7C6F8F8600AE0FFF7C2F8CB
:102E20000246FB68D31A41F28832934201D9032348
:102E30004FE02B4B9B6803F00C027B685B689B00A8
:102E40009A42EBD1254B1B6803F007033A689A427C
:102E50000CD2224B3A68D2B21A70204B1B6803F096
:102E600007033A689A4201D0012332E07B681B686D
:102E700003F00403002B08D0194B9B6823F4E052A5
:102E80007B68DB68164913438B607B681B6803F023
:102E90000803002B09D0124B9B6823F460427B6827
:102EA0001B69DB000E4913438B6000F021F80246DA
:102EB0000B4B9B681B0903F00F030A49CB5C22FAFA
:102EC00003F3094A1360094B1B681846FFF726F8FD
:102ED000002318461037BD4680BD00BF003C0240AD
:102EE00000380240606D0008040000201C00002033
:102EF0002DE9B04F94B000AF00237B640023FB6446
:102F000000233B640023BB64794B9B6803F00C03F4
:102F1000082B0DD0082B00F2E180002B02D0042BEF
:102F200003D0DBE0734BBB64DBE0734BBB64D8E0E6
:102F30006F4B5B6803F03F037B646D4B5B6803F48E
:102F40008003002B63D06A4B5B689B090022BB6344
:102F5000FA63BB6BC3F308033B6300237B63D7E9CE
:102F60000C4522462B464FF000004FF0000159015E
:102F700041EAD261500102460B462146511A39619D
:102F8000294663EB01037B614FF000024FF0000321
:102F9000D7E904AB59468B01514643EA9163514648
:102FA0008A015146B2EB0108594663EB01094FF023
:102FB00000024FF000034FEAC90343EA58734FEA97
:102FC000C80290469946234618EB0303BB602B4684
:102FD00049EB0303FB604FF000024FF00003D7E919
:102FE000024529464B02214643EAD15321464A0273
:102FF000104619467B6C0022BB62FA62D7E90A23AD
:10300000FDF73EF902460B461346FB6458E0384B89
:103010005B689B09002218461146C0F308033B6217
:1030200000237B62D7E9088942464B464FF00000F7
:103030004FF00001590141EAD261500102460B46AE
:103040004146B2EB010A494663EB010B4FF0000227
:103050004FF000034FEA8B1343EA9A634FEA8A1258
:10306000B2EB0A0463EB0B054FF000024FF00003D4
:10307000EB0043EA5473E20014461D464346E3184E
:103080003B604B4645EB03037B604FF000024FF083
:103090000003D7E9004529468B02214643EA9153B4
:1030A00021468A02104619467B6C0022BB61FA61F8
:1030B000D7E90623FDF7E4F802460B461346FB6406
:1030C0000B4B5B681B0C03F0030301335B003B6499
:1030D000FA6C3B6CB2FBF3F3BB6402E0054BBB64E0
:1030E00000BFBB6C18465037BD46BDE8B08F00BF6F
:1030F000003802400024F40000127A0080B400AFCF
:10310000034B1B681846BD465DF8047B704700BF43
:103110000400002080B500AFFFF7F0FF0246054B2A
:103120009B689B0A03F007030349CB5C22FA03F375
:10313000184680BD00380240706D000880B500AFB1
:10314000FFF7DCFF0246054B9B685B0B03F00703B0
:103150000349CB5C22FA03F3184680BD00380240D5
:10316000706D000880B582B000AF78607B68002B7E
:1031700001D101237BE07B685B6A002B08D17B686F
:103180005B68B3F5827F09D07B680022DA6105E0D5
:103190007B6800221A617B6800225A617B680022EA
:1031A0009A627B6893F85130DBB2002B06D17B68C2
:1031B000002283F85020786800F05DF87B680222D6
:1031C00083F851207B681B681A687B681B6822F0B3
:1031D00040021A607B685B6803F482727B689B68BC
:1031E00003F404431A437B68DB6803F400631A4367
:1031F0007B681B6903F002031A437B685B6903F079
:1032000001031A437B689B6903F400731A437B68CC
:10321000DB6903F038031A437B681B6A03F0800301
:1032200042EA03017B689B6A03F400527B681B68D7
:103230000A431A607B689B691B0C03F004017B68DE
:103240005B6A03F010027B681B680A435A607B6864
:103250001B68DA697B681B6822F40062DA617B68AC
:1032600000225A657B68012283F85120002318460A
:103270000837BD4680BD80B483B000AF786000BF22
:103280000C37BD465DF8047B704780B58AB000AF4F
:10329000F860B9607A607B8001237B62FEF782FE72
:1032A0003862FB6893F85130FB77FB685B68BB6161
:1032B0007B88FB82FB7F012B0CD0BB69B3F5827F3F
:1032C00006D1FB689B68002B02D1FB7F042B01D049
:1032D00002237FE1BB68002B05D07B68002B02D066
:1032E0007B88002B01D1012374E1FB6893F85030F7
:1032F000012B01D102236DE1FB68012283F85020EC
:10330000FB6893F85130DBB2042B03D0FB68052235
:1033100083F85120FB6800225A65FB687A689A633B
:10332000FB687A88DA87FB687A889A87FB68BA68CC
:103330001A63FB687A88DA86FB687A889A86FB6863
:1033400000221A64FB6800225A64FB681B681B6831
:1033500003F04003402B07D0FB681B681A68FB682A
:103360001B6842F040021A60FB68DB68B3F5006F2F
:103370007ED1FB685B68002B02D0FB8A012B6CD1ED
:10338000FB681B6B1A88FB681B68DA60FB681B6BA9
:103390009A1CFB681A63FB68DB8E9BB2013B9AB2F6
:1033A000FB68DA8659E0FB681B689B6803F0020340
:1033B000022B1BD1FB68DB8E9BB2002B16D07B6AE5
:1033C000012B13D1FB681B6B1A88FB681B68DA6042
:1033D000FB681B6B9A1CFB681A63FB68DB8E9BB255
:1033E000013B9AB2FB68DA8600237B62FB681B68AC
:1033F0009B6803F00103012B19D1FB68DB8F9BB2A3
:10340000002B14D0FB681B68DA68FB689B6B92B2D8
:103410001A80FB689B6B9A1CFB689A63FB68DB8FC6
:103420009BB2013B9AB2FB68DA8701237B62FEF70D
:10343000B9FD02463B6AD31A3A6B9A420DD83B6BF0
:10344000B3F1FF3F09D0FB68012283F85120FB68EC
:10345000002283F850200323BCE0FB68DB8E9BB284
:10346000002BA0D1FB68DB8F9BB2002B9BD182E0AD
:10347000FB685B68002B02D0FB8A012B71D1FB68D3
:103480001A6BFB681B680C3312781A70FB681B6B95
:103490005A1CFB681A63FB68DB8E9BB2013B9AB235
:1034A000FB68DA865DE0FB681B689B6803F002033B
:1034B000022B1CD1FB68DB8E9BB2002B17D07B6AE2
:1034C000012B14D1FB681A6BFB681B680C33127854
:1034D0001A70FB681B6B5A1CFB681A63FB68DB8E57
:1034E0009BB2013B9AB2FB68DA8600237B62FB68E1
:1034F0001B689B6803F00103012B19D1FB68DB8F6C
:103500009BB2002B14D0FB681B68DA68FB689B6BCE
:10351000D2B21A70FB689B6B5A1CFB689A63FB68FB
:10352000DB8F9BB2013B9AB2FB68DA8701237B6297
:10353000FEF738FD02463B6AD31A3A6B9A4203D82B
:103540003B6BB3F1FF3F02D13B6B002B09D1FB6812
:10355000012283F85120FB68002283F850200323C6
:1035600038E0FB68DB8E9BB2002B9CD1FB68DB8FC5
:103570009BB2002B97D13A6A396BF86800F0C4F817
:103580000346002B08D0FB6820225A65FB68002206
:1035900083F8502001231DE0FB689B68002B0AD1B3
:1035A00000233B61FB681B68DB683B61FB681B68B1
:1035B0009B683B613B69FB68012283F85120FB68F3
:1035C000002283F85020FB685B6D002B01D00123A3
:1035D00000E0002318462837BD4680BD80B483B084
:1035E00000AF78607B6893F85130DBB218460C3737
:1035F000BD465DF8047B704780B588B000AFF860C9
:10360000B9603B601346FB71FEF7CCFC0246BB6A17
:103610009B1A3A681344FB61FEF7C4FCB861394B4E
:103620001B685B011B0DFA6902FB03F37B6155E02C
:103630003B68B3F1FF3F51D0FEF7B4FC0246BB69D3
:10364000D31AFA699A4202D9FB69002B3DD1FB6873
:103650001B685A68FB681B6822F0E0025A60FB682E
:103660005B68B3F5827F11D1FB689B68B3F5004FAF
:1036700004D0FB689B68B3F5806F07D1FB681B68BB
:103680001A68FB681B6822F040021A60FB689B6A9C
:10369000B3F5005F0FD1FB681B681A68FB681B68F5
:1036A00022F400521A60FB681B681A68FB681B68EA
:1036B00042F400521A60FB68012283F85120FB6833
:1036C000002283F85020032318E07B69002B02D1ED
:1036D0000023FB6102E07B69013B7B61FB681B68A7
:1036E0009A68BB681340BA689A420CBF0123002352
:1036F000DBB21A46FB799A429AD10023184620374A
:10370000BD4680BD0400002080B588B002AFF860DF
:10371000B9607A607B680093BB6801220221F86877
:10372000FFF76AFF0346002B07D0FB685B6D43F091
:103730002002FB685A65032332E01B4B1B681B4ABF
:10374000A2FB03235B0D4FF47A7202FB03F37B6150
:10375000FB685B68B3F5827F12D17B680093BB681E
:1037600000228021F868FFF747FF0346002B16D0A0
:10377000FB685B6D43F02002FB685A6503230FE092
:103780007B69002B0AD07B69013B7B61FB681B686E
:103790009B6803F08003802BF2D000E000BF002381
:1037A00018461837BD4680BD04000020819F5E1674
:1037B00080B582B000AF78607B68002B01D1012317
:1037C00041E07B6893F83D30DBB2002B06D17B688B
:1037D000002283F83C207868FDF720FF7B680222F6
:1037E00083F83D207B681A687B68043319461046CD
:1037F00000F0F4F87B68012283F846207B68012200
:1038000083F83E207B68012283F83F207B680122F9
:1038100083F840207B68012283F841207B680122E5
:1038200083F842207B68012283F843207B680122D1
:1038300083F844207B68012283F845207B680122BD
:1038400083F83D20002318460837BD4680BD80B56B
:1038500084B000AF786039600023FB737B6893F815
:103860003C30012B01D10223B4E07B68012283F8B4
:103870003C207B68022283F83D207B681B689B68A4
:10388000BB60BB6823F07703BB60BB6823F47F4356
:10389000BB607B681B68BA689A603B681B68B3F5BD
:1038A000005F3ED0B3F5005F00F28780B3F5805F24
:1038B00000F08680B3F5805F7FD8702B1AD0702B14
:1038C0007BD8602B50D0602B77D8502B3CD0502B1E
:1038D00073D8402B58D0402B6FD8302B64D0302B6E
:1038E0006BD8202B60D0202B67D8002B5CD0102BFE
:1038F0005AD062E07B6818683B6899683B685A68F0
:103900003B68DB6800F06AF97B681B689B68BB60FA
:10391000BB6843F07703BB607B681B68BA689A603A
:103920004FE07B6818683B6899683B685A683B6859
:10393000DB6800F053F97B681B689A687B681B683A
:1039400042F480429A603CE07B6818683B685968A2
:103950003B68DB681A4600F0C7F87B681B6850219B
:10396000184600F020F92CE07B6818683B6859681D
:103970003B68DB681A4600F0E6F87B681B6860214C
:10398000184600F010F91CE07B6818683B6859681D
:103990003B68DB681A4600F0A7F87B681B6840218B
:1039A000184600F000F90CE07B681A683B681B6859
:1039B0001946104600F0F7F803E00123FB7300E01E
:1039C00000BF7B68012283F83D207B68002283F8DA
:1039D0003C20FB7B18461037BD4680BD80B485B0C7
:1039E00000AF786039607B681B68FB607B68374A92
:1039F00093420FD07B68B3F1804F0BD07B68344A81
:103A0000934207D07B68334A934203D07B68324AA3
:103A1000934208D1FB6823F07003FB603B685B684E
:103A2000FA681343FB607B68284A93421BD07B688B
:103A3000B3F1804F17D07B68254A934213D07B683F
:103A4000244A93420FD07B68234A93420BD07B6871
:103A5000224A934207D07B68214A934203D07B6875
:103A6000204A934208D1FB6823F44073FB603B6813
:103A7000DB68FA681343FB60FB6823F080023B6855
:103A80005B691343FB603B689A687B68DA623B685A
:103A90001A687B689A627B680C4A934203D13B6840
:103AA0001A697B681A637B681B6843F004027B68B1
:103AB0001A607B6801225A617B68FA681A6000BF4D
:103AC0001437BD465DF8047B704700BF000001401D
:103AD0000004004000080040000C0040004001408D
:103AE000004401400048014080B487B000AFF86056
:103AF000B9607A60FB681B6A7B61FB681B6A23F014
:103B00000102FB681A62FB689B693B613B6923F019
:103B1000F0033B617B681B013A6913433B617B699E
:103B200023F00A037B617A69BB6813437B61FB68FE
:103B30003A699A61FB687A691A6200BF1C37BD4610
:103B40005DF8047B704780B487B000AFF860B9605F
:103B50007A60FB681B6A7B61FB681B6A23F01002BA
:103B6000FB681A62FB689B693B613B6923F4704305
:103B70003B617B681B033A6913433B617B6923F01C
:103B8000A0037B61BB681B017A6913437B61FB68FF
:103B90003A699A61FB687A691A6200BF1C37BD46B0
:103BA0005DF8047B704780B485B000AF7860396001
:103BB0007B689B68FB60FB6823F07003FB603A68DE
:103BC000FB68134343F00703FB607B68FA689A6065
:103BD00000BF1437BD465DF8047B704780B487B0E2
:103BE00000AFF860B9607A603B60FB689B687B61FE
:103BF0007B6923F47F437B613B681A027B681A432D
:103C0000BB6813437A6913437B61FB687A699A60E6
:103C100000BF1C37BD465DF8047B704780B485B09B
:103C200000AF786039607B6893F83C30012B01D19C
:103C3000022350E07B68012283F83C207B6802224B
:103C400083F83D207B681B685B68FB607B681B68B2
:103C50009B68BB60FB6823F07003FB603B681B68DC
:103C6000FA681343FB607B681B68FA685A607B68DC
:103C70001B681C4A934218D07B681B68B3F1804FC5
:103C800013D07B681B68184A93420ED07B681B6870
:103C9000164A934209D07B681B68154A934204D0A8
:103CA0007B681B68134A93420CD1BB6823F08003E6
:103CB000BB603B685B68BA681343BB607B681B688A
:103CC000BA689A607B68012283F83D207B680022F5
:103CD00083F83C20002318461437BD465DF8047B6A
:103CE000704700BF00000140000400400008004091
:103CF000000C00400040014080B582B000AF786009
:103D00007B68002B01D1012342E07B6893F84130AE
:103D1000DBB2002B06D17B68002283F84020786854
:103D200000F03AF87B68242283F841207B681B6806
:103D3000DA687B681B6822F40052DA60786800F069
:103D40007DF97B681B681A697B681B6822F49042C6
:103D50001A617B681B685A697B681B6822F02A021B
:103D60005A617B681B68DA687B681B6842F4005202
:103D7000DA607B6800225A647B68202283F8412045
:103D80007B68202283F842207B6800225A6300234C
:103D900018460837BD4680BD80B483B000AF786058
:103DA00000BF0C37BD465DF8047B704780B58AB014
:103DB00002AFF860B9603B601346FB8000237B6173
:103DC000FB6893F84130DBB2202B75D1BB68002B28
:103DD00002D0FB88002B01D101236EE0FB6800229A
:103DE0005A64FB68212283F84120FEF7DBF87861F2
:103DF000FB68FA889A84FB68FA88DA84FB689B6817
:103E0000B3F5805F08D1FB681B69002B04D1002348
:103E1000FB61BB68BB6103E0BB68FB610023BB6166
:103E20002EE03B6800937B6900228021F86800F057
:103E300048F80346002B05D0FB68202283F8412078
:103E400003233AE0FB69002B0BD1BB691B881A46A0
:103E5000FB681B68C2F308025A60BB690233BB618E
:103E600007E0FB691A78FB681B685A60FB6901333D
:103E7000FB61FB68DB8C9BB2013B9AB2FB68DA8486
:103E8000FB68DB8C9BB2002BCBD13B6800937B693A
:103E900000224021F86800F014F80346002B05D0FA
:103EA000FB68202283F84120032306E0FB682022E0
:103EB00083F84120002300E0022318462037BD4646
:103EC00080BD80B586B000AFF860B9603B60134636
:103ED000FB713BE03B6AB3F1FF3F37D0FEF762F87E
:103EE00002463B68D31A3A6A9A4202D33B6A002BD5
:103EF00001D103233AE0FB681B68DB6803F004038D
:103F0000002B23D0BB68802B20D0BB68402B1DD05A
:103F1000FB681B681B6803F00803082B16D10023FD
:103F20007B61FB681B681B687B61FB681B685B68C7
:103F30007B617B69F86800F01DF8FB6808225A6411
:103F4000FB68002283F8402001230FE0FB681B6818
:103F50001A68BB681340BA689A420CBF0123002359
:103F6000DBB21A46FB799A42B4D0002318461837C0
:103F7000BD4680BD80B495B000AF78607B681B689B
:103F80000C337B637B6B53E8003F3B633B6B23F459
:103F90009073FB647B681B680C33FA6C3A64FB63B8
:103FA000F96B3A6C41E80023BB63BB6B002BE5D196
:103FB0007B681B6814333B623B6A53E8003FFB613C
:103FC000FB6923F00103BB647B681B681433BA6C84
:103FD000FA62BB62B96AFA6A41E800237B627B6AD3
:103FE000002BE5D17B681B6B012B19D17B681B680B
:103FF0000C33FB60FB6853E8003FBB60BB6823F0F9
:1040000010037B647B681B680C337A6CBA617B613C
:104010007969BA6941E800233B613B69002BE5D12E
:104020007B68202283F842207B6800221A6300BF4D
:104030005437BD465DF8047B704700002DE9B04F52
:10404000C0B000AFC7F8F400D7F8F4301B681B69A4
:1040500023F44050D7F8F430D968D7F8F4301A6810
:1040600040EA01031361D7F8F4309A68D7F8F430C6
:104070001B691A43D7F8F4305B691A43D7F8F43058
:10408000DB691343C7F8F830D7F8F4301B68DB68F6
:1040900023F4164121F00C01D7F8F4301A68D7F850
:1040A000F8300B43D360D7F8F4301B685B6923F416
:1040B0004070D7F8F4309969D7F8F4301A6840EABC
:1040C00001035361D7F8F4301A688F4B9A4205D038
:1040D000D7F8F4301A688D4B9A4204D1FFF72EF8C6
:1040E000C7F8FC0003E0FFF715F8C7F8FC00D7F8A5
:1040F000F430DB69B3F5004F40F00C81D7F8FC30A9
:104100000022C7F8E830C7F8EC20D7E93A45224644
:104110002B469118B9655B41FB65D7E9162321460B
:1041200012EB0108294643EB01094FF000024FF062
:1041300000034FEAC90343EA58734FEAC8029046A6
:104140009946234618EB0303C7F8E0302B4649EBAA
:104150000303C7F8E430D7F8F4305B680022C7F8EF
:10416000D830C7F8DC20D7E936120B46DB183B65A0
:10417000134642EB03037B65D7E91423D7E93801E3
:10418000FCF77EF802460B46614BA3FB02235B095A
:104190001C01D7F8FC300022C7F8D030C7F8D42073
:1041A000D7E9348942464B469118B9645B41FB64B8
:1041B000D7E91223414612EB010A494643EB010BB2
:1041C0004FF000024FF000034FEACB0343EA5A736B
:1041D0004FEACA0292469B4643461AEB0303C7F8CE
:1041E000C8304B464BEB0303C7F8CC30D7F8F4305C
:1041F0005B680022C7F8C030C7F8C420D7E9301286
:104200000B46DB183B64134642EB03037B64D7E9A0
:104210001023D7E93201FCF733F802460B4611466A
:104220003B4BA3FB01235B09642202FB03F3CB1A84
:10423000DB0003F13202364BA3FB02235B095B0078
:1042400003F4F8731C44D7F8FC300022C7F8B830E8
:10425000C7F8BC20D7E92E8942464B469118B9636E
:104260005B41FB63D7E90E23414651183963494648
:104270004B417B634FF000024FF00003D7E90CABDA
:104280005946CB00514643EA51735146CA00104685
:104290001946034642469B18C7F8B0304B460A46BB
:1042A00042EB0303C7F8B430D7F8F4305B68002260
:1042B000C7F8A830C7F8AC20D7E92A120B46DB189C
:1042C000BB62134642EB0303FB62D7E90A23D7E93B
:1042D0002C01FBF7D5FF02460B460D4BA3FB021347
:1042E0005B09642101FB03F3D31ADB003233084A74
:1042F000A2FB03235B0903F00702D7F8F4301B6825
:1043000022449A6006E100BF001001400014014001
:104310001F85EB51D7F8FC300022C7F8A030C7F852
:10432000A420D7E9288942464B46911839625B415F
:104330007B62D7E9082341465418494643EB0105FF
:104340004FF000024FF00003EB0043EA5473E20029
:1043500014461D464346E318C7F898304B4645EBD4
:104360000303C7F89C30D7F8F4305B680022C7F825
:104370009030C7F894204FF000024FF00003D7E9C7
:10438000244529468B00214643EA917321468A0041
:10439000D7E92601FBF774FF02460B46604BA3FBEF
:1043A00002235B091C01D7F8FC300022C7F88830D3
:1043B000C7F88C20D7E9228942464B469118B9614B
:1043C0005B41FB61D7E906234146511839614946F3
:1043D0004B417B614FF000024FF00003D7E904AB83
:1043E0005946CB00514643EA51735146CA00104624
:1043F0001946034642469B18C7F880304B460A468A
:1044000042EB0303C7F88430D7F8F4305B6800222E
:10441000BB67FA674FF000024FF00003D7E91E892F
:1044200049468B00414643EA917341468A00D7E9E9
:104430002001FBF725FF02460B461146384BA3FB34
:1044400001235B09642202FB03F3CB1A1B01323305
:10445000334AA2FB03235B0903F0F0031C44D7F8A3
:10446000FC3000223B677A67D7E91C8942464B46FD
:104470009118B9605B41FB60D7E9022341465118AE
:10448000396049464B417B604FF000024FF000031A
:10449000D7E900AB5946CB00514643EA5173514628
:1044A000CA0010461946034642469B18BB664B4657
:1044B0000A4642EB0303FB66D7F8F4305B68002240
:1044C0003B667A664FF000024FF00003D7E9188987
:1044D00049468B00414643EA917341468A00D7E939
:1044E0001A01FBF7CDFE02460B460D4BA3FB021350
:1044F0005B09642101FB03F3D31A1B013233084A21
:10450000A2FB03235B0903F00F02D7F8F4301B680A
:1045100022449A6000BF07F58077BD46BDE8B08FA2
:104520001F85EB5180B58CB000AF3B600346FB713B
:104530000B46BB7113467B71FB793B75BB797B7571
:104540007B79BB7507F10C0307220021184601F0A7
:104550006BFD07F1180318220021184601F064FDD5
:104560003F233B838A237B8307F114033B620323AE
:104570007B6207F10C03BB620723FB6207F11803A0
:104580000021184600F0D6FF0346002B01DAFF2376
:1045900014E03B7B002B01D03B7B0FE0B7F80D30E4
:1045A0009AB23B681A80B7F80F309AB2BB6B1A8088
:1045B000B7F811309AB2FB6B1A80002318463037D7
:1045C000BD4680BD80B58EB000AFB9607A603B60FB
:1045D0000346FB73FB7B3B7707F1140307220021A3
:1045E000184601F021FD07F120031822002118468A
:1045F00001F01AFD3F233B848A237B8407F11C03CF
:10460000BB620123FB6207F114033B6307237B6357
:1046100007F120030021184600F08CFF0346002B11
:1046200001DAFF2314E03B7D002B01D03B7D0FE03E
:10463000B7F815309AB2BB681A80B7F817309AB23B
:104640007B681A80B7F819309AB23B681A80002349
:1046500018463837BD4680BD90B595B000AF0446CA
:10466000084611461A462346FB710346BB800B469B
:104670007B801346BB71002387F84F3097F8642086
:1046800097F86C3013440E33282B01D94223C9E02C
:1046900097F84F3050333B44FA7903F8482C97F899
:1046A0004F30013387F84F30BB88BB8097F84F30CD
:1046B00007F108021344BA881A8097F84F30023382
:1046C00087F84F307B887B8097F84F3007F10802DE
:1046D00013447A881A8097F84F30023387F84F30A6
:1046E00097F84F3050333B44BA7903F8482C97F889
:1046F0004F30013387F84F3097F84F3050333B44F9
:1047000097F8602003F8482C97F84F30013387F86A
:104710004F3097F84F3050333B4497F8642003F8FC
:10472000482C97F84F30013387F84F3097F84F30C7
:1047300007F10802134497F86420B96E184601F097
:10474000EEFC97F84F2097F86430134487F84F3009
:1047500097F84F3050333B4497F86C2003F8482CBF
:1047600097F84F30013387F84F3097F84F3007F103
:104770000802134497F86C20396F184601F0CFFCFB
:1047800097F84F2097F86C30134487F84F30B7F8FC
:104790007430A7F8743097F84F3007F108021344CB
:1047A000B7F874201A8097F84F30023387F84F30EB
:1047B000B7F87830A7F8783097F84F3007F108024B
:1047C0001344B7F878201A8097F84F30023387F8EF
:1047D0004F3007F1340318220021184601F024FC61
:1047E0003F23BB868323FB8607F10803FB6397F80F
:1047F0004F303B6407F133037B640123BB6407F153
:1048000034030021184600F095FE0346002B01DA20
:10481000FF2307E097F83330002B02D097F83330AE
:1048200000E0002318465437BD4690BD90B591B0C6
:1048300000AF3A601A460346FB710B46BB71134644
:104840007B71FB793B73BB797B73BB79002B0AD0FF
:104850003A6807F10E03146850689168D2681C60CA
:1048600058609960DA607B79BB7797F85030FB77B6
:1048700097F8543087F82030BB6DC7F8213097F88F
:104880005C3087F8253007F12803182200211846EC
:1048900001F0CAFB3F233B8586237B8507F10C0390
:1048A0003B631A237B6307F10B03BB630123FB63A9
:1048B00007F128030021184600F03CFE0346002BB8
:1048C00001DAFF2305E0FB7A002B01D0FB7A00E040
:1048D000002318464437BD4690BD80B592B000AF66
:1048E0007B600346FB810B46BB811346FB72FB8951
:1048F0003B83BB897B83FB7A3B777A6807F11D0397
:104900001168196092889A8097F8503087F82330A0
:10491000B7F85430BB84B7F85830FB84B7F85C3034
:104920003B85B7F860307B85B7F86430BB85B7F856
:104930006830FB8507F1300318220021184601F08A
:1049400073FB3F233B869C237B8607F11803BB63E5
:104950001823FB630F237B6307F117033B640123D9
:104960007B6407F130030021184600F0E3FD0346A5
:10497000002B01DAFF2300E0FB7D18464837BD46D7
:1049800080BD80B588B000AF07F108031822002170
:10499000184601F049FB3F233B8140F201137B8124
:1049A000FB1DBB610123FB6107F1080300211846D1
:1049B00000F0C0FD0346002B01DAFF2300E0FB7985
:1049C00018462037BD4680BD80B590B000AF396035
:1049D00011461A460346FB710B46BB7113467B71A9
:1049E000002387F83E3097F83E3040333B44FA7955
:1049F00003F8342C97F83E30013387F83E30FB79CA
:104A0000012B03D1022387F83F3002E0102387F8FF
:104A10003F3097F83E3007F10C02134497F83F20DF
:104A20003968184601F07BFB97F83E2097F83F3035
:104A3000134487F83E3097F83E3040333B44BA7910
:104A400003F8342C97F83E30013387F83E3097F85E
:104A50003E3040333B447A7903F8342C97F83E30AB
:104A6000013387F83E3007F1200303220021184666
:104A700001F0DAFA07F1240318220021184601F0A8
:104A8000D3FA3F23BB844FF48173FB8407F10C03FB
:104A9000FB6297F83E303B6307F120037B630323FF
:104AA000BB6307F124030021184600F043FD0346D1
:104AB000002B01DAFF230CE097F82030002B02D006
:104AC00097F8203005E0B7F821309AB2BB6C1A8015
:104AD000002318464037BD4680BD80B592B000AF78
:104AE0003A601A460346FB800B467B7113463B71C6
:104AF000002387F84630FB88FB8097F8463007F1A3
:104B00000C021344FA881A8097F84630023387F86B
:104B1000463097F8463048333B447A7903F83C2CCA
:104B200097F84630013387F846307B79012B03D163
:104B3000022387F8473002E0102387F8473097F8C0
:104B4000463007F10C02134497F84720396818469D
:104B500001F0E5FA97F8462097F84730134487F8B4
:104B6000463097F8463048333B443A7903F83C2CBA
:104B700097F84630013387F8463097F84630483387
:104B80003B4497F8502003F83C2C97F8463001330B
:104B900087F8463097F8463048333B4497F854201E
:104BA00003F83C2C97F84630013387F8463097F8E5
:104BB000463048333B4497F8582003F83C2C97F88C
:104BC0004630013387F8463097F8463048333B4447
:104BD00097F85C2003F83C2C97F84630013387F8AF
:104BE000463097F8463048333B4497F8602003F846
:104BF0003C2C97F84630013387F8463007F12803FC
:104C000003220021184601F00FFA07F12C031822A5
:104C10000021184601F008FA3F23BB854FF4827348
:104C2000FB8507F10C037B6397F84630BB6307F104
:104C30002803FB6303233B6407F12C030021184680
:104C400000F078FC0346002B01DAFF230CE097F814
:104C50002830002B02D097F8283005E0B7F829302B
:104C60009AB27B6E1A80002318464837BD4680BD35
:104C700090B5ABB000AF0446084611461A4623462D
:104C8000FB800346BB800B46FB701346BB700023C2
:104C900087F8A730BB787A2B01D9422374E0FB88D0
:104CA000FB8097F8A73007F108021344FA881A80AE
:104CB00097F8A730023387F8A730BB88BB8097F8F6
:104CC000A73007F108021344BA881A8097F8A73072
:104CD000023387F8A73097F8A730A8333B44FA7817
:104CE00003F8A02C97F8A730013387F8A73097F87E
:104CF000A730A8333B44BA7803F8A02C97F8A73024
:104D0000013387F8A73097F8A73007F1080213445A
:104D1000BA78D7F8B810184601F001FA97F8A7202A
:104D2000BB78134487F8A73007F18C0318220021C1
:104D3000184601F079F93F23A7F88C304FF48373BC
:104D4000A7F88E3007F10803C7F8943097F8A7301A
:104D5000C7F8983007F18B03C7F89C300123C7F8D8
:104D6000A03007F18C030021184600F0E3FB034656
:104D7000002B01DAFF2307E097F88B30002B02D0DD
:104D800097F88B3000E000231846AC37BD4690BD45
:104D900090B591B000AF0446084611461A46234626
:104DA000FB800346BB800B467B8013467B70002351
:104DB00087F83E30FB88FB8097F83E3007F10C0205
:104DC0001344FA881A8097F83E30023387F83E3051
:104DD000BB88BB8097F83E3007F10C021344BA88B9
:104DE0001A8097F83E30023387F83E307B887B800C
:104DF00097F83E3007F10C0213447A881A8097F82E
:104E00003E30023387F83E3097F83E3040333B4423
:104E10007A7803F8342C97F83E30013387F83E3027
:104E20007B78012B03D1022387F83F3002E0102367
:104E300087F83F3097F83E3007F10C02134497F89B
:104E40003F20396D184601F06AF997F83E2097F82F
:104E50003F30134487F83E3007F124031822002125
:104E6000184601F0E1F83F23BB844FF48B73FB84B9
:104E700007F10C03FB6297F83E303B630F23BB62E4
:104E800007F123037B630123BB6307F124030021A4
:104E9000184600F04FFB0346002B01DAFF2301E028
:104EA00097F8233018464437BD4690BD80B5ACB066
:104EB00000AF7B600346FB810B46BB811346FB7250
:104EC000002387F8AF30FB7A7B2B01D9422364E0C3
:104ED000FB89FB8197F8AF3007F110021344FA8980
:104EE0001A8097F8AF30023387F8AF30BB89BB81A7
:104EF00097F8AF3007F110021344BA891A8097F877
:104F0000AF30023387F8AF3097F8AF30B0333B445F
:104F1000FA7A03F8A02C97F8AF30013387F8AF3056
:104F200097F8AF3007F110021344FA7A79681846FF
:104F300001F0F5F897F8AF20FB7A134487F8AF300B
:104F400007F1940318220021184601F06DF83F2361
:104F5000A7F8943040F22113A7F8963007F1100318
:104F6000C7F89C3097F8AF30C7F8A0300F23C7F8C8
:104F7000983007F19303C7F8A4300123C7F8A8308D
:104F800007F194030021184600F0D4FA0346002BE1
:104F900001DAFF2301E097F893301846B037BD4699
:104FA00080BD80B592B000AF7B600346FB810B46AD
:104FB000BB811346FB72FB7A142B01D9422331E0EB
:104FC000FB89BB82BB89FB82FB7A3B76FA7A07F1CD
:104FD000140305337968184601F0A1F807F130038E
:104FE00018220021184601F01FF83F233B8640F2AB
:104FF00023137B8607F11403BB63FB7A0533FB6342
:1050000007F12F033B6401237B6407F13003002188
:10501000184600F08FFA0346002B01DAFF2301E067
:1050200097F82F3018464837BD4680BD80B5AAB0E6
:1050300000AF03463A60FB710B46BB71002387F853
:10504000A730BB797E2B01D9422350E097F8A730D7
:10505000A8333B44FA7903F8A02C97F8A730013322
:1050600087F8A73097F8A730A8333B44BA7903F8FC
:10507000A02C97F8A730013387F8A73097F8A7300E
:1050800007F108021344BA793968184601F047F865
:1050900097F8A720BB79134487F8A73007F18C0352
:1050A00018220021184600F0BFFF3F23A7F88C30DC
:1050B0000C23A7F88E3007F10803C7F8943097F84F
:1050C000A730C7F8983007F18B03C7F89C3001234D
:1050D000C7F8A03007F18C030021184600F02AFA27
:1050E0000346002B01DAFF2301E097F88B301846C6
:1050F000A837BD4680BD80B58AB000AF03460A46DA
:10510000FB711346BB71FB793B73BB797B7307F172
:10511000100318220021184600F086FF3F233B822F
:105120000F237B8207F10C03BB610223FB6107F1B4
:105130000B033B6201237B6207F110030021184639
:1051400000F0F8F90346002B01DAFF2300E0FB7AB8
:1051500018462837BD4680BD90B589B002AF78604B
:10516000396007F1100407F1150207F1120107F188
:10517000160007F10E030093234600F051F8034692
:10518000FB75FB7D002B24D17B8A1B0A9BB2DAB214
:105190007B681A707B8A1B029AB23B681A803B6854
:1051A0001B881AB2FB891BB203F0F0031BB2134336
:1051B0001BB29AB23B681A803B681B881AB2FB8903
:1051C0001BB203F00F031BB213431BB29AB23B682E
:1051D0001A80FB7D18461C37BD4690BD80B588B04F
:1051E00000AF07F1080318220021184600F01CFF49
:1051F00003233B8103237B81FB1DBB610123FB61F7
:1052000007F108030021184600F094F90346002B2B
:1052100001DAFF2300E0FB7918462037BD4680BD48
:1052200080B58EB000AFF860B9607A603B6007F17E
:10523000140309220021184600F0F6FE07F12003AE
:1052400018220021184600F0EFFE04233B840123BE
:105250007B840023BB620023FB6207F114033B63E2
:1052600009237B6307F120030021184600F062F94F
:105270000346002B01DAFF2318E03B7D002B01D011
:105280003B7D13E07A7DFB681A70FA8ABB681A804E
:105290003A7E7B681A70B7F819309AB23B681A8068
:1052A000B7F81B309AB23B6C1A8000231846383787
:1052B000BD4680BD80B592B000AF03463960FB713A
:1052C00007F1100320220021184600F0ADFEFB7903
:1052D0003B74FB791F2B28BF1F23DBB21A4607F153
:1052E000100301333968184600F019FF07F1300345
:1052F00018220021184600F097FE08233B86092358
:105300007B8607F11003BB632023FB6307F10F03C8
:105310003B6401237B6407F130030021184600F051
:1053200009F90346002B01DAFF2300E0FB7B184656
:105330004837BD4680BD80B485B000AF78607B68DB
:105340000833FB60FB681B78042B01D001230CE0C1
:10535000FB6802331B781A467B6893F88830033B5E
:105360009A4201D0022300E0002318461437BD46BC
:105370005DF8047B7047000080B5A6B000AF7B608D
:105380000346FB810B46BB811346FB72B7F90C3019
:10539000C3F309031AB2B7F90E309B021BB21343D1
:1053A0001BB29BB2BB82FB7ABB7501233B7607F134
:1053B000180301331A4607F1140319889B781180EA
:1053C000937007F118030433FA7A7968184600F0ED
:1053D000A6FE094B1B69002B09D0074B1B69FA7A03
:1053E00092B2043291B207F118021046984700BFFA
:1053F0009837BD4680BD00BF8405002080B584B0CD
:1054000000AF786039600AE007F10C03194638688C
:1054100000F0E8FAFB681946786800F04FFA38683F
:1054200000F02AFA0346002BEED000BF00BF103771
:10543000BD4680BD80B582B000AF09E03B1D194676
:10544000094800F0A8FA7B681946084800F05CFAA1
:10545000064800F0EEFA0346012BEFDD00BF00BF67
:105460000837BD4680BD00BFC0020020B802002042
:1054700080B584B000AF786039607B68002B02D0C3
:10548000184A7B68D361184800F0E6F9174800F025
:10549000E3F9FBF703FF0023FB730CE0FB7B8C229B
:1054A00002FB03F3124A134419460F4800F02CFA8A
:1054B000FB7B0133FB73FB7B042BEFD9094B1B6890
:1054C000002B03D0074B1B6800209847054B9B68B7
:1054D000002B02D0034B9B68984700BF1037BD4696
:1054E00080BD00BF84050020B8020020C00200205B
:1054F000C802002080B483B000AF78607B681B686E
:105500000B4A13607B68DB68094AD3607B681B69C0
:10551000074A13617B689B69054A93617B689B68B6
:10552000034A936000BF0C37BD465DF8047B7047AB
:105530008405002080B58EB000AF78600B46FB700C
:105540007B685B881BB2C3F309031AB27B681B88B4
:105550001BB29B021BB213431BB2FB8600233B61B1
:1055600007F10803184600F077F9FFF763FF7B683F
:1055700018887B6859887B68DB68DAB27B689B682F
:10558000FFF7FAFEFB78002B01D00023E2E0FCF7E6
:1055900009FD3863FCF706FD02463B6BD31AB3F5F1
:1055A0007A7F00F2B3806D4800F066F90346002B65
:1055B00000D0EFE700BF07F110031946674800F07D
:1055C000EAF93B690833FB62FB6A1B78042B7FD145
:1055D000FB6A0133BB623B69083303337B623B697F
:1055E00093F88830033B3B62BB6A1B783E2B4CD060
:1055F0003E2B68DC102B00F08B80102B63DC0E2B15
:1056000023D00F2B5FD17B6ABB61BB695B889BB2E8
:10561000FA8E9A427ED17B685B680F2B04D0BB69FF
:105620001B78002B51D078E07B685A693B6A9A421C
:1056300028BF1A467B685A617B6818697B685B697A
:105640001A46796A00F06BFD78E07B6A7B617B69C2
:10565000B3F801309BB2FA8E9A425DD17B6A033374
:105660007B623B6A033B3B627B685A693B6A9A42B6
:1056700028BF1A467B685A617B6818697B685B693A
:105680001A46796A00F04BFD58E07B6AFB61FB69C2
:105690001B781A467B685B689A4218D13B6A013BCB
:1056A0003B627B685A693B6A9A4228BF1A467B680C
:1056B0005A617B681869FB69591C7B685B691A46EB
:1056C00000F02DFD3AE000BF02E000BF00E000BFA7
:1056D000234800F0D1F80346002B0DD01F4800F0FE
:1056E000CBF80346002B07D03B6919461C4800F055
:1056F0000BF900233B6108E03A6907F10803114602
:10570000184600F001F900233B6140E700BF04E0C8
:1057100000BF02E000BF00E000BF3B69002B04D0E7
:105720003B6919460E4800F0C9F807F1080319460D
:105730000A48FFF763FE4FF0FF330BE03B69194661
:10574000074800F0BBF807F1080319460348FFF7C4
:1057500055FE002318463837BD4680BDC0020020E4
:10576000B802002080B582B000AF00237B6013E058
:105770003B1D19460E4800F00EF90E4BDB69002B5D
:1057800005D00C4BDB697A680832104698477B6875
:105790001946094800F0B8F8054800F06DF80346CE
:1057A000002BE5D000BF00BF0837BD4680BD00BF5D
:1057B000C002002084050020B802002080B586B019
:1057C00000AF78600023FB6000237B611F4800F07E
:1057D00053F80346002B32D107F10C0319461B483E
:1057E00000F0D9F81A4BDB68002B2AD0184BDB6885
:1057F000FA6808328021104698470346FB74FB7C08
:10580000002B16D0FB68FA7C83F88820FB681846CA
:10581000FFF791FD0346002B05D1FB6819460D48A3
:1058200000F072F80DE0FB681946084800F046F8F1
:1058300007E0FB681946054800F040F801E0012345
:105840007B617B6918461837BD4680BDB8020020D1
:1058500084050020C002002080B483B000AF7860CF
:105860007B687A681A607B687A685A6000BF0C3778
:10587000BD465DF8047B704780B487B000AF7860A8
:10588000EFF31083FB60FB683B6172B600BF7B687F
:105890001B687A689A4202D10123FB7501E000235C
:1058A000FB753B69BB60BB6883F3108800BFFB7D61
:1058B00018461C37BD465DF8047B704780B487B03E
:1058C00000AF78603960EFF31083FB60FB687B61A9
:1058D00072B600BF7B681A683B681A603B687A68DA
:1058E0005A607B683A681A603B681B683A685A607D
:1058F0007B693B613B6983F3108800BF00BF1C37A5
:10590000BD465DF8047B704780B487B000AF786017
:105910003960EFF31083FB60FB687B6172B600BFF8
:105920003B687A681A607B685A683B685A607B6893
:105930003A685A603B685B683A681A607B693B6109
:105940003B6983F3108800BF00BF1C37BD465DF87C
:10595000047B704780B487B000AF7860EFF31083AA
:10596000FB60FB687B6172B600BF7B685B687A682E
:1059700012681A607B681B687A6852685A607B6993
:105980003B613B6983F3108800BF00BF1C37BD46F5
:105990005DF8047B704780B586B000AF78603960F1
:1059A000EFF31083FB60FB687B6172B600BF7B681E
:1059B0001A683B681A607B681B681846FFF7CAFFC5
:1059C0003B681B6800221A603B681B6800225A6013
:1059D0007B693B613B6983F3108800BF00BF1837C8
:1059E000BD4680BD80B586B000AF78603960EFF30A
:1059F0001083FB60FB687B6172B600BF7B685A68EE
:105A00003B681A607B685B681846FFF7A3FF3B683A
:105A10001B6800221A603B681B6800225A607B6981
:105A20003B613B6983F3108800BF00BF1837BD4658
:105A300080BD80B489B000AF78600023FB61EFF3D4
:105A400010833B613B697B6172B600BF7B681B685A
:105A5000BB6105E0FB690133FB61BB691B68BB618E
:105A6000BA697B689A42F5D17B69FB60FB6883F376
:105A7000108800BFFB6918462437BD465DF8047BDB
:105A800070470000B1F90C202DE9F04116070546DA
:105A90000C4654D44B68002B02DC0B6C002B48DD09
:105AA000E66A002E45D0002312F480522F68216A46
:105AB0002B6030D0626DA389590705D56368D21A6F
:105AC000636B0BB1236CD21A0023E66A216A284665
:105AD000B047431CA38906D129681D292BD82A4A1F
